{
  "contracts/Luanchpad.sol": {
    "AiLaunchpad": {
      "abi": [
        {
          "inputs": [
            {
              "internalType": "address",
              "name": "nft_",
              "type": "address"
            },
            {
              "internalType": "address",
              "name": "feeRecipient_",
              "type": "address"
            },
            {
              "internalType": "uint96",
              "name": "feeBps_",
              "type": "uint96"
            }
          ],
          "stateMutability": "nonpayable",
          "type": "constructor"
        },
        {
          "inputs": [
            {
              "internalType": "address",
              "name": "owner",
              "type": "address"
            }
          ],
          "name": "OwnableInvalidOwner",
          "type": "error"
        },
        {
          "inputs": [
            {
              "internalType": "address",
              "name": "account",
              "type": "address"
            }
          ],
          "name": "OwnableUnauthorizedAccount",
          "type": "error"
        },
        {
          "inputs": [],
          "name": "ReentrancyGuardReentrantCall",
          "type": "error"
        },
        {
          "anonymous": false,
          "inputs": [
            {
              "indexed": true,
              "internalType": "uint256",
              "name": "listingId",
              "type": "uint256"
            },
            {
              "indexed": true,
              "internalType": "uint256",
              "name": "tokenId",
              "type": "uint256"
            },
            {
              "indexed": false,
              "internalType": "address",
              "name": "buyer",
              "type": "address"
            }
          ],
          "name": "Bought",
          "type": "event"
        },
        {
          "anonymous": false,
          "inputs": [
            {
              "indexed": true,
              "internalType": "uint256",
              "name": "listingId",
              "type": "uint256"
            },
            {
              "indexed": true,
              "internalType": "uint256",
              "name": "tokenId",
              "type": "uint256"
            },
            {
              "indexed": false,
              "internalType": "uint256",
              "name": "price",
              "type": "uint256"
            }
          ],
          "name": "Listed",
          "type": "event"
        },
        {
          "anonymous": false,
          "inputs": [
            {
              "indexed": true,
              "internalType": "address",
              "name": "previousOwner",
              "type": "address"
            },
            {
              "indexed": true,
              "internalType": "address",
              "name": "newOwner",
              "type": "address"
            }
          ],
          "name": "OwnershipTransferred",
          "type": "event"
        },
        {
          "inputs": [
            {
              "internalType": "address",
              "name": "seller",
              "type": "address"
            },
            {
              "internalType": "uint256",
              "name": "tokenId",
              "type": "uint256"
            }
          ],
          "name": "autoListMinted",
          "outputs": [
            {
              "internalType": "uint256",
              "name": "listingId",
              "type": "uint256"
            }
          ],
          "stateMutability": "nonpayable",
          "type": "function"
        },
        {
          "inputs": [
            {
              "internalType": "uint256",
              "name": "listingId",
              "type": "uint256"
            }
          ],
          "name": "buy",
          "outputs": [],
          "stateMutability": "payable",
          "type": "function"
        },
        {
          "inputs": [],
          "name": "feeBps",
          "outputs": [
            {
              "internalType": "uint96",
              "name": "",
              "type": "uint96"
            }
          ],
          "stateMutability": "view",
          "type": "function"
        },
        {
          "inputs": [],
          "name": "feeRecipient",
          "outputs": [
            {
              "internalType": "address",
              "name": "",
              "type": "address"
            }
          ],
          "stateMutability": "view",
          "type": "function"
        },
        {
          "inputs": [
            {
              "internalType": "uint256",
              "name": "",
              "type": "uint256"
            }
          ],
          "name": "listings",
          "outputs": [
            {
              "internalType": "address",
              "name": "seller",
              "type": "address"
            }
          ],
          "stateMutability": "view",
          "type": "function"
        },
        {
          "inputs": [],
          "name": "nft",
          "outputs": [
            {
              "internalType": "address",
              "name": "",
              "type": "address"
            }
          ],
          "stateMutability": "view",
          "type": "function"
        },
        {
          "inputs": [],
          "name": "owner",
          "outputs": [
            {
              "internalType": "address",
              "name": "",
              "type": "address"
            }
          ],
          "stateMutability": "view",
          "type": "function"
        },
        {
          "inputs": [],
          "name": "renounceOwnership",
          "outputs": [],
          "stateMutability": "nonpayable",
          "type": "function"
        },
        {
          "inputs": [
            {
              "internalType": "address",
              "name": "recipient",
              "type": "address"
            },
            {
              "internalType": "uint96",
              "name": "bps",
              "type": "uint96"
            }
          ],
          "name": "setFee",
          "outputs": [],
          "stateMutability": "nonpayable",
          "type": "function"
        },
        {
          "inputs": [
            {
              "internalType": "address",
              "name": "newOwner",
              "type": "address"
            }
          ],
          "name": "transferOwnership",
          "outputs": [],
          "stateMutability": "nonpayable",
          "type": "function"
        },
        {
          "stateMutability": "payable",
          "type": "receive"
        }
      ],
      "evm": {
        "assembly": "// RO data = 0/0 bytes\n// RW data = 204/65824 bytes\n// Stack size = 32768 bytes\n\n// Instructions = 5327\n// Code size = 18770 bytes\n\n      : @0 (gas: 7)\n     0: sp = sp + 0xffffffffffffffe8\n     3: u64 [sp + 0x10] = ra\n     6: u64 [sp + 0x8] = s0\n     9: u64 [sp] = s1\n    11: s1 = 0x200c8\n    16: s0 = i32 [0x200c8]\n    21: jump @3 if s0 == 0\n      : @1 (gas: 5)\n    24: a0 = 0x30100\n    29: i32 a0 = a0 + 0\n    31: i32 a1 = s1 + 0\n    33: ecalli 7 // 'get_immutable_data'\n    35: fallthrough\n      : @2 (gas: 3)\n    36: a0 = i32 [0x200c8]\n    41: u32 [0x200c8] = 0\n    46: jump @4 if a0 <u s0\n      : @3 (gas: 5)\n    49: ra = u64 [sp + 0x10]\n    52: s0 = u64 [sp + 0x8]\n    55: s1 = u64 [sp]\n    57: sp = sp + 0x18\n    60: ret\n      : @4 (gas: 1)\n    62: trap\n      : @5 (gas: 2)\n    63: a1 = i32 [0x200c8]\n    68: jump @70 if a1 == 0\n      : @6 (gas: 4)\n    72: a0 = 0x30100\n    77: i32 a0 = a0 + 0\n    79: ecalli 14 // 'set_immutable_data'\n    81: jump @70\n      : @7 (gas: 8)\n    84: sp = sp + 0xfffffffffffffff0\n    87: u64 [sp + 0x8] = ra\n    90: u64 [sp] = s0\n    92: a2 = a1\n    94: s0 = a0\n    96: a1 = 0x20\n    99: a0 = a2\n   101: ra = 2, jump @16\n      : @8 [@dyn 1] (gas: 100)\n   106: a1 = u8 [a0 + 0x1]\n   109: a2 = u8 [a0]\n   111: a3 = u8 [a0 + 0x2]\n   114: a4 = u8 [a0 + 0x3]\n   117: a1 = a1 << 0x8\n   120: a1 = a1 | a2\n   123: a3 = a3 << 0x10\n   126: a4 = a4 << 0x18\n   129: a3 = a3 | a4\n   132: a1 = a1 | a3\n   135: a2 = u8 [a0 + 0x5]\n   138: a3 = u8 [a0 + 0x4]\n   141: a4 = u8 [a0 + 0x6]\n   144: a5 = u8 [a0 + 0x7]\n   147: a2 = a2 << 0x8\n   150: a2 = a2 | a3\n   153: a4 = a4 << 0x10\n   156: a5 = a5 << 0x18\n   159: a4 = a4 | a5\n   162: a2 = a2 | a4\n   165: a2 = a2 << 0x20\n   168: t0 = a2 | a1\n   171: a2 = u8 [a0 + 0x9]\n   174: a3 = u8 [a0 + 0x8]\n   177: a4 = u8 [a0 + 0xa]\n   180: a5 = u8 [a0 + 0xb]\n   183: a2 = a2 << 0x8\n   186: a2 = a2 | a3\n   189: a4 = a4 << 0x10\n   192: a5 = a5 << 0x18\n   195: a4 = a4 | a5\n   198: a2 = a2 | a4\n   201: a3 = u8 [a0 + 0xd]\n   204: a4 = u8 [a0 + 0xc]\n   207: a5 = u8 [a0 + 0xe]\n   210: a1 = u8 [a0 + 0xf]\n   213: a3 = a3 << 0x8\n   216: a3 = a3 | a4\n   219: a5 = a5 << 0x10\n   222: a1 = a1 << 0x18\n   225: a1 = a1 | a5\n   228: a1 = a1 | a3\n   231: a1 = a1 << 0x20\n   234: t1 = a1 | a2\n   237: a1 = u8 [a0 + 0x11]\n   240: a3 = u8 [a0 + 0x10]\n   243: a4 = u8 [a0 + 0x12]\n   246: a5 = u8 [a0 + 0x13]\n   249: a1 = a1 << 0x8\n   252: a1 = a1 | a3\n   255: a4 = a4 << 0x10\n   258: a5 = a5 << 0x18\n   261: a4 = a4 | a5\n   264: a1 = a1 | a4\n   267: a3 = u8 [a0 + 0x15]\n   270: a4 = u8 [a0 + 0x14]\n   273: a5 = u8 [a0 + 0x16]\n   276: a2 = u8 [a0 + 0x17]\n   279: a3 = a3 << 0x8\n   282: a3 = a3 | a4\n   285: a5 = a5 << 0x10\n   288: a2 = a2 << 0x18\n   291: a2 = a2 | a5\n   294: a2 = a2 | a3\n   297: a2 = a2 << 0x20\n   300: a3 = a2 | a1\n   303: a1 = u8 [a0 + 0x19]\n   306: a2 = u8 [a0 + 0x18]\n   309: a4 = u8 [a0 + 0x1a]\n   312: a5 = u8 [a0 + 0x1b]\n   315: a1 = a1 << 0x8\n   318: a1 = a1 | a2\n   321: a4 = a4 << 0x10\n   324: a5 = a5 << 0x18\n   327: a4 = a4 | a5\n   330: a1 = a1 | a4\n   333: a2 = u8 [a0 + 0x1d]\n   336: a4 = u8 [a0 + 0x1c]\n   339: a5 = u8 [a0 + 0x1e]\n   342: a0 = u8 [a0 + 0x1f]\n   345: a2 = a2 << 0x8\n   348: a2 = a2 | a4\n   351: a5 = a5 << 0x10\n   354: a0 = a0 << 0x18\n   357: a0 = a0 | a5\n   360: a0 = a0 | a2\n   363: a0 = a0 << 0x20\n   366: a0 = a0 | a1\n   369: a0 = reverse a0\n   371: a1 = reverse a3\n   373: a2 = reverse t1\n   375: a3 = reverse t0\n   377: u64 [s0 + 0x18] = a3\n   380: u64 [s0 + 0x10] = a2\n   383: u64 [s0 + 0x8] = a1\n   386: u64 [s0] = a0\n   388: ra = u64 [sp + 0x8]\n   391: s0 = u64 [sp]\n   393: sp = sp + 0x10\n   396: ret\n      : @9 (gas: 12)\n   398: sp = sp + 0xffffffffffffffd8\n   401: u64 [sp + 0x20] = ra\n   404: u64 [sp + 0x18] = s0\n   407: u64 [sp + 0x10] = s1\n   410: a2 = u64 [a1]\n   412: u64 [sp + 0x8] = a2\n   415: a2 = u64 [a1 + 0x8]\n   418: u64 [sp] = a2\n   420: s0 = u64 [a1 + 0x10]\n   423: s1 = u64 [a1 + 0x18]\n   426: a1 = 0x20\n   429: ra = 4, jump @16\n      : @10 [@dyn 2] (gas: 71)\n   434: a1 = reverse s1\n   436: a2 = reverse s0\n   438: a3 = u64 [sp]\n   440: a3 = reverse a3\n   442: a4 = u64 [sp + 0x8]\n   445: a4 = reverse a4\n   447: u8 [a0 + 0x18] = a4\n   450: u8 [a0 + 0x10] = a3\n   453: u8 [a0 + 0x8] = a2\n   456: u8 [a0] = a1\n   458: a5 = a4 >> 0x38\n   461: u8 [a0 + 0x1f] = a5\n   464: a5 = a4 >> 0x30\n   467: u8 [a0 + 0x1e] = a5\n   470: a5 = a4 >> 0x28\n   473: u8 [a0 + 0x1d] = a5\n   476: a5 = a4 >> 0x20\n   479: u8 [a0 + 0x1c] = a5\n   482: a5 = a4 >> 0x18\n   485: u8 [a0 + 0x1b] = a5\n   488: a5 = a4 >> 0x10\n   491: u8 [a0 + 0x1a] = a5\n   494: a4 = a4 >> 0x8\n   497: u8 [a0 + 0x19] = a4\n   500: a4 = a3 >> 0x38\n   503: u8 [a0 + 0x17] = a4\n   506: a4 = a3 >> 0x30\n   509: u8 [a0 + 0x16] = a4\n   512: a4 = a3 >> 0x28\n   515: u8 [a0 + 0x15] = a4\n   518: a4 = a3 >> 0x20\n   521: u8 [a0 + 0x14] = a4\n   524: a4 = a3 >> 0x18\n   527: u8 [a0 + 0x13] = a4\n   530: a4 = a3 >> 0x10\n   533: u8 [a0 + 0x12] = a4\n   536: a3 = a3 >> 0x8\n   539: u8 [a0 + 0x11] = a3\n   542: a3 = a2 >> 0x38\n   545: u8 [a0 + 0xf] = a3\n   548: a3 = a2 >> 0x30\n   551: u8 [a0 + 0xe] = a3\n   554: a3 = a2 >> 0x28\n   557: u8 [a0 + 0xd] = a3\n   560: a3 = a2 >> 0x20\n   563: u8 [a0 + 0xc] = a3\n   566: a3 = a2 >> 0x18\n   569: u8 [a0 + 0xb] = a3\n   572: a3 = a2 >> 0x10\n   575: u8 [a0 + 0xa] = a3\n   578: a2 = a2 >> 0x8\n   581: u8 [a0 + 0x9] = a2\n   584: a2 = a1 >> 0x38\n   587: u8 [a0 + 0x7] = a2\n   590: a2 = a1 >> 0x30\n   593: u8 [a0 + 0x6] = a2\n   596: a2 = a1 >> 0x28\n   599: u8 [a0 + 0x5] = a2\n   602: a2 = a1 >> 0x20\n   605: u8 [a0 + 0x4] = a2\n   608: a2 = a1 >> 0x18\n   611: u8 [a0 + 0x3] = a2\n   614: a2 = a1 >> 0x10\n   617: u8 [a0 + 0x2] = a2\n   620: a1 = a1 >> 0x8\n   623: u8 [a0 + 0x1] = a1\n   626: ra = u64 [sp + 0x20]\n   629: s0 = u64 [sp + 0x18]\n   632: s1 = u64 [sp + 0x10]\n   635: sp = sp + 0x28\n   638: ret\n      : @11 (gas: 48)\n   640: sp = sp + 0xffffffffffffffa0\n   643: u64 [sp + 0x58] = ra\n   646: u64 [sp + 0x50] = s0\n   649: u64 [sp + 0x48] = s1\n   652: s0 = sp + 0x60\n   655: sp = sp & 0xffffffffffffffe0\n   658: s1 = a0\n   660: a0 = u64 [a1 + 0x18]\n   663: a2 = u64 [a1 + 0x10]\n   666: a3 = u64 [a1 + 0x8]\n   669: a1 = u64 [a1]\n   671: a0 = reverse a0\n   673: a2 = reverse a2\n   675: a3 = reverse a3\n   677: a1 = reverse a1\n   679: u64 [sp + 0x18] = a1\n   682: u64 [sp + 0x10] = a3\n   685: u64 [sp + 0x8] = a2\n   688: u64 [sp] = a0\n   690: u64 [sp + 56] = 0\n   693: u64 [sp + 48] = 0\n   696: u64 [sp + 40] = 0\n   699: u64 [sp + 32] = 0\n   702: u32 [sp + 64] = 0x20\n   706: i32 a1 = sp + 0\n   708: i32 a3 = sp + 0x20\n   711: i32 a4 = sp + 0x40\n   714: a2 = 0xffffffffffffffff\n   717: a0 = 0\n   719: ecalli 8 // 'get_storage'\n   721: a0 = u64 [sp + 0x38]\n   724: a1 = u64 [sp + 0x30]\n   727: a2 = u64 [sp + 0x28]\n   730: a3 = u64 [sp + 0x20]\n   733: a0 = reverse a0\n   735: a1 = reverse a1\n   737: a2 = reverse a2\n   739: a3 = reverse a3\n   741: u64 [s1 + 0x18] = a3\n   744: u64 [s1 + 0x10] = a2\n   747: u64 [s1 + 0x8] = a1\n   750: u64 [s1] = a0\n   752: sp = s0 + 0xffffffffffffffa0\n   755: ra = u64 [sp + 0x58]\n   758: s0 = u64 [sp + 0x50]\n   761: s1 = u64 [sp + 0x48]\n   764: sp = sp + 0x60\n   767: ret\n      : @12 (gas: 40)\n   769: sp = sp + 0xffffffffffffffa0\n   772: u64 [sp + 0x58] = ra\n   775: u64 [sp + 0x50] = s0\n   778: s0 = sp + 0x60\n   781: sp = sp & 0xffffffffffffffe0\n   784: t0 = u64 [a0]\n   786: a3 = u64 [a0 + 0x8]\n   789: a4 = u64 [a0 + 0x10]\n   792: a0 = u64 [a0 + 0x18]\n   795: t1 = u64 [a1]\n   797: a2 = u64 [a1 + 0x8]\n   800: a5 = u64 [a1 + 0x10]\n   803: a1 = u64 [a1 + 0x18]\n   806: t2 = reverse a0\n   808: a4 = reverse a4\n   810: a3 = reverse a3\n   812: a0 = reverse t0\n   814: t0 = reverse a1\n   816: a5 = reverse a5\n   818: a2 = reverse a2\n   820: a1 = reverse t1\n   822: u64 [sp + 0x18] = a0\n   825: u64 [sp + 0x10] = a3\n   828: u64 [sp + 0x8] = a4\n   831: u64 [sp] = t2\n   833: u64 [sp + 0x38] = a1\n   836: u64 [sp + 0x30] = a2\n   839: u64 [sp + 0x28] = a5\n   842: u64 [sp + 0x20] = t0\n   845: i32 a1 = sp + 0\n   847: i32 a3 = sp + 0x20\n   850: a2 = 0xffffffffffffffff\n   853: a4 = 0x20\n   856: a0 = 0\n   858: ecalli 15 // 'set_storage'\n   860: sp = s0 + 0xffffffffffffffa0\n   863: ra = u64 [sp + 0x58]\n   866: s0 = u64 [sp + 0x50]\n   869: sp = sp + 0x60\n   872: ret\n      : @13 (gas: 33)\n   874: sp = sp + 0xffffffffffffff20\n   878: u64 [sp + 0xd8] = ra\n   882: u64 [sp + 0xd0] = s0\n   886: u64 [sp + 0xc8] = s1\n   890: s0 = sp + 0xe0\n   894: sp = sp & 0xffffffffffffffe0\n   897: a5 = u64 [a4]\n   899: u64 [sp + 0x40] = a5\n   902: a5 = u64 [a4 + 0x8]\n   905: u64 [sp + 0x48] = a5\n   908: a5 = u64 [a4 + 0x10]\n   911: u64 [sp + 0x50] = a5\n   914: a4 = u64 [a4 + 0x18]\n   917: u64 [sp + 0x58] = a4\n   920: t0 = 0x6\n   923: a4 = u64 [a3]\n   925: u64 [sp + 0x18] = a4\n   928: a4 = u64 [a3 + 0x8]\n   931: u64 [sp + 0x20] = a4\n   934: a4 = u64 [a3 + 0x10]\n   937: u64 [sp + 0x28] = a4\n   940: a3 = u64 [a3 + 0x18]\n   943: u64 [sp + 0x30] = a3\n   946: s1 = u64 [a2]\n   948: a3 = u64 [a2 + 0x8]\n   951: u64 [sp] = a3\n   953: a3 = u64 [a2 + 0x10]\n   956: u64 [sp + 0x8] = a3\n   959: a2 = u64 [a2 + 0x18]\n   962: u64 [sp + 0x10] = a2\n   965: u64 [sp + 0x38] = a1\n   968: ra = 0x8\n   971: jump @16\n      : @14 [@dyn 3] (gas: 2)\n   974: u64 [sp + 0x38] = a1\n   977: ra = 8, jump @16\n      : @15 [@dyn 4] (gas: 46)\n   982: a1 = reverse s1\n   984: u64 [sp + 0x78] = a1\n   987: a1 = u64 [sp]\n   989: a1 = reverse a1\n   991: u64 [sp + 0x70] = a1\n   994: a1 = u64 [sp + 0x8]\n   997: a1 = reverse a1\n   999: u64 [sp + 0x68] = a1\n  1002: a1 = u64 [sp + 0x10]\n  1005: a1 = reverse a1\n  1007: u64 [sp + 0x60] = a1\n  1010: a1 = u64 [sp + 0x18]\n  1013: a1 = reverse a1\n  1015: u64 [sp + 0x98] = a1\n  1019: a1 = u64 [sp + 0x20]\n  1022: a1 = reverse a1\n  1024: u64 [sp + 0x90] = a1\n  1028: a1 = u64 [sp + 0x28]\n  1031: a1 = reverse a1\n  1033: u64 [sp + 0x88] = a1\n  1037: a1 = u64 [sp + 0x30]\n  1040: a1 = reverse a1\n  1042: u64 [sp + 0x80] = a1\n  1046: a1 = u64 [sp + 0x40]\n  1049: a1 = reverse a1\n  1051: u64 [sp + 0xb8] = a1\n  1055: a1 = u64 [sp + 0x48]\n  1058: a1 = reverse a1\n  1060: u64 [sp + 0xb0] = a1\n  1064: a1 = u64 [sp + 0x50]\n  1067: a1 = reverse a1\n  1069: u64 [sp + 0xa8] = a1\n  1073: a1 = u64 [sp + 0x58]\n  1076: a1 = reverse a1\n  1078: u64 [sp + 0xa0] = a1\n  1082: i32 a2 = a0 + 0\n  1084: a3 = i32 [sp + 0x38]\n  1087: i32 a0 = sp + 0x60\n  1090: a1 = 0x3\n  1093: ecalli 6 // 'deposit_event'\n  1095: sp = s0 + 0xffffffffffffff20\n  1099: ra = u64 [sp + 0xd8]\n  1103: s0 = u64 [sp + 0xd0]\n  1107: s1 = u64 [sp + 0xc8]\n  1111: sp = sp + 0xe0\n  1115: ret\n      : @16 (gas: 2)\n  1117: i32 a2 = a0 >> 0x10\n  1120: jump @21 if a2 != 0\n      : @17 (gas: 4)\n  1123: a1 = a1 + a0\n  1126: i32 a1 = a1 + 0x1f\n  1129: a1 = a1 & 0xffffffffffffffe0\n  1132: jump @21 if a1 >u 65536\n      : @18 (gas: 3)\n  1138: a2 = 0x200d0\n  1143: a3 = i32 [0x200d0]\n  1148: jump @20 if a3 >=u a1\n      : @19 (gas: 2)\n  1151: u32 [0x200d0] = a1\n  1156: fallthrough\n      : @20 (gas: 4)\n  1157: a1 = 0x200e0\n  1162: i32 a0 = a0 + 0\n  1164: a0 = a0 + a1\n  1167: ret\n      : @21 (gas: 1)\n  1169: trap\n      : @22 (gas: 6)\n  1170: sp = sp + 0xfffffffffffffff0\n  1173: u64 [sp + 0x8] = ra\n  1176: u64 [sp] = s0\n  1178: s0 = a0 & 0x1\n  1181: ecalli 3 // 'call_data_size'\n  1183: fallthrough\n      : @23 (gas: 2)\n  1184: u32 [0x200cc] = a0\n  1189: jump @25 if s0 == 0\n      : @24 (gas: 1)\n  1192: ra = 10, jump @26\n      : @25 [@dyn 5] (gas: 21)\n  1196: ra = 0xc\n  1199: sp = sp + 0xfffffffffffff808\n  1203: a0 = sp + 0x700\n  1207: u64 [a0 + 0xf0] = ra\n  1211: u64 [a0 + 0xe8] = s0\n  1215: u64 [a0 + 0xe0] = s1\n  1219: s0 = sp + 0x7f8\n  1223: sp = sp + 0xfffffffffffff800\n  1227: sp = sp + 0xfffffffffffff8f8\n  1231: sp = sp & 0xffffffffffffffe0\n  1234: s1 = sp\n  1236: a2 = s1 + 0x7ff\n  1240: a2 = a2 + 0xf9\n  1244: u64 [a2 + 1824] = 0\n  1248: u64 [a2 + 1816] = 0\n  1252: u64 [a2 + 1800] = 0x80\n  1258: a0 = 0x40\n  1261: a1 = s1 + 0x1000\n  1265: u64 [a2 + 1808] = 0\n  1269: ra = 0x3c\n  1272: jump @9\n      : @26 [@dyn 6] (gas: 15)\n  1275: sp = sp + 0xfffffffffffffbc0\n  1279: a0 = sp + 0x400\n  1283: u64 [a0 + 0x38] = ra\n  1286: u64 [a0 + 0x30] = s0\n  1289: u64 [a0 + 0x28] = s1\n  1292: s0 = sp + 0x440\n  1296: sp = sp & 0xffffffffffffffe0\n  1299: a0 = sp + 0x300\n  1303: u64 [a0 + 56] = 0\n  1306: u64 [a0 + 48] = 0\n  1309: u64 [a0 + 40] = 0\n  1312: u64 [a0 + 32] = 0\n  1315: i32 a0 = sp + 0x320\n  1319: ecalli 16 // 'value_transferred'\n  1321: fallthrough\n      : @27 (gas: 9)\n  1322: a4 = sp + 0x300\n  1326: a0 = u64 [a4 + 0x30]\n  1329: a1 = u64 [a4 + 0x38]\n  1332: a2 = u64 [a4 + 0x28]\n  1335: a3 = u64 [a4 + 0x20]\n  1338: a1 = a1 | a2\n  1341: a0 = a0 | a3\n  1344: a0 = a0 | a1\n  1347: jump @59 if a0 != 0\n      : @28 (gas: 16)\n  1351: s1 = i32 [0x200cc]\n  1356: a0 = s1 << 0x20\n  1359: a0 = a0 >> 0x20\n  1362: a0 = a0 + 0x1f\n  1365: a0 = a0 & 0xffffffffffffffe0\n  1368: a1 = a0 + 0xa0\n  1372: a0 = a1 <u a0\n  1375: a2 = sp + 0x300\n  1379: u64 [a2] = a1\n  1381: u64 [a2 + 0x8] = a0\n  1384: a0 = 0 if a0 != 0\n  1386: u64 [a2 + 0x10] = a0\n  1389: a0 = 0x40\n  1392: a1 = sp + 0x300\n  1396: u64 [a2 + 24] = 0\n  1399: ra = 14, jump @9\n      : @29 [@dyn 7] (gas: 3)\n  1404: a0 = 0xa0\n  1408: a1 = s1\n  1410: ra = 16, jump @16\n      : @30 [@dyn 8] (gas: 5)\n  1415: i32 a0 = a0 + 0\n  1417: a1 = s1\n  1419: a2 = 0\n  1421: ecalli 1 // 'call_data_copy'\n  1423: fallthrough\n      : @31 (gas: 1)\n  1424: jump @60 if s1 <=u 95\n      : @32 (gas: 8)\n  1429: a2 = sp + 0x200\n  1433: u64 [a2 + 216] = 0\n  1437: u64 [a2 + 208] = 0\n  1441: u64 [a2 + 192] = 0xa0\n  1447: a0 = sp + 0x2e0\n  1451: a1 = sp + 0x2c0\n  1455: u64 [a2 + 200] = 0\n  1459: ra = 18, jump @513\n      : @33 [@dyn 9] (gas: 16)\n  1464: a2 = sp + 0x200\n  1468: a0 = u64 [a2 + 0xf8]\n  1472: u64 [sp + 0x48] = a0\n  1475: a0 = u64 [a2 + 0xf0]\n  1479: u64 [sp + 0x80] = a0\n  1483: a0 = u64 [a2 + 0xe8]\n  1487: u64 [sp + 0x78] = a0\n  1490: a0 = u64 [a2 + 0xe0]\n  1494: u64 [sp + 0x70] = a0\n  1497: u64 [a2 + 152] = 0\n  1501: u64 [a2 + 144] = 0\n  1505: u64 [a2 + 128] = 0xc0\n  1511: a0 = sp + 0x2a0\n  1515: a1 = sp + 0x280\n  1519: u64 [a2 + 136] = 0\n  1523: ra = 20, jump @513\n      : @34 [@dyn 10] (gas: 10)\n  1528: a1 = sp + 0x200\n  1532: a0 = u64 [a1 + 0xb0]\n  1536: u64 [sp + 0x40] = a0\n  1539: a0 = u64 [a1 + 0xa8]\n  1543: u64 [sp + 0x38] = a0\n  1546: a0 = u64 [a1 + 0xa0]\n  1550: u64 [sp + 0x30] = a0\n  1553: a0 = sp + 0x260\n  1557: a1 = 0xe0\n  1561: ra = 22, jump @7\n      : @35 [@dyn 11] (gas: 10)\n  1566: a3 = sp + 0x200\n  1570: a0 = u64 [a3 + 0x78]\n  1573: a1 = u64 [a3 + 0x70]\n  1576: a2 = u64 [a3 + 0x68]\n  1579: a0 = a0 | a1\n  1582: u64 [sp + 0x28] = a2\n  1585: a1 = a2 >> 0x20\n  1588: a1 = a1 <u 0x1\n  1591: a1 = 0 if a0 != 0\n  1593: jump @61 if a1 == 0\n      : @36 (gas: 7)\n  1597: a0 = u64 [sp + 0x260]\n  1601: u64 [sp + 0x20] = a0\n  1604: s1 = 0x300e0\n  1609: i32 a0 = s1 + 0\n  1611: u64 [sp + 0x98] = a0\n  1615: ecalli 4 // 'caller'\n  1617: fallthrough\n      : @37 (gas: 6)\n  1618: a0 = u32 [0x300f0]\n  1623: a1 = u64 [0x300e0]\n  1628: a2 = u64 [0x300e8]\n  1633: a0 = a0 | a1\n  1636: a0 = a0 | a2\n  1639: jump @62 if a0 == 0\n      : @38 (gas: 8)\n  1643: a0 = sp + 0x300\n  1647: u64 [a0 + 88] = 0\n  1650: u64 [a0 + 80] = 0\n  1653: u64 [a0 + 72] = 0\n  1656: u64 [a0 + 64] = 0\n  1659: a0 = sp + 0x240\n  1663: a1 = sp + 0x340\n  1667: ra = 24, jump @11\n      : @39 [@dyn 12] (gas: 41)\n  1672: a1 = sp + 0x200\n  1676: a0 = u64 [a1 + 0x40]\n  1679: u64 [sp + 0x68] = a0\n  1682: a0 = u64 [a1 + 0x48]\n  1685: u64 [sp + 0x60] = a0\n  1688: a0 = u64 [a1 + 0x58]\n  1691: u64 [sp + 0x88] = a0\n  1695: a0 = u64 [a1 + 0x50]\n  1698: u64 [sp + 0x90] = a0\n  1702: a0 = u64 [sp + 0x98]\n  1706: ecalli 4 // 'caller'\n  1708: a0 = u64 [s1 + 0x8]\n  1711: a1 = i32 [s1 + 0x10]\n  1714: a2 = u64 [s1]\n  1716: a0 = reverse a0\n  1718: a3 = a0 << 0x20\n  1721: a1 = reverse a1\n  1723: a1 = a1 >> 0x20\n  1726: a1 = a1 | a3\n  1729: a0 = a0 >> 0x20\n  1732: a2 = reverse a2\n  1734: a3 = a2 << 0x20\n  1737: a0 = a0 | a3\n  1740: a2 = a2 >> 0x20\n  1743: a3 = u64 [sp + 0x90]\n  1747: a3 = a3 >> 0x20\n  1750: a3 = a3 << 0x20\n  1753: a2 = a2 | a3\n  1756: a4 = sp + 0x300\n  1760: u64 [a4 + 120] = 0\n  1763: u64 [a4 + 112] = 0\n  1766: u64 [a4 + 104] = 0\n  1769: u64 [a4 + 96] = 0\n  1772: a3 = u64 [sp + 0x88]\n  1776: u64 [a4 + 0x98] = a3\n  1780: u64 [a4 + 0x90] = a2\n  1784: u64 [a4 + 0x88] = a0\n  1788: u64 [a4 + 0x80] = a1\n  1792: a0 = sp + 0x360\n  1796: a1 = sp + 0x380\n  1800: ra = 26, jump @12\n      : @40 [@dyn 13] (gas: 3)\n  1805: a0 = sp + 0x220\n  1809: a1 = 0x40\n  1812: ra = 28, jump @7\n      : @41 [@dyn 14] (gas: 52)\n  1817: a1 = sp + 0x200\n  1821: a0 = u64 [a1 + 0x38]\n  1824: u64 [sp + 0x18] = a0\n  1827: a0 = u64 [a1 + 0x30]\n  1830: u64 [sp + 0x50] = a0\n  1833: a0 = u64 [a1 + 0x28]\n  1836: u64 [sp + 0x58] = a0\n  1839: a0 = u64 [a1 + 0x20]\n  1842: u64 [sp + 0x88] = a0\n  1846: a0 = u64 [sp + 0x98]\n  1850: ecalli 4 // 'caller'\n  1852: a0 = u64 [s1 + 0x8]\n  1855: a1 = i32 [s1 + 0x10]\n  1858: a2 = u64 [s1]\n  1860: a3 = reverse a0\n  1862: a0 = a3 << 0x20\n  1865: a1 = reverse a1\n  1867: a1 = a1 >> 0x20\n  1870: a0 = a0 | a1\n  1873: a3 = a3 >> 0x20\n  1876: a2 = reverse a2\n  1878: a1 = a2 << 0x20\n  1881: a1 = a1 | a3\n  1884: a2 = a2 >> 0x20\n  1887: a3 = u64 [sp + 0x90]\n  1891: a3 = a3 << 0x20\n  1894: a3 = a3 >> 0x20\n  1897: u64 [sp + 472] = 0\n  1901: u64 [sp + 504] = 0\n  1905: u64 [sp + 0x1f0] = a3\n  1909: a3 = u64 [sp + 0x60]\n  1912: u64 [sp + 0x1e8] = a3\n  1916: a3 = u64 [sp + 0x68]\n  1919: u64 [sp + 0x1e0] = a3\n  1923: a3 = u64 [0x20000]\n  1928: a4 = u64 [0x20008]\n  1933: a5 = u64 [0x20010]\n  1938: s1 = u64 [0x20018]\n  1943: u64 [sp + 0x218] = a3\n  1947: a3 = sp + 0x200\n  1951: u64 [a3 + 0x10] = a4\n  1954: u64 [a3 + 0x8] = a5\n  1957: u64 [a3] = s1\n  1959: u64 [sp + 0x1d0] = a2\n  1963: u64 [sp + 0x1c8] = a1\n  1967: a2 = sp + 0x200\n  1971: a3 = sp + 0x1e0\n  1975: a4 = sp + 0x1c0\n  1979: u64 [sp + 0x1c0] = a0\n  1983: a0 = 0\n  1985: a1 = 0\n  1987: ra = 30, jump @13\n      : @42 [@dyn 15] (gas: 12)\n  1992: a1 = sp + 0x300\n  1996: u64 [a1 + 184] = 0\n  2000: u64 [a1 + 176] = 0\n  2004: u64 [a1 + 168] = 0\n  2008: u64 [a1 + 160] = 0x1\n  2013: u64 [a1 + 216] = 0\n  2017: u64 [a1 + 208] = 0\n  2021: u64 [a1 + 200] = 0\n  2025: u64 [a1 + 192] = 0x1\n  2030: a0 = sp + 0x3a0\n  2034: a1 = sp + 0x3c0\n  2038: ra = 32, jump @12\n      : @43 [@dyn 16] (gas: 8)\n  2043: a2 = u64 [sp + 0x80]\n  2047: a0 = a2 << 0x20\n  2050: a0 = a0 >> 0x20\n  2053: a3 = u64 [sp + 0x78]\n  2056: a4 = u64 [sp + 0x70]\n  2059: a1 = a4 | a3\n  2062: a0 = a0 | a1\n  2065: jump @54 if a0 != 0\n      : @44 (gas: 12)\n  2069: a0 = u64 [sp + 0x88]\n  2073: a2 = u64 [sp + 0x50]\n  2076: a0 = a0 | a2\n  2079: a1 = u64 [sp + 0x58]\n  2082: s1 = u64 [sp + 0x18]\n  2085: a1 = a1 | s1\n  2088: a0 = a0 | a1\n  2091: a0 = a0 >> 0x20\n  2094: a1 = a1 | a2\n  2097: a1 = a1 << 0x20\n  2100: a0 = a0 | a1\n  2103: jump @58 if a0 != 0\n      : @45 (gas: 8)\n  2107: u64 [sp + 336] = 0\n  2111: u64 [sp + 328] = 0\n  2115: u64 [sp + 320] = 0\n  2119: a0 = 0x8c379a000000000\n  2129: a1 = sp + 0x140\n  2133: u64 [sp + 0x158] = a0\n  2137: a0 = u64 [sp + 0x88]\n  2141: ra = 34, jump @9\n      : @46 [@dyn 17] (gas: 10)\n  2146: a0 = u64 [sp + 0x50]\n  2149: a2 = a0 | s1\n  2152: s1 = 0x100000000\n  2162: a0 = 0xfffffffc\n  2172: a1 = u64 [sp + 0x88]\n  2176: a0 = a1 <u a0\n  2179: a1 = u64 [sp + 0x58]\n  2182: a0 = 0 if a1 != 0\n  2184: a0 = 0 if a2 != 0\n  2186: jump @58 if a0 == 0\n      : @47 (gas: 9)\n  2190: a0 = u64 [sp + 0x88]\n  2194: i32 a0 = a0 + 0x4\n  2197: u64 [sp + 312] = 0\n  2201: u64 [sp + 304] = 0\n  2205: u64 [sp + 288] = 0x20\n  2210: a1 = sp + 0x120\n  2214: u64 [sp + 296] = 0\n  2218: u64 [sp + 0x98] = a2\n  2222: ra = 36, jump @9\n      : @48 [@dyn 18] (gas: 8)\n  2227: a2 = u64 [sp + 0x98]\n  2231: a0 = s1 + 0xffffffffffffffdc\n  2234: a1 = u64 [sp + 0x88]\n  2238: a0 = a1 <u a0\n  2241: a1 = u64 [sp + 0x58]\n  2244: a0 = 0 if a1 != 0\n  2246: a0 = 0 if a2 != 0\n  2248: jump @58 if a0 == 0\n      : @49 (gas: 8)\n  2252: s1 = u64 [sp + 0x88]\n  2256: i32 a0 = s1 + 0x24\n  2259: u64 [sp + 280] = 0\n  2263: u64 [sp + 272] = 0\n  2267: u64 [sp + 256] = 0x5\n  2272: a1 = sp + 0x100\n  2276: u64 [sp + 264] = 0\n  2280: ra = 38, jump @9\n      : @50 [@dyn 19] (gas: 7)\n  2285: a0 = 0xffffffbc\n  2295: a0 = s1 <u a0\n  2298: a1 = u64 [sp + 0x58]\n  2301: a0 = 0 if a1 != 0\n  2303: a1 = u64 [sp + 0x98]\n  2307: a0 = 0 if a1 != 0\n  2309: jump @58 if a0 == 0\n      : @51 (gas: 9)\n  2313: s1 = u64 [sp + 0x88]\n  2317: i32 a0 = s1 + 0x44\n  2320: u64 [sp + 240] = 0\n  2324: u64 [sp + 232] = 0\n  2328: a1 = 0x6e66743d30000000\n  2338: u64 [sp + 0xf8] = a1\n  2342: a1 = sp + 0xe0\n  2346: u64 [sp + 224] = 0\n  2350: ra = 40, jump @9\n      : @52 [@dyn 20] (gas: 3)\n  2355: a1 = 0x64\n  2358: a0 = s1\n  2360: ra = 42, jump @16\n      : @53 [@dyn 21] (gas: 5)\n  2365: i32 a1 = a0 + 0\n  2367: a0 = 0x1\n  2370: a2 = 0x64\n  2373: ecalli 13 // 'seal_return'\n  2375: fallthrough\n      : @54 (gas: 11)\n  2376: s1 = 0xffffffffffffffff\n  2379: a0 = 0xffffffff\n  2389: u64 [sp + 0x98] = a0\n  2393: u64 [sp + 0x1a0] = a4\n  2397: u64 [sp + 0x1a8] = a3\n  2401: u64 [sp + 0x1b0] = a2\n  2405: a0 = 0x80\n  2409: a1 = sp + 0x1a0\n  2413: a2 = u64 [sp + 0x48]\n  2416: u64 [sp + 0x1b8] = a2\n  2420: ra = 44, jump @9\n      : @55 [@dyn 22] (gas: 27)\n  2425: a2 = u64 [sp + 0x20]\n  2428: a0 = a2 >> 0x20\n  2431: a1 = u64 [sp + 0x28]\n  2434: a1 = a1 << 0x20\n  2437: a0 = a0 | a1\n  2440: a1 = a2 << 0x20\n  2443: a2 = u64 [sp + 0x30]\n  2446: a2 = a2 & s1\n  2449: a3 = u64 [sp + 0x38]\n  2452: a3 = a3 & s1\n  2455: a4 = u64 [sp + 0x40]\n  2458: a5 = u64 [sp + 0x98]\n  2462: a4 = a4 & a5\n  2465: a1 = a1 | a4\n  2468: a5 = sp + 0x300\n  2472: u64 [a5 + 248] = 0\n  2476: u64 [a5 + 240] = 0\n  2480: u64 [a5 + 232] = 0\n  2484: u64 [a5 + 224] = 0x2\n  2489: a4 = sp + 0x400\n  2493: u64 [a4 + 0x18] = a0\n  2496: u64 [a4 + 0x10] = a1\n  2499: u64 [a4 + 0x8] = a3\n  2502: u64 [a4] = a2\n  2504: a0 = sp + 0x3e0\n  2508: a1 = sp + 0x400\n  2512: ra = 46, jump @12\n      : @56 [@dyn 23] (gas: 3)\n  2517: a0 = sp + 0x180\n  2521: a1 = 0x40\n  2524: ra = 48, jump @7\n      : @57 [@dyn 24] (gas: 12)\n  2529: a0 = u64 [sp + 0x198]\n  2533: a1 = u64 [sp + 0x190]\n  2537: a2 = u64 [sp + 0x188]\n  2541: s1 = u64 [sp + 0x180]\n  2545: a0 = a0 | a2\n  2548: a2 = s1 | a1\n  2551: a2 = a2 | a0\n  2554: a2 = a2 >> 0x20\n  2557: a0 = a0 | a1\n  2560: a0 = a0 << 0x20\n  2563: a0 = a0 | a2\n  2566: jump @67 if a0 == 0\n      : @58 (gas: 1)\n  2570: trap\n      : @59 (gas: 6)\n  2571: a1 = 0x200e0\n  2576: i32 a1 = a1 + 0\n  2578: a0 = 0x1\n  2581: a2 = 0\n  2583: ecalli 13 // 'seal_return'\n  2585: jump @62\n      : @60 (gas: 6)\n  2587: a1 = 0x200e0\n  2592: i32 a1 = a1 + 0\n  2594: a0 = 0x1\n  2597: a2 = 0\n  2599: ecalli 13 // 'seal_return'\n  2601: jump @62\n      : @61 (gas: 6)\n  2603: a1 = 0x200e0\n  2608: i32 a1 = a1 + 0\n  2610: a0 = 0x1\n  2613: a2 = 0\n  2615: ecalli 13 // 'seal_return'\n  2617: fallthrough\n      : @62 (gas: 8)\n  2618: u64 [sp + 208] = 0\n  2622: u64 [sp + 200] = 0\n  2626: u64 [sp + 192] = 0\n  2630: a0 = 0x1e4fbdf700000000\n  2640: a1 = sp + 0xc0\n  2644: u64 [sp + 0xd8] = a0\n  2648: a0 = 0\n  2650: ra = 50, jump @9\n      : @63 [@dyn 25] (gas: 7)\n  2655: u64 [sp + 184] = 0\n  2659: u64 [sp + 176] = 0\n  2663: u64 [sp + 168] = 0\n  2667: a0 = 0x4\n  2670: a1 = sp + 0xa0\n  2674: u64 [sp + 160] = 0\n  2678: ra = 52, jump @9\n      : @64 [@dyn 26] (gas: 2)\n  2683: a1 = i32 [0x200d0]\n  2688: jump @66 if a1 >u 63\n      : @65 (gas: 2)\n  2692: u32 [0x200d0] = 0x40\n  2698: fallthrough\n      : @66 (gas: 6)\n  2699: a1 = 0x200e0\n  2704: i32 a1 = a1 + 0\n  2706: a0 = 0x1\n  2709: a2 = 0x24\n  2712: ecalli 13 // 'seal_return'\n  2714: fallthrough\n      : @67 (gas: 3)\n  2715: a0 = s1\n  2717: a1 = 0\n  2719: ra = 54, jump @16\n      : @68 [@dyn 27] (gas: 7)\n  2724: i32 a0 = a0 + 0\n  2726: a1 = 0\n  2728: a2 = 0\n  2730: ecalli 1 // 'call_data_copy'\n  2732: a0 = sp + 0x160\n  2736: a1 = 0x80\n  2740: ra = 56, jump @7\n      : @69 [@dyn 28] (gas: 9)\n  2745: a0 = u64 [sp + 0x178]\n  2749: a2 = u64 [sp + 0x170]\n  2753: a3 = u64 [sp + 0x168]\n  2757: a4 = u64 [sp + 0x160]\n  2761: u64 [0x30118] = a0\n  2766: u64 [0x30110] = a2\n  2771: u64 [0x30108] = a3\n  2776: u64 [0x30100] = a4\n  2781: jump @5\n      : @70 (gas: 3)\n  2784: a0 = s1\n  2786: a1 = 0\n  2788: ra = 58, jump @16\n      : @71 [@dyn 29] (gas: 5)\n  2793: i32 a1 = a0 + 0\n  2795: a0 = 0\n  2797: a2 = 0\n  2799: ecalli 13 // 'seal_return'\n  2801: jump @62\n      : @72 [@dyn 30] (gas: 4)\n  2804: a0 = 0x200cc\n  2809: u64 [s1 + 0x178] = a0\n  2813: a0 = i32 [0x200cc]\n  2818: jump @74 if a0 >=u 4\n      : @73 (gas: 1)\n  2822: jump @470\n      : @74 (gas: 14)\n  2825: a0 = sp + 0xffffffffffffffe0\n  2828: a0 = a0 & 0xffffffffffffffe0\n  2831: sp = a0\n  2833: u64 [a0 + 24] = 0\n  2836: u64 [a0 + 16] = 0\n  2839: u64 [a0 + 8] = 0\n  2842: u64 [s1 + 0xe8] = a0\n  2846: u64 [a0 + 0] = 0\n  2848: a0 = s1 + 0x1000\n  2852: i32 a0 = a0 + 0x20\n  2855: a1 = 0\n  2857: ra = 0x3e\n  2860: ecalli 2 // 'call_data_load'\n  2862: fallthrough\n      : @75 [@dyn 31] (gas: 4)\n  2863: a3 = s1 + 0x7ff\n  2867: a3 = a3 + 0xf9\n  2871: a0 = i32 [a3 + 0x744]\n  2875: jump @177 if a0 == 2376452955\n      : @76 (gas: 1)\n  2883: jump @145 if a0 == 3647605066\n      : @77 (gas: 1)\n  2891: jump @91 if a0 == 3732202875\n      : @78 (gas: 2)\n  2899: a2 = s1 + 0x10f8\n  2903: jump @119 if a0 == 615110739\n      : @79 (gas: 1)\n  2911: jump @109 if a0 == 1183860800\n      : @80 (gas: 1)\n  2919: jump @129 if a0 != 1204603394\n      : @81 (gas: 8)\n  2927: u64 [a2 + 96] = 0\n  2930: u64 [a2 + 88] = 0\n  2933: u64 [a2 + 80] = 0\n  2936: u64 [a2 + 72] = 0\n  2939: a0 = s1 + 0x1000\n  2943: i32 a0 = a0 + 0x140\n  2947: ecalli 16 // 'value_transferred'\n  2949: fallthrough\n      : @82 (gas: 9)\n  2950: a3 = s1 + 0x10f8\n  2954: a0 = u64 [a3 + 0x58]\n  2957: a1 = u64 [a3 + 0x60]\n  2960: a2 = u64 [a3 + 0x50]\n  2963: a3 = u64 [a3 + 0x48]\n  2966: a1 = a1 | a2\n  2969: a0 = a0 | a3\n  2972: a0 = a0 | a1\n  2975: jump @84 if a0 == 0\n      : @83 (gas: 1)\n  2978: jump @435\n      : @84 (gas: 3)\n  2981: a0 = u64 [s1 + 0x178]\n  2985: a0 = i32 [a0]\n  2987: jump @86 if a0 >u 3\n      : @85 (gas: 1)\n  2991: jump @436\n      : @86 (gas: 3)\n  2994: a0 = s1 + 0x280\n  2998: a1 = 0x40\n  3001: ra = 64, jump @7\n      : @87 [@dyn 32] (gas: 10)\n  3006: a1 = s1 + 0x200\n  3010: a0 = u64 [a1 + 0x98]\n  3014: u64 [s1 + 0x178] = a0\n  3018: a0 = u64 [a1 + 0x90]\n  3022: u64 [s1 + 0x170] = a0\n  3026: a0 = u64 [a1 + 0x88]\n  3030: u64 [s1 + 0x160] = a0\n  3034: a0 = u64 [a1 + 0x80]\n  3038: u64 [s1 + 0x168] = a0\n  3042: ra = 66, jump @0\n      : @88 [@dyn 33] (gas: 14)\n  3047: a4 = s1 + 0x100\n  3051: a0 = u64 [a4 + 0x78]\n  3054: a1 = u64 [a4 + 0x60]\n  3057: a0 = a0 | a1\n  3060: a1 = u64 [a4 + 0x68]\n  3063: a3 = a1\n  3065: a2 = u64 [a4 + 0x70]\n  3068: a1 = a1 | a2\n  3071: a1 = a1 | a0\n  3074: a1 = a1 >> 0x20\n  3077: a0 = a0 | a2\n  3080: a0 = a0 << 0x20\n  3083: a0 = a0 | a1\n  3086: jump @187 if a0 != 0\n      : @89 (gas: 11)\n  3090: a2 = u64 [0x30100]\n  3095: a1 = u64 [0x30108]\n  3100: a0 = u32 [0x30110]\n  3105: u64 [s1 + 632] = 0\n  3109: a4 = s1 + 0x200\n  3113: u64 [a4 + 0x70] = a0\n  3116: u64 [a4 + 0x68] = a1\n  3119: a1 = s1 + 0x260\n  3123: u64 [a4 + 0x60] = a2\n  3126: a0 = a3\n  3128: ra = 68, jump @9\n      : @90 [@dyn 34] (gas: 4)\n  3133: a1 = 0x20\n  3136: a0 = u64 [s1 + 0x168]\n  3140: ra = 0x1b4\n  3144: jump @16\n      : @91 (gas: 11)\n  3147: a0 = s1 + 0x10f8\n  3151: u64 [a0 + 1376] = 0\n  3155: u64 [a0 + 1368] = 0\n  3159: u64 [a0 + 1360] = 0\n  3163: u64 [a0 + 1352] = 0\n  3167: a0 = s1 + 0x1000\n  3171: i32 a0 = a0 + 0x640\n  3175: ra = 0x46\n  3178: ecalli 16 // 'value_transferred'\n  3180: t0 = 0x48\n  3183: jump @665\n      : @92 [@dyn 35] (gas: 1)\n  3186: t0 = 72, jump @665\n      : @93 [@dyn 36] (gas: 8)\n  3191: a0 = u64 [a4 + 0x58]\n  3194: a1 = u64 [a4 + 0x60]\n  3197: a2 = u64 [a4 + 0x50]\n  3200: a3 = u64 [a4 + 0x48]\n  3203: a1 = a1 | a2\n  3206: a0 = a0 | a3\n  3209: a0 = a0 | a1\n  3212: jump @95 if a0 == 0\n      : @94 (gas: 1)\n  3215: jump @446\n      : @95 (gas: 3)\n  3218: a0 = u64 [s1 + 0x178]\n  3222: a0 = i32 [a0]\n  3224: jump @97 if a0 >u 35\n      : @96 (gas: 1)\n  3228: jump @446\n      : @97 (gas: 7)\n  3231: a0 = s1 + 0x1000\n  3235: i32 a0 = a0 + 0x660\n  3239: a1 = 0x4\n  3242: ra = 0x4a\n  3245: ecalli 2 // 'call_data_load'\n  3247: t0 = 0x4c\n  3250: jump @665\n      : @98 [@dyn 37] (gas: 1)\n  3253: t0 = 76, jump @665\n      : @99 [@dyn 38] (gas: 15)\n  3258: a0 = u64 [a4 + 0x68]\n  3261: a1 = u64 [a4 + 0x70]\n  3264: a2 = u64 [a4 + 0x78]\n  3267: a3 = u64 [a4 + 0x80]\n  3271: a4 = s1 + 0x7ff\n  3275: a4 = a4 + 0xf9\n  3279: a5 = a4 + 0x600\n  3283: u64 [a5 + 0x20] = a3\n  3286: u64 [a5 + 0x18] = a2\n  3289: u64 [a5 + 0x10] = a1\n  3292: a1 = s1 + 0x7ff\n  3296: a1 = a1 + 0x701\n  3300: u64 [a5 + 0x8] = a0\n  3303: a0 = 0\n  3305: ra = 78, jump @9\n      : @100 [@dyn 39] (gas: 10)\n  3310: a2 = s1 + 0x7ff\n  3314: a2 = a2 + 0xf9\n  3318: u64 [a2 + 1536] = 0\n  3322: u64 [a2 + 1528] = 0\n  3326: u64 [a2 + 1512] = 0x3\n  3331: a0 = 0x20\n  3334: a1 = s1 + 0x7ff\n  3338: a1 = a1 + 0x6e1\n  3342: u64 [a2 + 1520] = 0\n  3346: ra = 80, jump @9\n      : @101 [@dyn 40] (gas: 3)\n  3351: a1 = 0x40\n  3354: a0 = 0\n  3356: ra = 82, jump @16\n      : @102 [@dyn 41] (gas: 1)\n  3361: t0 = 84, jump @664\n      : @103 [@dyn 42] (gas: 4)\n  3366: ra = 0x56\n  3369: ecalli 9 // 'hash_keccak_256'\n  3371: t0 = 0x58\n  3374: jump @652\n      : @104 [@dyn 43] (gas: 1)\n  3377: t0 = 88, jump @652\n      : @105 [@dyn 44] (gas: 9)\n  3382: a5 = a4 + 0x500\n  3386: u64 [a5 + 0xa0] = a3\n  3390: u64 [a5 + 0x98] = a2\n  3394: u64 [a5 + 0x90] = a1\n  3398: u64 [a5 + 0x88] = a0\n  3402: a0 = s1 + 0x7ff\n  3406: a0 = a0 + 0x6c1\n  3410: a1 = s1 + 0x1680\n  3414: ra = 90, jump @11\n      : @106 [@dyn 45] (gas: 14)\n  3419: a0 = s1 + 0x7ff\n  3423: a0 = a0 + 0xf9\n  3427: a2 = a0 + 0x500\n  3431: a1 = u64 [a2 + 0xd8]\n  3435: a0 = s1 + 0x100\n  3439: u64 [a0 + 0x68] = a1\n  3442: a1 = u64 [a2 + 0xd0]\n  3446: u64 [a0 + 0x78] = a1\n  3449: a1 = u64 [a2 + 0xc8]\n  3453: u64 [a0 + 0x70] = a1\n  3456: a0 = s1 + 0x7ff\n  3460: a0 = a0 + 0x6a1\n  3464: a1 = 0x40\n  3467: ra = 92, jump @7\n      : @107 [@dyn 46] (gas: 15)\n  3472: a3 = s1 + 0x7ff\n  3476: a3 = a3 + 0xf9\n  3480: a5 = a3 + 0x500\n  3484: a4 = u64 [a5 + 0xc0]\n  3488: a1 = u64 [a5 + 0xb8]\n  3492: a2 = u64 [a5 + 0xb0]\n  3496: a0 = u64 [a5 + 0xa8]\n  3500: a4 = a4 | a2\n  3503: a2 = a0 | a1\n  3506: a2 = a2 | a4\n  3509: a2 = a2 >> 0x20\n  3512: a1 = a1 | a4\n  3515: a1 = a1 << 0x20\n  3518: a1 = a1 | a2\n  3521: jump @187 if a1 != 0\n      : @108 (gas: 16)\n  3525: a4 = s1 + 0x100\n  3529: a1 = u64 [a4 + 0x68]\n  3532: a1 = a1 << 0x20\n  3535: a2 = a1 >> 0x20\n  3538: u64 [a3 + 1440] = 0\n  3542: a1 = u64 [a4 + 0x70]\n  3545: a5 = a3 + 0x500\n  3549: u64 [a5 + 0x88] = a1\n  3553: a1 = u64 [a4 + 0x78]\n  3556: u64 [a5 + 0x90] = a1\n  3560: a1 = s1 + 0x7ff\n  3564: a1 = a1 + 0x681\n  3568: u64 [a5 + 0x98] = a2\n  3572: u64 [s1 + 0x178] = a0\n  3576: ra = 0x1b2\n  3580: jump @9\n      : @109 (gas: 8)\n  3583: u64 [a2 + 32] = 0\n  3586: u64 [a2 + 24] = 0\n  3589: u64 [a2 + 16] = 0\n  3592: u64 [a2 + 8] = 0\n  3595: a0 = s1 + 0x1000\n  3599: i32 a0 = a0 + 0x100\n  3603: ecalli 16 // 'value_transferred'\n  3605: fallthrough\n      : @110 (gas: 9)\n  3606: a4 = s1 + 0x10f8\n  3610: a0 = u64 [a4 + 0x18]\n  3613: a1 = u64 [a4 + 0x20]\n  3616: a2 = u64 [a4 + 0x10]\n  3619: a3 = u64 [a4 + 0x8]\n  3622: a1 = a1 | a2\n  3625: a0 = a0 | a3\n  3628: a0 = a0 | a1\n  3631: jump @112 if a0 == 0\n      : @111 (gas: 1)\n  3634: jump @437\n      : @112 (gas: 3)\n  3637: a0 = u64 [s1 + 0x178]\n  3641: a0 = i32 [a0]\n  3643: jump @114 if a0 >u 3\n      : @113 (gas: 1)\n  3647: jump @438\n      : @114 (gas: 7)\n  3650: u64 [a4 + 64] = 0\n  3653: u64 [a4 + 56] = 0\n  3656: u64 [a4 + 48] = 0\n  3659: u64 [a4 + 40] = 0x2\n  3663: a0 = s1 + 0x240\n  3667: a1 = s1 + 0x1120\n  3671: ra = 94, jump @11\n      : @115 [@dyn 47] (gas: 10)\n  3676: a0 = u64 [s1 + 0x250]\n  3680: a1 = s1 + 0x100\n  3684: u64 [a1 + 0x68] = a0\n  3687: a0 = u64 [s1 + 0x248]\n  3691: u64 [a1 + 0x78] = a0\n  3694: a0 = u64 [s1 + 0x240]\n  3698: u64 [a1 + 0x70] = a0\n  3701: a0 = s1 + 0x220\n  3705: a1 = 0x40\n  3708: ra = 96, jump @7\n      : @116 [@dyn 48] (gas: 6)\n  3713: a4 = s1 + 0x200\n  3717: a3 = u64 [a4 + 0x38]\n  3720: a1 = u64 [a4 + 0x30]\n  3723: a2 = u64 [a4 + 0x28]\n  3726: a0 = u64 [a4 + 0x20]\n  3729: t0 = 98, jump @653\n      : @117 [@dyn 49] (gas: 1)\n  3734: jump @187 if a1 != 0\n      : @118 (gas: 15)\n  3738: a3 = s1 + 0x100\n  3742: a1 = u64 [a3 + 0x68]\n  3745: a1 = a1 << 0x20\n  3748: a2 = a1 >> 0x20\n  3751: u64 [s1 + 536] = 0\n  3755: a1 = u64 [a3 + 0x70]\n  3758: a4 = s1 + 0x200\n  3762: u64 [a4] = a1\n  3764: a1 = u64 [a3 + 0x78]\n  3767: u64 [a4 + 0x8] = a1\n  3770: a1 = s1 + 0x200\n  3774: u64 [a4 + 0x10] = a2\n  3777: u64 [s1 + 0x178] = a0\n  3781: ra = 0x1b2\n  3785: jump @9\n      : @119 (gas: 8)\n  3788: u64 [a3 + 2016] = 0\n  3792: u64 [a3 + 2008] = 0\n  3796: u64 [a3 + 2000] = 0\n  3800: u64 [a3 + 1992] = 0\n  3804: a0 = s1 + 0x1000\n  3808: i32 a0 = a0 + 0xc0\n  3812: ecalli 16 // 'value_transferred'\n  3814: fallthrough\n      : @120 (gas: 11)\n  3815: a3 = s1 + 0x7ff\n  3819: a3 = a3 + 0xf9\n  3823: a4 = a3 + 0x700\n  3827: a0 = u64 [a4 + 0xd8]\n  3831: a1 = u64 [a4 + 0xe0]\n  3835: a2 = u64 [a4 + 0xd0]\n  3839: a3 = u64 [a4 + 0xc8]\n  3843: a1 = a1 | a2\n  3846: a0 = a0 | a3\n  3849: a0 = a0 | a1\n  3852: jump @122 if a0 == 0\n      : @121 (gas: 1)\n  3855: jump @439\n      : @122 (gas: 4)\n  3858: a0 = u64 [s1 + 0x178]\n  3862: a0 = i32 [a0]\n  3864: a2 = s1 + 0x10f8\n  3868: jump @124 if a0 >u 3\n      : @123 (gas: 1)\n  3872: jump @440\n      : @124 (gas: 7)\n  3875: u64 [a2 + 0] = 0\n  3877: u64 [a2 + 4294967288] = 0\n  3880: u64 [a2 + 4294967280] = 0\n  3883: u64 [a2 + 4294967272] = 0x2\n  3887: a0 = s1 + 0x1e0\n  3891: a1 = s1 + 0x10e0\n  3895: ra = 100, jump @11\n      : @125 [@dyn 50] (gas: 7)\n  3900: a0 = u64 [s1 + 0x1f8]\n  3904: u64 [s1 + 0x178] = a0\n  3908: a0 = u64 [s1 + 0x1f0]\n  3912: u64 [s1 + 0x170] = a0\n  3916: a0 = s1 + 0x1c0\n  3920: a1 = 0x40\n  3923: ra = 102, jump @7\n      : @126 [@dyn 51] (gas: 6)\n  3928: a4 = s1 + 0x100\n  3932: a3 = u64 [a4 + 0xd8]\n  3936: a1 = u64 [a4 + 0xd0]\n  3940: a2 = u64 [a4 + 0xc8]\n  3944: a0 = u64 [a4 + 0xc0]\n  3948: t0 = 104, jump @653\n      : @127 [@dyn 52] (gas: 1)\n  3953: jump @187 if a1 != 0\n      : @128 (gas: 15)\n  3957: a4 = s1 + 0x100\n  3961: a2 = u64 [a4 + 0x70]\n  3964: a2 = a2 >> 0x20\n  3967: a3 = u64 [a4 + 0x78]\n  3970: a1 = a3 << 0x20\n  3973: a2 = a2 | a1\n  3976: a1 = a3 >> 0x20\n  3979: u64 [s1 + 440] = 0\n  3983: u64 [s1 + 432] = 0\n  3987: u64 [a4 + 0xa8] = a1\n  3991: a1 = s1 + 0x1a0\n  3995: u64 [a4 + 0xa0] = a2\n  3999: u64 [s1 + 0x178] = a0\n  4003: ra = 0x1b2\n  4007: jump @9\n      : @129 (gas: 1)\n  4010: jump @131 if a0 == 2105577064\n      : @130 (gas: 1)\n  4017: jump @441\n      : @131 (gas: 8)\n  4020: u64 [a2 + 256] = 0\n  4024: u64 [a2 + 248] = 0\n  4028: u64 [a2 + 240] = 0\n  4032: u64 [a2 + 232] = 0\n  4036: a0 = s1 + 0x1000\n  4040: i32 a0 = a0 + 0x1e0\n  4044: ecalli 16 // 'value_transferred'\n  4046: fallthrough\n      : @132 (gas: 9)\n  4047: a3 = s1 + 0x10f8\n  4051: a0 = u64 [a3 + 0xf8]\n  4055: a1 = u64 [a3 + 0x100]\n  4059: a2 = u64 [a3 + 0xf0]\n  4063: a3 = u64 [a3 + 0xe8]\n  4067: a1 = a1 | a2\n  4070: a0 = a0 | a3\n  4073: a0 = a0 | a1\n  4076: jump @134 if a0 == 0\n      : @133 (gas: 1)\n  4079: jump @449\n      : @134 (gas: 3)\n  4082: a0 = u64 [s1 + 0x178]\n  4086: a0 = i32 [a0]\n  4088: jump @136 if a0 >u 67\n      : @135 (gas: 1)\n  4092: jump @450\n      : @136 (gas: 2)\n  4095: a0 = s1 + 0x460\n  4099: ra = 106, jump @521\n      : @137 [@dyn 53] (gas: 10)\n  4104: a1 = s1 + 0x400\n  4108: a0 = u64 [a1 + 0x78]\n  4111: u64 [s1 + 0x140] = a0\n  4115: a0 = u64 [a1 + 0x70]\n  4118: u64 [s1 + 0x148] = a0\n  4122: a0 = u64 [a1 + 0x68]\n  4125: u64 [s1 + 0x150] = a0\n  4129: a0 = u64 [a1 + 0x60]\n  4132: u64 [s1 + 0x158] = a0\n  4136: ra = 108, jump @0\n      : @138 [@dyn 54] (gas: 12)\n  4141: a1 = u64 [0x30108]\n  4146: u64 [s1 + 0x178] = a1\n  4150: a1 = u64 [0x30100]\n  4155: u64 [s1 + 0x170] = a1\n  4159: a0 = u32 [0x30110]\n  4164: u64 [s1 + 0x168] = a0\n  4168: a0 = 0x300e0\n  4173: u64 [s1 + 0x160] = a0\n  4177: i32 a0 = a0 + 0\n  4179: ra = 0x6e\n  4182: ecalli 4 // 'caller'\n  4184: fallthrough\n      : @139 [@dyn 55] (gas: 6)\n  4185: a5 = s1 + 0x100\n  4189: a2 = u64 [a5 + 0x60]\n  4192: a0 = u64 [a2 + 0x8]\n  4195: a1 = u64 [a2]\n  4197: a2 = i32 [a2 + 0x10]\n  4200: t0 = 112, jump @655\n      : @140 [@dyn 56] (gas: 9)\n  4205: a2 = u64 [a5 + 0x68]\n  4208: a1 = a1 ^ a2\n  4211: a2 = u64 [a5 + 0x70]\n  4214: a0 = a0 ^ a2\n  4217: a0 = a0 | a1\n  4220: a1 = u64 [a5 + 0x78]\n  4223: a1 = a1 ^ a3\n  4226: a0 = a0 | a1\n  4229: jump @188 if a0 != 0\n      : @141 (gas: 31)\n  4233: a0 = s1 + 0x1000\n  4237: i32 a0 = a0 + 0x200\n  4241: a1 = 0x24\n  4244: ecalli 2 // 'call_data_load'\n  4246: a0 = s1 + 0x10f8\n  4250: a4 = a0 + 0x100\n  4254: a1 = u64 [a4 + 0x20]\n  4257: a2 = u64 [a4 + 0x18]\n  4260: a3 = u64 [a4 + 0x10]\n  4263: a0 = u64 [a4 + 0x8]\n  4266: a4 = s1 + 0x100\n  4270: u64 [a4 + 0x78] = a1\n  4273: u64 [s1 + 0x378] = a1\n  4277: u64 [a4 + 0x70] = a2\n  4280: u64 [s1 + 0x370] = a2\n  4284: u64 [a4 + 0x68] = a3\n  4287: u64 [s1 + 0x368] = a3\n  4291: u64 [a4 + 0x60] = a0\n  4294: u64 [s1 + 0x360] = a0\n  4298: a0 = u64 [a4 + 0x40]\n  4301: u64 [s1 + 0x398] = a0\n  4305: a0 = u64 [a4 + 0x48]\n  4308: u64 [s1 + 0x390] = a0\n  4312: a0 = u64 [a4 + 0x50]\n  4315: u64 [s1 + 0x388] = a0\n  4319: a0 = s1 + 0x3a0\n  4323: a1 = s1 + 0x380\n  4327: a2 = s1 + 0x360\n  4331: a3 = u64 [a4 + 0x58]\n  4334: u64 [s1 + 0x380] = a3\n  4338: ra = 114, jump @572\n      : @142 [@dyn 57] (gas: 3)\n  4343: a0 = s1 + 0x340\n  4347: a1 = 0x40\n  4350: ra = 116, jump @7\n      : @143 [@dyn 58] (gas: 13)\n  4355: a4 = s1 + 0x300\n  4359: a0 = u64 [a4 + 0x58]\n  4362: a1 = u64 [a4 + 0x50]\n  4365: a2 = u64 [a4 + 0x48]\n  4368: a3 = u64 [a4 + 0x40]\n  4371: a0 = a0 | a2\n  4374: a2 = a3 | a1\n  4377: a2 = a2 | a0\n  4380: a2 = a2 >> 0x20\n  4383: a0 = a0 | a1\n  4386: a0 = a0 << 0x20\n  4389: a0 = a0 | a2\n  4392: jump @187 if a0 != 0\n      : @144 (gas: 15)\n  4396: a2 = s1 + 0x100\n  4400: a0 = u64 [a2 + 0x60]\n  4403: a4 = s1 + 0x300\n  4407: u64 [a4 + 0x20] = a0\n  4410: a0 = u64 [a2 + 0x68]\n  4413: u64 [a4 + 0x28] = a0\n  4416: a0 = u64 [a2 + 0x70]\n  4419: u64 [a4 + 0x30] = a0\n  4422: a1 = s1 + 0x320\n  4426: a0 = u64 [a2 + 0x78]\n  4429: u64 [a4 + 0x38] = a0\n  4432: a0 = a3\n  4434: u64 [a2 + 0x78] = a3\n  4437: ra = 0x1b2\n  4441: jump @9\n      : @145 (gas: 3)\n  4444: a0 = u64 [s1 + 0x178]\n  4448: a0 = i32 [a0]\n  4450: jump @147 if a0 >u 35\n      : @146 (gas: 1)\n  4454: jump @451\n      : @147 (gas: 22)\n  4457: a0 = s1 + 0x1000\n  4461: i32 a0 = a0 + 0x260\n  4465: a1 = 0x4\n  4468: ecalli 2 // 'call_data_load'\n  4470: a1 = s1 + 0x10f8\n  4474: a2 = a1 + 0x100\n  4478: a0 = u64 [a2 + 0x80]\n  4482: u64 [s1 + 0xc8] = a0\n  4486: a0 = u64 [a2 + 0x78]\n  4489: u64 [s1 + 0xd0] = a0\n  4493: a0 = u64 [a2 + 0x70]\n  4496: u64 [s1 + 0xd8] = a0\n  4500: a0 = u64 [a2 + 0x68]\n  4503: u64 [s1 + 0xe0] = a0\n  4507: u64 [a1 + 416] = 0\n  4511: u64 [a1 + 408] = 0\n  4515: u64 [a1 + 400] = 0\n  4519: u64 [a2 + 136] = 0x1\n  4524: a0 = s1 + 0x7ff\n  4528: a0 = a0 + 0x661\n  4532: a1 = s1 + 0x1280\n  4536: ra = 118, jump @11\n      : @148 [@dyn 59] (gas: 12)\n  4541: a3 = s1 + 0x7ff\n  4545: a3 = a3 + 0xf9\n  4549: a4 = a3 + 0x500\n  4553: a0 = u64 [a4 + 0x80]\n  4557: a1 = u64 [a4 + 0x70]\n  4560: a2 = u64 [a4 + 0x68]\n  4563: a3 = u64 [a4 + 0x78]\n  4566: a0 = a0 | a1\n  4569: a1 = a2 ^ 0x2\n  4572: a1 = a1 | a3\n  4575: a0 = a0 | a1\n  4578: jump @150 if a0 != 0\n      : @149 (gas: 1)\n  4581: jump @452\n      : @150 (gas: 12)\n  4584: a1 = s1 + 0x10f8\n  4588: u64 [a1 + 448] = 0\n  4592: u64 [a1 + 440] = 0\n  4596: u64 [a1 + 432] = 0\n  4600: u64 [a1 + 424] = 0x1\n  4605: u64 [a1 + 480] = 0\n  4609: u64 [a1 + 472] = 0\n  4613: u64 [a1 + 464] = 0\n  4617: u64 [a1 + 456] = 0x2\n  4622: a0 = s1 + 0x12a0\n  4626: a1 = s1 + 0x12c0\n  4630: ra = 120, jump @12\n      : @151 [@dyn 60] (gas: 15)\n  4635: a2 = s1 + 0x7ff\n  4639: a2 = a2 + 0xf9\n  4643: a0 = u64 [s1 + 0xc8]\n  4647: a3 = a2 + 0x500\n  4651: u64 [a3 + 0x60] = a0\n  4654: a0 = u64 [s1 + 0xd0]\n  4658: u64 [a3 + 0x58] = a0\n  4661: a0 = u64 [s1 + 0xd8]\n  4665: u64 [a3 + 0x50] = a0\n  4668: a1 = s1 + 0x7ff\n  4672: a1 = a1 + 0x641\n  4676: a0 = u64 [s1 + 0xe0]\n  4680: u64 [a3 + 0x48] = a0\n  4683: a0 = 0\n  4685: ra = 122, jump @9\n      : @152 [@dyn 61] (gas: 11)\n  4690: a1 = s1 + 0x7ff\n  4694: a1 = a1 + 0xf9\n  4698: u64 [a1 + 1344] = 0\n  4702: u64 [a1 + 1336] = 0\n  4706: u64 [a1 + 1320] = 0x3\n  4711: a2 = a1\n  4713: a0 = 0x20\n  4716: a1 = s1 + 0x7ff\n  4720: a1 = a1 + 0x621\n  4724: u64 [a2 + 1328] = 0\n  4728: ra = 124, jump @9\n      : @153 [@dyn 62] (gas: 7)\n  4733: a0 = sp + 0xffffffffffffffe0\n  4736: a0 = a0 & 0xffffffffffffffe0\n  4739: u64 [s1 + 0x178] = a0\n  4743: sp = a0\n  4745: a2 = 0x200d0\n  4750: a0 = i32 [0x200d0]\n  4755: jump @155 if a0 >u 63\n      : @154 (gas: 2)\n  4759: u32 [0x200d0] = 0x40\n  4765: fallthrough\n      : @155 (gas: 16)\n  4766: u64 [s1 + 0xa8] = a2\n  4770: a0 = sp + 0xffffffffffffffe0\n  4773: a2 = a0 & 0xffffffffffffffe0\n  4776: u64 [s1 + 0x170] = a2\n  4780: sp = a2\n  4782: a0 = 0x200e0\n  4787: u64 [s1 + 0xb8] = a0\n  4791: i32 a0 = a0 + 0\n  4793: i32 a2 = a2 + 0\n  4795: a1 = 0x40\n  4798: u64 [s1 + 0xb0] = a0\n  4802: ra = 0x7e\n  4805: ecalli 9 // 'hash_keccak_256'\n  4807: a3 = u64 [s1 + 0x170]\n  4811: t0 = 0x80\n  4815: jump @659\n      : @156 [@dyn 63] (gas: 2)\n  4818: a3 = u64 [s1 + 0x170]\n  4822: t0 = 128, jump @659\n      : @157 [@dyn 64] (gas: 9)\n  4828: a4 = u64 [s1 + 0x178]\n  4832: u64 [a4 + 0x18] = a3\n  4835: u64 [a4 + 0x10] = a2\n  4838: u64 [a4 + 0x8] = a1\n  4841: u64 [a4] = a0\n  4843: a0 = s1 + 0x7ff\n  4847: a0 = a0 + 0x601\n  4851: a1 = 0x40\n  4854: ra = 130, jump @7\n      : @158 [@dyn 65] (gas: 19)\n  4860: a1 = s1 + 0x7ff\n  4864: a1 = a1 + 0xf9\n  4868: a5 = a1 + 0x500\n  4872: a0 = u64 [a5 + 0x20]\n  4875: u64 [s1 + 0x170] = a0\n  4879: a2 = u64 [a5 + 0x18]\n  4882: u64 [s1 + 0x168] = a2\n  4886: a3 = u64 [a5 + 0x10]\n  4889: u64 [s1 + 0x160] = a3\n  4893: a4 = u64 [a5 + 0x8]\n  4896: u64 [s1 + 0xc0] = a4\n  4900: u64 [a5] = a0\n  4902: a5 = a1 + 0x400\n  4906: u64 [a5 + 0xf8] = a2\n  4910: u64 [a5 + 0xf0] = a3\n  4914: a0 = s1 + 0x7ff\n  4918: a0 = a0 + 0x5e1\n  4922: u64 [a5 + 0xe8] = a4\n  4926: ra = 132, jump @527\n      : @159 [@dyn 66] (gas: 4)\n  4932: a0 = s1 + 0x7ff\n  4936: a0 = a0 + 0x5c1\n  4940: a1 = u64 [s1 + 0x178]\n  4944: ra = 134, jump @11\n      : @160 [@dyn 67] (gas: 7)\n  4950: a0 = u64 [s1 + 0xc0]\n  4954: a4 = s1 + 0x100\n  4958: a1 = u64 [a4 + 0x70]\n  4961: a2 = u64 [a4 + 0x60]\n  4964: a2 = a2 | a1\n  4967: a3 = u64 [a4 + 0x68]\n  4970: t0 = 136, jump @667\n      : @161 [@dyn 68] (gas: 1)\n  4976: jump @187 if a1 != 0\n      : @162 (gas: 17)\n  4980: a2 = s1 + 0x7ff\n  4984: a2 = a2 + 0xf9\n  4988: a1 = u64 [a2 + 0x4d8]\n  4992: a3 = u64 [a2 + 0x4d0]\n  4996: u64 [s1 + 0x170] = a3\n  5000: a4 = u64 [a2 + 0x4c8]\n  5004: u64 [s1 + 0x178] = a4\n  5008: a1 = a1 << 0x20\n  5011: a5 = a1 >> 0x20\n  5014: u64 [s1 + 0x168] = a5\n  5018: u64 [a2 + 1216] = 0\n  5022: u64 [a2 + 0x4a8] = a4\n  5026: u64 [a2 + 0x4b0] = a3\n  5030: a1 = s1 + 0x7ff\n  5034: a1 = a1 + 0x5a1\n  5038: u64 [a2 + 0x4b8] = a5\n  5042: ra = 138, jump @9\n      : @163 [@dyn 69] (gas: 7)\n  5048: a2 = s1 + 0x100\n  5052: a0 = u64 [a2 + 0x78]\n  5055: a1 = u64 [a2 + 0x70]\n  5058: a0 = a0 | a1\n  5061: a1 = u64 [a2 + 0x68]\n  5064: a0 = a0 | a1\n  5067: jump @203 if a0 != 0\n      : @164 (gas: 3)\n  5071: a0 = s1 + 0x580\n  5075: a1 = 0x40\n  5078: ra = 140, jump @7\n      : @165 [@dyn 70] (gas: 7)\n  5084: a1 = s1 + 0x500\n  5088: a4 = u64 [a1 + 0x98]\n  5092: a5 = u64 [a1 + 0x90]\n  5096: a3 = u64 [a1 + 0x88]\n  5100: a0 = u64 [a1 + 0x80]\n  5104: a2 = a3 | a4\n  5107: t0 = 142, jump @666\n      : @166 [@dyn 71] (gas: 1)\n  5113: jump @187 if a1 != 0\n      : @167 (gas: 11)\n  5117: u64 [s1 + 1392] = 0\n  5121: u64 [s1 + 1384] = 0\n  5125: u64 [s1 + 1376] = 0\n  5129: a2 = 0x8c379a000000000\n  5139: a1 = s1 + 0x560\n  5143: u64 [s1 + 0x578] = a2\n  5147: u64 [s1 + 0x178] = a0\n  5151: u64 [s1 + 0x170] = a3\n  5155: u64 [s1 + 0x168] = a4\n  5159: u64 [s1 + 0x160] = a5\n  5163: ra = 144, jump @9\n      : @168 [@dyn 72] (gas: 1)\n  5169: t0 = 146, jump @650\n      : @169 [@dyn 73] (gas: 1)\n  5175: jump @187 if a0 == 0\n      : @170 (gas: 9)\n  5179: i32 a0 = a1 + 0x4\n  5182: u64 [s1 + 1368] = 0\n  5186: u64 [s1 + 1360] = 0\n  5190: u64 [s1 + 1344] = 0x20\n  5195: a1 = s1 + 0x540\n  5199: u64 [s1 + 1352] = 0\n  5203: u64 [s1 + 0x168] = a3\n  5207: u64 [s1 + 0x160] = a4\n  5211: ra = 148, jump @9\n      : @171 [@dyn 74] (gas: 1)\n  5217: t0 = 150, jump @658\n      : @172 [@dyn 75] (gas: 1)\n  5223: jump @187 if a0 == 0\n      : @173 (gas: 7)\n  5227: i32 a0 = a1 + 0x24\n  5230: u64 [s1 + 1336] = 0\n  5234: u64 [s1 + 1328] = 0\n  5238: u64 [s1 + 1312] = 0xf\n  5243: a1 = s1 + 0x520\n  5247: u64 [s1 + 1320] = 0\n  5251: ra = 152, jump @9\n      : @174 [@dyn 76] (gas: 1)\n  5257: t0 = 154, jump @654\n      : @175 [@dyn 77] (gas: 1)\n  5263: jump @187 if a0 == 0\n      : @176 (gas: 10)\n  5267: i32 a0 = a2 + 0x44\n  5270: a1 = u64 [0x20090]\n  5275: a2 = u64 [0x20098]\n  5280: u64 [s1 + 0x518] = a1\n  5284: u64 [s1 + 1288] = 0\n  5288: u64 [s1 + 0x510] = a2\n  5292: a1 = s1 + 0x500\n  5296: u64 [s1 + 1280] = 0\n  5300: ra = 0xb2\n  5304: jump @9\n      : @177 (gas: 9)\n  5307: a0 = s1 + 0x10f8\n  5311: u64 [a0 + 320] = 0\n  5315: u64 [a0 + 312] = 0\n  5319: u64 [a0 + 304] = 0\n  5323: u64 [a0 + 296] = 0\n  5327: a0 = s1 + 0x1000\n  5331: i32 a0 = a0 + 0x220\n  5335: ecalli 16 // 'value_transferred'\n  5337: fallthrough\n      : @178 (gas: 10)\n  5338: a4 = s1 + 0x10f8\n  5342: a5 = a4 + 0x100\n  5346: a0 = u64 [a5 + 0x38]\n  5349: a1 = u64 [a5 + 0x40]\n  5352: a2 = u64 [a5 + 0x30]\n  5355: a3 = u64 [a5 + 0x28]\n  5358: a1 = a1 | a2\n  5361: a0 = a0 | a3\n  5364: a0 = a0 | a1\n  5367: jump @180 if a0 == 0\n      : @179 (gas: 1)\n  5370: jump @456\n      : @180 (gas: 3)\n  5373: a0 = u64 [s1 + 0x178]\n  5377: a0 = i32 [a0]\n  5379: jump @182 if a0 >u 3\n      : @181 (gas: 1)\n  5383: jump @457\n      : @182 (gas: 7)\n  5386: u64 [a4 + 352] = 0\n  5390: u64 [a4 + 344] = 0\n  5394: u64 [a4 + 336] = 0\n  5398: u64 [a4 + 328] = 0\n  5402: a0 = s1 + 0x4c0\n  5406: a1 = s1 + 0x1240\n  5410: ra = 156, jump @11\n      : @183 [@dyn 78] (gas: 10)\n  5416: a0 = u64 [s1 + 0x4d0]\n  5420: a1 = s1 + 0x100\n  5424: u64 [a1 + 0x68] = a0\n  5427: a0 = u64 [s1 + 0x4c8]\n  5431: u64 [a1 + 0x78] = a0\n  5434: a0 = u64 [s1 + 0x4c0]\n  5438: u64 [a1 + 0x70] = a0\n  5441: a0 = s1 + 0x4a0\n  5445: a1 = 0x40\n  5448: ra = 158, jump @7\n      : @184 [@dyn 79] (gas: 6)\n  5454: a4 = s1 + 0x400\n  5458: a3 = u64 [a4 + 0xb8]\n  5462: a1 = u64 [a4 + 0xb0]\n  5466: a2 = u64 [a4 + 0xa8]\n  5470: a0 = u64 [a4 + 0xa0]\n  5474: t0 = 160, jump @653\n      : @185 [@dyn 80] (gas: 1)\n  5480: jump @187 if a1 != 0\n      : @186 (gas: 1)\n  5483: jump @458\n      : @187 (gas: 1)\n  5486: trap\n      : @188 (gas: 3)\n  5487: a0 = s1 + 0x440\n  5491: a1 = 0x40\n  5494: ra = 162, jump @7\n      : @189 [@dyn 81] (gas: 7)\n  5500: a1 = s1 + 0x400\n  5504: a4 = u64 [a1 + 0x58]\n  5507: a5 = u64 [a1 + 0x50]\n  5510: a3 = u64 [a1 + 0x48]\n  5513: a0 = u64 [a1 + 0x40]\n  5516: a2 = a3 | a4\n  5519: t0 = 164, jump @666\n      : @190 [@dyn 82] (gas: 1)\n  5525: jump @187 if a1 != 0\n      : @191 (gas: 11)\n  5528: u64 [s1 + 1072] = 0\n  5532: u64 [s1 + 1064] = 0\n  5536: u64 [s1 + 1056] = 0\n  5540: a2 = 0x8c379a000000000\n  5550: a1 = s1 + 0x420\n  5554: u64 [s1 + 0x438] = a2\n  5558: u64 [s1 + 0x178] = a0\n  5562: u64 [s1 + 0x170] = a3\n  5566: u64 [s1 + 0x168] = a4\n  5570: u64 [s1 + 0x160] = a5\n  5574: ra = 166, jump @9\n      : @192 [@dyn 83] (gas: 1)\n  5580: t0 = 168, jump @650\n      : @193 [@dyn 84] (gas: 1)\n  5586: jump @187 if a0 == 0\n      : @194 (gas: 9)\n  5589: i32 a0 = a1 + 0x4\n  5592: u64 [s1 + 1048] = 0\n  5596: u64 [s1 + 1040] = 0\n  5600: u64 [s1 + 1024] = 0x20\n  5605: a1 = s1 + 0x400\n  5609: u64 [s1 + 1032] = 0\n  5613: u64 [s1 + 0x168] = a3\n  5617: u64 [s1 + 0x160] = a4\n  5621: ra = 170, jump @9\n      : @195 [@dyn 85] (gas: 1)\n  5627: t0 = 172, jump @658\n      : @196 [@dyn 86] (gas: 1)\n  5633: jump @187 if a0 == 0\n      : @197 (gas: 7)\n  5637: i32 a0 = a1 + 0x24\n  5640: u64 [s1 + 1016] = 0\n  5644: u64 [s1 + 1008] = 0\n  5648: u64 [s1 + 992] = 0x8\n  5653: a1 = s1 + 0x3e0\n  5657: u64 [s1 + 1000] = 0\n  5661: ra = 174, jump @9\n      : @198 [@dyn 87] (gas: 1)\n  5667: t0 = 176, jump @654\n      : @199 [@dyn 88] (gas: 1)\n  5673: jump @187 if a0 == 0\n      : @200 (gas: 8)\n  5677: i32 a0 = a2 + 0x44\n  5680: a1 = u64 [0x200a0]\n  5685: u64 [s1 + 976] = 0\n  5689: u64 [s1 + 968] = 0\n  5693: u64 [s1 + 0x3d8] = a1\n  5697: a1 = s1 + 0x3c0\n  5701: u64 [s1 + 960] = 0\n  5705: ra = 178, jump @9\n      : @201 [@dyn 89] (gas: 3)\n  5711: a1 = 0x64\n  5714: a0 = u64 [s1 + 0x178]\n  5718: ra = 180, jump @16\n      : @202 [@dyn 90] (gas: 6)\n  5724: i32 a1 = a0 + 0\n  5726: a0 = 0x1\n  5729: a2 = 0x64\n  5732: ecalli 13 // 'seal_return'\n  5734: ra = 0xb6\n  5738: jump @0\n      : @203 (gas: 1)\n  5741: ra = 182, jump @0\n      : @204 [@dyn 91] (gas: 11)\n  5747: a1 = u64 [0x30110]\n  5752: a2 = s1 + 0x100\n  5756: u64 [a2 + 0x68] = a1\n  5759: a1 = u64 [0x30108]\n  5764: u64 [a2 + 0x60] = a1\n  5767: a0 = u64 [0x30100]\n  5772: u64 [a2 + 0x70] = a0\n  5775: a0 = s1 + 0x7ff\n  5779: a0 = a0 + 0x581\n  5783: a1 = 0x40\n  5786: ra = 184, jump @7\n      : @205 [@dyn 92] (gas: 9)\n  5792: a4 = s1 + 0x7ff\n  5796: a4 = a4 + 0xf9\n  5800: t1 = u64 [a4 + 0x4a0]\n  5804: a1 = a4 + 0x400\n  5808: a5 = u64 [a1 + 0x98]\n  5812: a3 = u64 [a1 + 0x90]\n  5816: a0 = u64 [a1 + 0x88]\n  5820: a2 = a3 | t1\n  5823: t0 = 186, jump @666\n      : @206 [@dyn 93] (gas: 1)\n  5829: jump @187 if a1 != 0\n      : @207 (gas: 12)\n  5833: u64 [a4 + 1144] = 0\n  5837: u64 [a4 + 1136] = 0\n  5841: u64 [a4 + 1128] = 0\n  5845: t0 = 0xe738c7c800000000\n  5855: a1 = s1 + 0x7ff\n  5859: a1 = a1 + 0x561\n  5863: u64 [a4 + 0x480] = t0\n  5867: u64 [s1 + 0x178] = a0\n  5871: u64 [s1 + 0x158] = t1\n  5875: u64 [s1 + 0x150] = a5\n  5879: u64 [s1 + 0x148] = a3\n  5883: ra = 188, jump @9\n      : @208 [@dyn 94] (gas: 11)\n  5889: a4 = s1 + 0x100\n  5893: a3 = u64 [a4 + 0x78]\n  5896: a0 = u64 [a4 + 0x58]\n  5899: a1 = u64 [a4 + 0x50]\n  5902: a0 = a0 | a1\n  5905: a1 = 0xfffffffc\n  5915: a1 = a3 <u a1\n  5918: a2 = u64 [a4 + 0x48]\n  5921: a1 = 0 if a2 != 0\n  5923: a1 = 0 if a0 != 0\n  5925: jump @187 if a1 == 0\n      : @209 (gas: 17)\n  5929: a0 = 0x2400000000\n  5939: u64 [s1 + 0x98] = a0\n  5943: i32 a0 = a3 + 0x4\n  5946: a1 = u64 [s1 + 0xe0]\n  5950: a4 = s1 + 0x7ff\n  5954: a4 = a4 + 0xf9\n  5958: a3 = a4 + 0x400\n  5962: u64 [a3 + 0x48] = a1\n  5965: a1 = u64 [s1 + 0xd8]\n  5969: u64 [a3 + 0x50] = a1\n  5972: a1 = u64 [s1 + 0xd0]\n  5976: u64 [a3 + 0x58] = a1\n  5979: a1 = s1 + 0x7ff\n  5983: a1 = a1 + 0x541\n  5987: a2 = u64 [s1 + 0xc8]\n  5991: u64 [a3 + 0x60] = a2\n  5994: ra = 190, jump @9\n      : @210 [@dyn 95] (gas: 30)\n  6000: ecalli 10 // 'ref_time_left'\n  6002: a0 = u64 [s1 + 0x160]\n  6006: a0 = reverse a0\n  6008: a1 = a0 << 0x20\n  6011: a2 = u64 [s1 + 0x168]\n  6015: a2 = reverse a2\n  6017: a2 = a2 >> 0x20\n  6020: a4 = a2 | a1\n  6023: a1 = u64 [s1 + 0x170]\n  6027: a1 = reverse a1\n  6029: a2 = a1 << 0x20\n  6032: a3 = 0x300e0\n  6037: u64 [s1 + 0xa0] = a3\n  6041: a0 = a0 >> 0x20\n  6044: a0 = a0 | a2\n  6047: a1 = a1 >> 0x20\n  6050: u64 [s1 + 0x80] = a0\n  6054: u64 [0x300e8] = a0\n  6059: u64 [s1 + 0x90] = a4\n  6063: u64 [0x300e0] = a4\n  6068: u64 [s1 + 0x88] = a1\n  6072: u32 [0x300f0] = a1\n  6077: a0 = s1 + 0x10f8\n  6081: u64 [a0 + 512] = 0\n  6085: u64 [a0 + 504] = 0\n  6089: u64 [a0 + 496] = 0\n  6093: u64 [a0 + 488] = 0\n  6097: a1 = 0x24\n  6100: a0 = u64 [s1 + 0x178]\n  6104: ra = 192, jump @16\n      : @211 [@dyn 96] (gas: 4)\n  6110: u64 [s1 + 0x170] = a0\n  6114: a1 = 0x20\n  6117: a0 = u64 [s1 + 0x178]\n  6121: ra = 194, jump @16\n      : @212 [@dyn 97] (gas: 34)\n  6127: a1 = s1 + 0x10f8\n  6131: u32 [a1 + 520] = 0x20\n  6136: u64 [a1 + 576] = 0\n  6140: u64 [a1 + 568] = 0\n  6144: u64 [a1 + 560] = 0\n  6148: u64 [a1 + 552] = 0\n  6152: a1 = u64 [s1 + 0xa0]\n  6156: a1 = a1 << 0x20\n  6159: a2 = a1 >> 0x20\n  6162: a1 = 0x1800000000\n  6172: u64 [s1 + 0x78] = a2\n  6175: t0 = a2 | a1\n  6178: a1 = s1 + 0x12e0\n  6182: a1 = a1 << 0x20\n  6185: a1 = a1 >> 0x20\n  6188: a2 = s1 + 0x1320\n  6192: a2 = a2 << 0x20\n  6195: a3 = a2 | a1\n  6198: a1 = u64 [s1 + 0x170]\n  6202: a1 = a1 << 0x20\n  6205: a1 = a1 >> 0x20\n  6208: a4 = u64 [s1 + 0x98]\n  6212: a4 = a4 | a1\n  6215: a0 = a0 << 0x20\n  6218: a0 = a0 >> 0x20\n  6221: a1 = s1 + 0x1300\n  6225: a1 = a1 << 0x20\n  6228: a5 = a1 | a0\n  6231: a1 = 0xffffffffffffffff\n  6234: a2 = 0xffffffffffffffff\n  6237: u64 [s1 + 0x170] = t0\n  6241: a0 = t0\n  6243: ecalli 0 // 'call'\n  6244: fallthrough\n      : @213 (gas: 1)\n  6245: jump @235 if a0 != 0\n      : @214 (gas: 2)\n  6249: ecalli 12 // 'return_data_size'\n  6251: fallthrough\n      : @215 (gas: 2)\n  6252: a5 = 0x20\n  6255: jump @217 if a0 >=u a5\n      : @216 (gas: 3)\n  6258: ecalli 12 // 'return_data_size'\n  6260: a5 = a0\n  6262: fallthrough\n      : @217 (gas: 22)\n  6263: a2 = s1 + 0x7ff\n  6267: a2 = a2 + 0xf9\n  6271: a3 = u64 [s1 + 0x178]\n  6275: t0 = u64 [s1 + 0x158]\n  6279: a0 = u64 [s1 + 0x150]\n  6283: a1 = u64 [s1 + 0x148]\n  6287: u64 [s1 + 352] = 0\n  6291: u64 [s1 + 0x168] = a5\n  6295: u64 [a2 + 0x3e8] = a5\n  6299: a4 = a2 + 0x400\n  6303: u64 [a4 + 0x8] = a3\n  6306: u64 [a2 + 1008] = 0\n  6310: u64 [a4 + 0x10] = a1\n  6313: u64 [a2 + 1016] = 0\n  6317: u64 [a4 + 0x18] = a0\n  6320: u64 [a2 + 1024] = 0\n  6324: a0 = s1 + 0x7ff\n  6328: a0 = a0 + 0x501\n  6332: a1 = s1 + 0x7ff\n  6336: a1 = a1 + 0x4e1\n  6340: u64 [a2 + 0x420] = t0\n  6344: ra = 196, jump @535\n      : @218 [@dyn 98] (gas: 4)\n  6350: a3 = u64 [s1 + 0x160]\n  6354: a0 = a3 >u 0\n  6356: a1 = u64 [s1 + 0x168]\n  6360: t0 = 198, jump @648\n      : @219 [@dyn 99] (gas: 1)\n  6366: jump @221 if a2 != 0\n      : @220 (gas: 1)\n  6369: jump @495\n      : @221 (gas: 4)\n  6372: a0 = s1 + 0x7ff\n  6376: a0 = a0 + 0x4c1\n  6380: a1 = u64 [s1 + 0x178]\n  6384: ra = 200, jump @7\n      : @222 [@dyn 100] (gas: 12)\n  6390: a3 = s1 + 0x7ff\n  6394: a3 = a3 + 0xf9\n  6398: a4 = a3 + 0x300\n  6402: a0 = u64 [a4 + 0xe0]\n  6406: a1 = u64 [a4 + 0xd8]\n  6410: a2 = u64 [a4 + 0xc8]\n  6414: a3 = u64 [a4 + 0xd0]\n  6418: a4 = a1 | a0\n  6421: a5 = a2 <u 0x2\n  6424: a5 = 0 if a3 != 0\n  6426: a5 = 0 if a4 != 0\n  6428: jump @224 if a5 != 0\n      : @223 (gas: 1)\n  6431: jump @497\n      : @224 (gas: 8)\n  6434: a1 = a1 | a2\n  6437: a0 = a0 | a3\n  6440: a0 = a0 | a1\n  6443: u64 [s1 + 0x178] = a0\n  6447: a0 = s1 + 0x7ff\n  6451: a0 = a0 + 0x4a1\n  6455: a1 = 0x40\n  6458: ra = 202, jump @7\n      : @225 [@dyn 101] (gas: 11)\n  6464: a2 = s1 + 0x7ff\n  6468: a2 = a2 + 0xf9\n  6472: a5 = u64 [a2 + 0x3c0]\n  6476: a4 = u64 [a2 + 0x3b8]\n  6480: t2 = u64 [a2 + 0x3a8]\n  6484: t0 = u64 [a2 + 0x3b0]\n  6488: a1 = t2 | a4\n  6491: a0 = t0 | a5\n  6494: t1 = a4 | a5\n  6497: a3 = u64 [s1 + 0x178]\n  6501: jump @247 if a3 != 0\n      : @226 (gas: 6)\n  6505: a1 = a1 | a0\n  6508: a1 = a1 >> 0x20\n  6511: a0 = a0 | a4\n  6514: a0 = a0 << 0x20\n  6517: a0 = a0 | a1\n  6520: jump @187 if a0 != 0\n      : @227 (gas: 11)\n  6524: u64 [s1 + 1552] = 0\n  6528: u64 [s1 + 1544] = 0\n  6532: u64 [s1 + 1536] = 0\n  6536: a0 = 0x8c379a000000000\n  6546: a1 = s1 + 0x600\n  6550: u64 [s1 + 0x618] = a0\n  6554: a0 = t2\n  6556: u64 [s1 + 0x168] = t2\n  6560: u64 [s1 + 0x160] = t0\n  6564: u64 [s1 + 0x158] = t1\n  6568: ra = 204, jump @9\n      : @228 [@dyn 102] (gas: 10)\n  6574: a4 = s1 + 0x100\n  6578: a1 = u64 [a4 + 0x68]\n  6581: a3 = 0x100000000\n  6591: a0 = 0xfffffffc\n  6601: a0 = a1 <u a0\n  6604: a2 = u64 [a4 + 0x60]\n  6607: a0 = 0 if a2 != 0\n  6609: a2 = u64 [a4 + 0x58]\n  6612: a0 = 0 if a2 != 0\n  6614: jump @187 if a0 == 0\n      : @229 (gas: 8)\n  6618: i32 a0 = a1 + 0x4\n  6621: u64 [s1 + 1528] = 0\n  6625: u64 [s1 + 1520] = 0\n  6629: u64 [s1 + 1504] = 0x20\n  6634: a1 = s1 + 0x5e0\n  6638: u64 [s1 + 1512] = 0\n  6642: u64 [s1 + 0x178] = a3\n  6646: ra = 206, jump @9\n      : @230 [@dyn 103] (gas: 10)\n  6652: a4 = s1 + 0x100\n  6656: a3 = u64 [a4 + 0x58]\n  6659: a2 = u64 [a4 + 0x60]\n  6662: a1 = u64 [a4 + 0x68]\n  6665: a0 = u64 [a4 + 0x78]\n  6668: a0 = a0 + 0xffffffffffffffdc\n  6671: a0 = a1 <u a0\n  6674: a0 = 0 if a2 != 0\n  6676: a0 = 0 if a3 != 0\n  6678: jump @187 if a0 == 0\n      : @231 (gas: 7)\n  6682: i32 a0 = a1 + 0x24\n  6685: u64 [s1 + 1496] = 0\n  6689: u64 [s1 + 1488] = 0\n  6693: u64 [s1 + 1472] = 0xb\n  6698: a1 = s1 + 0x5c0\n  6702: u64 [s1 + 1480] = 0\n  6706: ra = 208, jump @9\n      : @232 [@dyn 104] (gas: 9)\n  6712: a3 = s1 + 0x100\n  6716: a2 = u64 [a3 + 0x68]\n  6719: a0 = 0xffffffbc\n  6729: a0 = a2 <u a0\n  6732: a1 = u64 [a3 + 0x60]\n  6735: a0 = 0 if a1 != 0\n  6737: a1 = u64 [a3 + 0x58]\n  6740: a0 = 0 if a1 != 0\n  6742: jump @187 if a0 == 0\n      : @233 (gas: 9)\n  6746: i32 a0 = a2 + 0x44\n  6749: a1 = u64 [0x20088]\n  6754: u64 [s1 + 1448] = 0\n  6758: u64 [s1 + 0x5b8] = a1\n  6762: a1 = 0x626c650000000000\n  6772: u64 [s1 + 0x5b0] = a1\n  6776: a1 = s1 + 0x5a0\n  6780: u64 [s1 + 1440] = 0\n  6784: ra = 210, jump @9\n      : @234 [@dyn 105] (gas: 4)\n  6790: a1 = 0x64\n  6793: a0 = u64 [s1 + 0x168]\n  6797: ra = 0xb4\n  6801: jump @16\n      : @235 (gas: 4)\n  6804: a0 = s1 + 0x7ff\n  6808: a0 = a0 + 0x521\n  6812: a1 = 0x40\n  6815: ra = 212, jump @7\n      : @236 [@dyn 106] (gas: 15)\n  6821: a0 = s1 + 0x7ff\n  6825: a0 = a0 + 0xf9\n  6829: a2 = a0 + 0x400\n  6833: a1 = u64 [a2 + 0x40]\n  6836: u64 [s1 + 0x170] = a1\n  6840: a1 = u64 [a2 + 0x38]\n  6843: u64 [s1 + 0x168] = a1\n  6847: a1 = u64 [a2 + 0x30]\n  6850: u64 [s1 + 0x160] = a1\n  6854: a0 = u64 [a2 + 0x28]\n  6857: u64 [s1 + 0x178] = a0\n  6861: ra = 0xd6\n  6865: ecalli 12 // 'return_data_size'\n  6867: t0 = 0xd8\n  6871: jump @646\n      : @237 [@dyn 107] (gas: 1)\n  6874: t0 = 216, jump @646\n      : @238 [@dyn 108] (gas: 1)\n  6880: jump @187 if a1 != 0\n      : @239 (gas: 3)\n  6884: a2 = a0\n  6886: a0 = a0 >> 0x20\n  6889: jump @187 if a0 != 0\n      : @240 (gas: 6)\n  6893: i32 a0 = a2 + 0\n  6895: u64 [s1 + 0x170] = a0\n  6899: a0 = u64 [s1 + 0x178]\n  6903: a1 = a2\n  6905: u64 [s1 + 0x168] = a2\n  6909: ra = 218, jump @16\n      : @241 [@dyn 109] (gas: 11)\n  6915: a1 = s1 + 0x10f8\n  6919: a2 = u64 [s1 + 0x168]\n  6923: u32 [a1 + 0x248] = a2\n  6927: i32 a0 = a0 + 0\n  6929: a1 = s1 + 0x1000\n  6933: i32 a1 = a1 + 0x340\n  6937: a2 = 0\n  6939: ecalli 11 // 'return_data_copy'\n  6941: a0 = s1 + 0x10f8\n  6945: a0 = i32 [a0 + 0x248]\n  6949: fallthrough\n      : @242 (gas: 2)\n  6950: a1 = u64 [s1 + 0x170]\n  6954: jump @187 if a0 <u a1\n      : @243 (gas: 2)\n  6958: ecalli 12 // 'return_data_size'\n  6960: fallthrough\n      : @244 (gas: 3)\n  6961: a1 = a0\n  6963: a0 = a0 >> 0x20\n  6966: jump @187 if a0 != 0\n      : @245 (gas: 3)\n  6970: a0 = u64 [s1 + 0x178]\n  6974: u64 [s1 + 0x170] = a1\n  6978: ra = 220, jump @16\n      : @246 [@dyn 110] (gas: 5)\n  6984: i32 a1 = a0 + 0\n  6986: a2 = i32 [s1 + 0x170]\n  6990: a0 = 0x1\n  6993: ecalli 13 // 'seal_return'\n  6995: fallthrough\n      : @247 (gas: 6)\n  6996: a1 = a1 | a0\n  6999: a1 = a1 >> 0x20\n  7002: a0 = a0 | a4\n  7005: a0 = a0 << 0x20\n  7008: a0 = a0 | a1\n  7011: jump @187 if a0 != 0\n      : @248 (gas: 14)\n  7015: u64 [s1 + 0x150] = a4\n  7019: u64 [s1 + 0x178] = a5\n  7023: u64 [a2 + 920] = 0\n  7027: u64 [a2 + 912] = 0\n  7031: u64 [a2 + 904] = 0\n  7035: a0 = 0xb9186d7d00000000\n  7045: a1 = s1 + 0x7ff\n  7049: a1 = a1 + 0x481\n  7053: u64 [a2 + 0x3a0] = a0\n  7057: a0 = t2\n  7059: u64 [s1 + 0x168] = t2\n  7063: u64 [s1 + 0x160] = t0\n  7067: u64 [s1 + 0x158] = t1\n  7071: ra = 222, jump @9\n      : @249 [@dyn 111] (gas: 9)\n  7077: a2 = s1 + 0x100\n  7081: a3 = u64 [a2 + 0x68]\n  7084: a0 = 0xfffffffc\n  7094: a0 = a3 <u a0\n  7097: a1 = u64 [a2 + 0x60]\n  7100: a0 = 0 if a1 != 0\n  7102: a1 = u64 [a2 + 0x58]\n  7105: a0 = 0 if a1 != 0\n  7107: jump @187 if a0 == 0\n      : @250 (gas: 15)\n  7111: i32 a0 = a3 + 0x4\n  7114: a1 = u64 [s1 + 0xe0]\n  7118: a4 = s1 + 0x7ff\n  7122: a4 = a4 + 0xf9\n  7126: a3 = a4 + 0x300\n  7130: u64 [a3 + 0x68] = a1\n  7133: a1 = u64 [s1 + 0xd8]\n  7137: u64 [a3 + 0x70] = a1\n  7140: a1 = u64 [s1 + 0xd0]\n  7144: u64 [a3 + 0x78] = a1\n  7147: a1 = s1 + 0x7ff\n  7151: a1 = a1 + 0x461\n  7155: a2 = u64 [s1 + 0xc8]\n  7159: u64 [a3 + 0x80] = a2\n  7163: ra = 224, jump @9\n      : @251 [@dyn 112] (gas: 4)\n  7169: ra = 0xe2\n  7173: ecalli 10 // 'ref_time_left'\n  7175: t0 = 0xe4\n  7179: jump @651\n      : @252 [@dyn 113] (gas: 1)\n  7182: t0 = 228, jump @651\n      : @253 [@dyn 114] (gas: 7)\n  7188: u64 [a0 + 640] = 0\n  7192: u64 [a0 + 632] = 0\n  7196: u64 [a0 + 624] = 0\n  7200: u64 [a0 + 616] = 0\n  7204: a1 = 0x24\n  7207: a0 = u64 [s1 + 0x168]\n  7211: ra = 230, jump @16\n      : @254 [@dyn 115] (gas: 4)\n  7217: u64 [s1 + 0x158] = a0\n  7221: a1 = 0x20\n  7224: a0 = u64 [s1 + 0x168]\n  7228: ra = 232, jump @16\n      : @255 [@dyn 116] (gas: 27)\n  7234: a1 = s1 + 0x10f8\n  7238: u32 [a1 + 648] = 0x20\n  7243: u64 [a1 + 704] = 0\n  7247: u64 [a1 + 696] = 0\n  7251: u64 [a1 + 688] = 0\n  7255: u64 [a1 + 680] = 0\n  7259: a1 = s1 + 0x1360\n  7263: a1 = a1 << 0x20\n  7266: a1 = a1 >> 0x20\n  7269: a2 = s1 + 0x13a0\n  7273: a2 = a2 << 0x20\n  7276: a3 = a2 | a1\n  7279: a1 = u64 [s1 + 0x158]\n  7283: a1 = a1 << 0x20\n  7286: a1 = a1 >> 0x20\n  7289: a4 = u64 [s1 + 0x98]\n  7293: a4 = a4 | a1\n  7296: a0 = a0 << 0x20\n  7299: a0 = a0 >> 0x20\n  7302: a1 = s1 + 0x1380\n  7306: a1 = a1 << 0x20\n  7309: a5 = a1 | a0\n  7312: a1 = 0xffffffffffffffff\n  7315: a2 = 0xffffffffffffffff\n  7318: a0 = u64 [s1 + 0x170]\n  7322: ecalli 0 // 'call'\n  7323: fallthrough\n      : @256 (gas: 1)\n  7324: jump @279 if a0 != 0\n      : @257 (gas: 2)\n  7328: ecalli 12 // 'return_data_size'\n  7330: fallthrough\n      : @258 (gas: 2)\n  7331: a5 = 0x20\n  7334: jump @260 if a0 >=u a5\n      : @259 (gas: 3)\n  7337: ecalli 12 // 'return_data_size'\n  7339: a5 = a0\n  7341: fallthrough\n      : @260 (gas: 22)\n  7342: a2 = s1 + 0x7ff\n  7346: a2 = a2 + 0xf9\n  7350: a3 = u64 [s1 + 0x168]\n  7354: a0 = u64 [s1 + 0x160]\n  7358: t0 = u64 [s1 + 0x178]\n  7362: a1 = u64 [s1 + 0x150]\n  7366: u64 [s1 + 368] = 0\n  7370: u64 [s1 + 0x178] = a5\n  7374: a4 = a2 + 0x300\n  7378: u64 [a4 + 0x8] = a5\n  7381: u64 [a4 + 0x28] = a3\n  7384: u64 [a2 + 784] = 0\n  7388: u64 [a4 + 0x30] = a0\n  7391: u64 [a2 + 792] = 0\n  7395: u64 [a4 + 0x38] = a1\n  7398: u64 [a2 + 800] = 0\n  7402: a0 = s1 + 0x7ff\n  7406: a0 = a0 + 0x421\n  7410: a1 = s1 + 0x7ff\n  7414: a1 = a1 + 0x401\n  7418: u64 [a2 + 0x340] = t0\n  7422: ra = 234, jump @535\n      : @261 [@dyn 117] (gas: 4)\n  7428: a3 = u64 [s1 + 0x170]\n  7432: a0 = a3 >u 0\n  7434: a1 = u64 [s1 + 0x178]\n  7438: t0 = 236, jump @648\n      : @262 [@dyn 118] (gas: 1)\n  7444: jump @264 if a2 != 0\n      : @263 (gas: 1)\n  7447: jump @495\n      : @264 (gas: 4)\n  7450: a0 = s1 + 0x7ff\n  7454: a0 = a0 + 0x3e1\n  7458: a1 = u64 [s1 + 0x168]\n  7462: ra = 238, jump @7\n      : @265 [@dyn 119] (gas: 20)\n  7468: a0 = s1 + 0x7ff\n  7472: a0 = a0 + 0xf9\n  7476: a1 = u64 [a0 + 0x300]\n  7480: u64 [s1 + 0x60] = a1\n  7483: a2 = a0 + 0x200\n  7487: a1 = u64 [a2 + 0xf8]\n  7491: u64 [s1 + 0x58] = a1\n  7494: a1 = u64 [a2 + 0xf0]\n  7498: u64 [s1 + 0x50] = a1\n  7501: a0 = u64 [a2 + 0xe8]\n  7505: u64 [s1 + 0x68] = a0\n  7508: a0 = s1 + 0x10f8\n  7512: u64 [a0 + 768] = 0\n  7516: u64 [a0 + 760] = 0\n  7520: u64 [a0 + 752] = 0\n  7524: u64 [a0 + 744] = 0\n  7528: a0 = s1 + 0x1000\n  7532: i32 a0 = a0 + 0x3e0\n  7536: ecalli 16 // 'value_transferred'\n  7538: fallthrough\n      : @266 (gas: 17)\n  7539: t2 = u64 [s1 + 0x58]\n  7542: t1 = u64 [s1 + 0x60]\n  7545: t0 = u64 [s1 + 0x50]\n  7548: a5 = u64 [s1 + 0x68]\n  7551: a4 = s1 + 0x10f8\n  7555: a0 = u64 [a4 + 0x300]\n  7559: a1 = u64 [a4 + 0x2f0]\n  7563: a2 = u64 [a4 + 0x2e8]\n  7567: a3 = u64 [a4 + 0x2f8]\n  7571: a0 = a0 ^ t1\n  7574: a1 = a1 ^ t0\n  7577: a0 = a0 | a1\n  7580: a1 = a3 ^ t2\n  7583: a2 = a2 ^ a5\n  7586: a1 = a1 | a2\n  7589: a0 = a0 | a1\n  7592: jump @286 if a0 != 0\n      : @267 (gas: 8)\n  7596: u64 [a4 + 800] = 0\n  7600: u64 [a4 + 792] = 0\n  7604: u64 [a4 + 784] = 0\n  7608: u64 [a4 + 776] = 0x2\n  7613: a0 = s1 + 0x7ff\n  7617: a0 = a0 + 0x321\n  7621: a1 = s1 + 0x1400\n  7625: ra = 240, jump @11\n      : @268 [@dyn 120] (gas: 59)\n  7631: ra = u64 [s1 + 0x68]\n  7634: t0 = s1 + 0x7ff\n  7638: t0 = t0 + 0xf9\n  7642: a1 = u64 [t0 + 0x240]\n  7646: a2 = u64 [t0 + 0x238]\n  7650: a0 = u64 [t0 + 0x230]\n  7654: u64 [s1 + 0x28] = a0\n  7657: a0 = a1 << 0x20\n  7660: u64 [s1 + 0x30] = a2\n  7663: a2 = a2 >> 0x20\n  7666: a0 = a0 | a2\n  7669: t1 = a1 >> 0x20\n  7672: a2 = ra mulhu a0\n  7675: a1 = u64 [s1 + 0x50]\n  7678: a3 = a1 * a0\n  7681: a2 = a2 + a3\n  7684: a3 = a2 <u a3\n  7687: a4 = a1 mulhu a0\n  7690: a3 = a3 + a4\n  7693: a4 = ra * t1\n  7696: a2 = a2 + a4\n  7699: u64 [s1 + 0x48] = a2\n  7702: a2 = a2 <u a4\n  7705: a4 = ra mulhu t1\n  7708: a2 = a2 + a4\n  7711: a4 = a3 + a2\n  7714: a5 = a1 * t1\n  7717: a2 = a5 + a4\n  7720: a5 = a2 <u a5\n  7723: a3 = a4 <u a3\n  7726: a4 = a1 mulhu t1\n  7729: a3 = a3 + a4\n  7732: a3 = a3 + a5\n  7735: u64 [s1 + 0x170] = a3\n  7739: a3 = u64 [s1 + 0x58]\n  7742: a4 = t1 * a3\n  7745: t2 = u64 [s1 + 0x60]\n  7748: a5 = t2 * a0\n  7751: a4 = a4 + a5\n  7754: u64 [s1 + 0x178] = a4\n  7758: a4 = ra | a3\n  7761: a5 = t2\n  7763: t2 = u64 [s1 + 0x170]\n  7767: a5 = a5 | a1\n  7770: a1 = a4 | a5\n  7773: a5 = a3\n  7775: a4 = a3 * a0\n  7778: a4 = a4 + a2\n  7781: u64 [s1 + 0x40] = a4\n  7784: a2 = a4 <u a2\n  7787: a3 = u64 [t0 + 0x228]\n  7791: u64 [s1 + 0x20] = a3\n  7794: a4 = a5 mulhu a0\n  7797: a5 = u64 [s1 + 0x178]\n  7801: a5 = a5 + a4\n  7804: a3 = t2 + a5\n  7807: a3 = a3 + a2\n  7810: u64 [s1 + 0x70] = a3\n  7813: jump @271 if a1 == 0\n      : @269 (gas: 21)\n  7816: a3 = u64 [s1 + 0x70]\n  7819: t0 = a3 ^ t2\n  7822: a3 = u64 [s1 + 0x70]\n  7825: a3 = a3 <u t2\n  7828: a2 = a3 if t0 != 0\n  7831: t0 = a5 <u a4\n  7834: a3 = u64 [s1 + 0x60]\n  7837: a4 = a3 >u 0\n  7839: a5 = t1 >u 0\n  7841: a4 = a4 & a5\n  7844: a5 = a3 mulhu a0\n  7847: a5 = a5 >u 0\n  7849: a3 = u64 [s1 + 0x58]\n  7852: a1 = t1 mulhu a3\n  7855: a1 = a1 >u 0\n  7857: a1 = a1 | a4\n  7860: a1 = a1 | a5\n  7863: a1 = a1 | t0\n  7866: a3 = u64 [s1 + 0x70]\n  7869: a1 = a1 | a2\n  7872: jump @271 if a1 == 0\n      : @270 (gas: 1)\n  7875: jump @508\n      : @271 (gas: 53)\n  7878: t0 = ra * a0\n  7881: ra = u64 [s1 + 0x40]\n  7884: a0 = t0 | ra\n  7887: t2 = u64 [s1 + 0x48]\n  7890: a1 = t2 | a3\n  7893: a0 = a0 | a1\n  7896: a0 = a0 <u 0x1\n  7899: u64 [s1 + 0x178] = a0\n  7903: a0 = clz ra\n  7905: a0 = a0 + 0x40\n  7908: a1 = u64 [s1 + 0x70]\n  7911: a4 = clz a1\n  7913: a1 = u64 [s1 + 0x70]\n  7916: a4 = a0 if a1 == 0\n  7919: a0 = clz t0\n  7921: a0 = a0 + 0x40\n  7924: a1 = clz t2\n  7926: a1 = a0 if t2 == 0\n  7929: a0 = a1 + 0x80\n  7933: a2 = u64 [s1 + 0x70]\n  7936: a2 = ra | a2\n  7939: a4 = a0 if a2 == 0\n  7942: a3 = a0 <u a1\n  7945: a3 = 0 if a2 != 0\n  7947: a5 = a3 >u 0\n  7949: a0 = a4 <u 0xf3\n  7953: a2 = a0 ^ 0x1\n  7956: a5 = a2 if a3 == 0\n  7959: a0 = a5 <u 0x1\n  7962: a0 = a0 + 0xffffffffffffffff\n  7965: t1 = -a5\n  7967: a3 = -a3\n  7969: a2 = a3 - a2\n  7972: a1 = 0xf2 - a4\n  7976: a3 = t1 >u 0\n  7978: a4 = a0 >u 0\n  7980: a4 = a3 if a0 == 0\n  7983: a3 = a2 >u 0\n  7985: u64 [s1 + 0x158] = a1\n  7989: a1 = a1 <u 0x100\n  7993: a1 = a1 ^ 0x1\n  7996: a1 = a3 if a2 != 0\n  7999: a1 = a4 if a5 != 0\n  8002: a3 = u64 [s1 + 0x178]\n  8006: a1 = a1 | a3\n  8009: a4 = u64 [s1 + 0x70]\n  8012: a5 = a4\n  8014: a5 = 0 if a1 != 0\n  8016: ra = 0 if a1 != 0\n  8018: t2 = 0 if a1 != 0\n  8020: u64 [s1 + 0x38] = t0\n  8023: t0 = 0 if a1 != 0\n  8025: jump @308 if a1 != 0\n      : @272 (gas: 6)\n  8029: a1 = u64 [s1 + 0x158]\n  8033: a1 = a1 ^ 0xff\n  8037: a1 = a1 | t1\n  8040: a3 = a2 | a0\n  8043: a1 = a1 | a3\n  8046: jump @308 if a1 == 0\n      : @273 (gas: 19)\n  8050: a5 = u64 [s1 + 0x158]\n  8054: a3 = a5 + 0x1\n  8057: u64 [s1 + 0x178] = a3\n  8061: a1 = a3 <u 0x1\n  8064: a1 = a1 + a2\n  8067: u64 [s1 + 0x170] = a1\n  8071: a1 = a1 | a3\n  8074: a1 = a1 <u 0x1\n  8077: a1 = a1 + t1\n  8080: u64 [s1 + 0x160] = a1\n  8084: a1 = a1 <u t1\n  8087: a0 = a0 + a1\n  8090: u64 [s1 + 0x168] = a0\n  8094: a1 = 0xff - a5\n  8098: u64 [s1 + 0x148] = a1\n  8102: a2 = 0x80 - a1\n  8106: a0 = u64 [s1 + 0x38]\n  8109: a1 = u64 [s1 + 0x48]\n  8112: ra = 242, jump @669\n      : @274 [@dyn 121] (gas: 6)\n  8118: u64 [s1 + 0x150] = a0\n  8122: u64 [s1 + 0x138] = a1\n  8126: a0 = u64 [s1 + 0x40]\n  8129: a1 = u64 [s1 + 0x70]\n  8132: a2 = u64 [s1 + 0x148]\n  8136: ra = 244, jump @674\n      : @275 [@dyn 122] (gas: 9)\n  8142: u64 [s1 + 0x140] = a0\n  8146: a0 = u64 [s1 + 0x138]\n  8150: a0 = a0 | a1\n  8153: u64 [s1 + 0x138] = a0\n  8157: a1 = u64 [s1 + 0x158]\n  8161: a2 = 0x7f - a1\n  8164: a0 = u64 [s1 + 0x38]\n  8167: a1 = u64 [s1 + 0x48]\n  8170: ra = 246, jump @674\n      : @276 [@dyn 123] (gas: 18)\n  8176: a2 = u64 [s1 + 0x148]\n  8180: a4 = a2 <u 0x80\n  8184: u64 [s1 + 0x158] = a4\n  8188: a3 = u64 [s1 + 0x138]\n  8192: a1 = a3 if a4 != 0\n  8195: a3 = u64 [s1 + 0x70]\n  8198: a1 = a3 if a2 == 0\n  8201: u64 [s1 + 0x118] = a1\n  8205: a1 = u64 [s1 + 0x150]\n  8209: a3 = u64 [s1 + 0x140]\n  8213: a1 = a1 | a3\n  8216: a1 = a0 if a4 == 0\n  8219: a0 = u64 [s1 + 0x40]\n  8222: a1 = a0 if a2 == 0\n  8225: u64 [s1 + 0x150] = a1\n  8229: a0 = u64 [s1 + 0x38]\n  8232: a1 = u64 [s1 + 0x48]\n  8235: ra = 248, jump @674\n      : @277 [@dyn 124] (gas: 14)\n  8241: a5 = s1 + 0x100\n  8245: a2 = u64 [a5 + 0x70]\n  8248: a3 = u64 [a5 + 0x68]\n  8251: a2 = a2 | a3\n  8254: a3 = u64 [a5 + 0x78]\n  8257: a4 = u64 [a5 + 0x60]\n  8260: a3 = a3 | a4\n  8263: a2 = a2 | a3\n  8266: a3 = u64 [a5 + 0x58]\n  8269: a1 = 0 if a3 == 0\n  8271: u64 [a5 + 0x48] = a1\n  8274: a0 = 0 if a3 == 0\n  8276: u64 [a5 + 0x58] = a0\n  8279: jump @301 if a2 != 0\n      : @278 (gas: 4)\n  8283: a5 = 0\n  8285: u64 [s1 + 264] = 0\n  8289: ra = u64 [s1 + 0x118]\n  8293: jump @307\n      : @279 (gas: 4)\n  8296: a0 = s1 + 0x7ff\n  8300: a0 = a0 + 0x441\n  8304: a1 = 0x40\n  8307: ra = 250, jump @7\n      : @280 [@dyn 125] (gas: 15)\n  8313: a0 = s1 + 0x7ff\n  8317: a0 = a0 + 0xf9\n  8321: a2 = a0 + 0x300\n  8325: a1 = u64 [a2 + 0x60]\n  8328: u64 [s1 + 0x170] = a1\n  8332: a1 = u64 [a2 + 0x58]\n  8335: u64 [s1 + 0x168] = a1\n  8339: a1 = u64 [a2 + 0x50]\n  8342: u64 [s1 + 0x160] = a1\n  8346: a0 = u64 [a2 + 0x48]\n  8349: u64 [s1 + 0x178] = a0\n  8353: ra = 0xfc\n  8357: ecalli 12 // 'return_data_size'\n  8359: t0 = 0xfe\n  8363: jump @646\n      : @281 [@dyn 126] (gas: 1)\n  8366: t0 = 254, jump @646\n      : @282 [@dyn 127] (gas: 1)\n  8372: jump @187 if a1 != 0\n      : @283 (gas: 3)\n  8376: a2 = a0\n  8378: a0 = a0 >> 0x20\n  8381: jump @187 if a0 != 0\n      : @284 (gas: 6)\n  8385: i32 a0 = a2 + 0\n  8387: u64 [s1 + 0x170] = a0\n  8391: a0 = u64 [s1 + 0x178]\n  8395: a1 = a2\n  8397: u64 [s1 + 0x168] = a2\n  8401: ra = 256, jump @16\n      : @285 [@dyn 128] (gas: 11)\n  8407: a1 = s1 + 0x10f8\n  8411: a2 = u64 [s1 + 0x168]\n  8415: u32 [a1 + 0x2c8] = a2\n  8419: i32 a0 = a0 + 0\n  8421: a1 = s1 + 0x1000\n  8425: i32 a1 = a1 + 0x3c0\n  8429: a2 = 0\n  8431: ecalli 11 // 'return_data_copy'\n  8433: a0 = s1 + 0x10f8\n  8437: a0 = i32 [a0 + 0x2c8]\n  8441: jump @242\n      : @286 (gas: 4)\n  8444: a0 = s1 + 0x7ff\n  8448: a0 = a0 + 0x3c1\n  8452: a1 = 0x40\n  8455: ra = 258, jump @7\n      : @287 [@dyn 129] (gas: 20)\n  8461: a2 = s1 + 0x7ff\n  8465: a2 = a2 + 0xf9\n  8469: a5 = a2 + 0x200\n  8473: a3 = u64 [a5 + 0xe0]\n  8477: a4 = u64 [a5 + 0xd8]\n  8481: a0 = u64 [a5 + 0xd0]\n  8485: a1 = u64 [a5 + 0xc8]\n  8489: a5 = s1 + 0x100\n  8493: u64 [a5 + 0x70] = a0\n  8496: u64 [a5 + 0x68] = a3\n  8499: a0 = a0 | a3\n  8502: u64 [a5 + 0x78] = a1\n  8505: a1 = a1 | a4\n  8508: a1 = a1 | a0\n  8511: a1 = a1 >> 0x20\n  8514: u64 [a5 + 0x60] = a4\n  8517: a0 = a0 | a4\n  8520: a0 = a0 << 0x20\n  8523: a0 = a0 | a1\n  8526: jump @187 if a0 != 0\n      : @288 (gas: 7)\n  8530: u64 [a2 + 696] = 0\n  8534: u64 [a2 + 688] = 0\n  8538: u64 [a2 + 680] = 0\n  8542: t0 = 0x104\n  8546: a0 = 0x8c379a000000000\n  8556: a1 = s1 + 0x7ff\n  8560: fallthrough\n      : @289 [@dyn 130] (gas: 4)\n  8561: a1 = a1 + 0x3a1\n  8565: u64 [a2 + 0x2c0] = a0\n  8569: a0 = u64 [s1 + 0x178]\n  8573: ra = 262, jump @9\n      : @290 [@dyn 131] (gas: 1)\n  8579: t0 = 264, jump @645\n      : @291 [@dyn 132] (gas: 1)\n  8585: jump @187 if a0 == 0\n      : @292 (gas: 1)\n  8589: t0 = 266, jump @668\n      : @293 [@dyn 133] (gas: 7)\n  8595: u64 [a2 + 672] = 0\n  8599: u64 [a2 + 664] = 0\n  8603: u64 [a2 + 648] = 0x20\n  8608: a1 = s1 + 0x7ff\n  8612: a1 = a1 + 0x381\n  8616: u64 [a2 + 656] = 0\n  8620: ra = 268, jump @9\n      : @294 [@dyn 134] (gas: 4)\n  8626: a2 = s1 + 0x100\n  8630: a0 = u64 [a2 + 0x60]\n  8633: a0 = a0 + 0xffffffffffffffdc\n  8636: t0 = 270, jump @647\n      : @295 [@dyn 135] (gas: 1)\n  8642: jump @187 if a0 == 0\n      : @296 (gas: 1)\n  8646: t0 = 272, jump @661\n      : @297 [@dyn 136] (gas: 7)\n  8652: u64 [a2 + 640] = 0\n  8656: u64 [a2 + 632] = 0\n  8660: u64 [a2 + 616] = 0x9\n  8665: a1 = s1 + 0x7ff\n  8669: a1 = a1 + 0x361\n  8673: u64 [a2 + 624] = 0\n  8677: ra = 274, jump @9\n      : @298 [@dyn 137] (gas: 3)\n  8683: a0 = 0xffffffbc\n  8693: a2 = s1 + 0x100\n  8697: t0 = 276, jump @647\n      : @299 [@dyn 138] (gas: 1)\n  8703: jump @187 if a0 == 0\n      : @300 (gas: 14)\n  8707: a0 = u64 [s1 + 0x178]\n  8711: i32 a0 = a0 + 0x44\n  8714: a1 = u64 [0x20040]\n  8719: a2 = s1 + 0x7ff\n  8723: a2 = a2 + 0xf9\n  8727: u64 [a2 + 592] = 0\n  8731: u64 [a2 + 0x260] = a1\n  8735: a1 = 0x6500000000000000\n  8745: u64 [a2 + 0x258] = a1\n  8749: a1 = s1 + 0x7ff\n  8753: a1 = a1 + 0x341\n  8757: u64 [a2 + 584] = 0\n  8761: ra = 0xb2\n  8765: jump @9\n      : @301 (gas: 6)\n  8768: u64 [s1 + 256] = 0x2710\n  8774: a0 = u64 [s1 + 0x178]\n  8778: a2 = a0 + 0xffffffffffffff80\n  8781: a0 = u64 [s1 + 0x40]\n  8784: a1 = u64 [s1 + 0x70]\n  8787: ra = 278, jump @669\n      : @302 [@dyn 139] (gas: 6)\n  8793: u64 [s1 + 0x138] = a0\n  8797: u64 [s1 + 0x140] = a1\n  8801: a0 = u64 [s1 + 0x38]\n  8804: a1 = u64 [s1 + 0x48]\n  8807: a2 = u64 [s1 + 0x178]\n  8811: ra = 280, jump @669\n      : @303 [@dyn 140] (gas: 7)\n  8817: u64 [s1 + 0x130] = a0\n  8821: u64 [s1 + 0x128] = a1\n  8825: a1 = u64 [s1 + 0x178]\n  8829: a2 = 0x80 - a1\n  8833: a0 = u64 [s1 + 0x40]\n  8836: a1 = u64 [s1 + 0x70]\n  8839: ra = 282, jump @674\n      : @304 [@dyn 141] (gas: 20)\n  8845: a2 = u64 [s1 + 0x128]\n  8849: a1 = a1 | a2\n  8852: a2 = u64 [s1 + 0x178]\n  8856: a3 = a2 <u 0x80\n  8860: u64 [s1 + 0x120] = a3\n  8864: a4 = u64 [s1 + 0x140]\n  8868: a1 = a4 if a3 == 0\n  8871: a4 = u64 [s1 + 0x48]\n  8874: a1 = a4 if a2 == 0\n  8877: u64 [s1 + 0x140] = a1\n  8881: a1 = u64 [s1 + 0x130]\n  8885: a0 = a0 | a1\n  8888: a1 = u64 [s1 + 0x138]\n  8892: a0 = a1 if a3 == 0\n  8895: a1 = u64 [s1 + 0x38]\n  8898: a0 = a1 if a2 == 0\n  8901: u64 [s1 + 0x138] = a0\n  8905: a0 = u64 [s1 + 0x40]\n  8908: a1 = u64 [s1 + 0x70]\n  8911: ra = 284, jump @669\n      : @305 [@dyn 142] (gas: 16)\n  8917: a5 = 0\n  8919: u64 [s1 + 296] = 0\n  8923: a3 = s1 + 0x100\n  8927: a2 = u64 [a3 + 0x20]\n  8930: a1 = 0 if a2 == 0\n  8932: u64 [a3 + 0x30] = a1\n  8935: a0 = 0 if a2 == 0\n  8937: u64 [a3 + 0x20] = a0\n  8940: a1 = u64 [a3]\n  8942: a2 = a1 + 0xffffffffffffffff\n  8945: u64 [s1 + 0xf8] = a2\n  8949: a2 = a1 >u 0\n  8951: a2 = a2 + 0xffffffffffffffff\n  8954: u64 [s1 + 0xf0] = a2\n  8958: ra = u64 [s1 + 0x118]\n  8962: fallthrough\n      : @306 (gas: 93)\n  8963: u64 [s1 + 0x110] = a5\n  8967: u64 [s1 + 264] = 0\n  8971: a1 = u64 [s1 + 0x138]\n  8975: a2 = a1 >> 0x3f\n  8978: a5 = u64 [s1 + 0x140]\n  8982: a3 = a5 << 0x1\n  8985: t1 = a3 | a2\n  8988: a2 = a1 << 0x1\n  8991: a4 = ra >> 0x3f\n  8994: a4 = a4 | a2\n  8997: u64 [s1 + 0x118] = a4\n  9001: a3 = u64 [s1 + 0xf0]\n  9005: a0 = a3 ^ t1\n  9008: t2 = u64 [s1 + 0x148]\n  9012: a1 = a3 <u t1\n  9015: a2 = u64 [s1 + 0xf8]\n  9019: t0 = a2 <u a4\n  9022: t0 = a1 if a0 != 0\n  9025: a1 = u64 [s1 + 0x130]\n  9029: a1 = a1 << 0x1\n  9032: a0 = u64 [s1 + 0x120]\n  9036: a4 = a0 >> 0x3f\n  9039: a1 = a1 | a4\n  9042: u64 [s1 + 0x130] = a1\n  9046: a4 = a5 >> 0x3f\n  9049: a0 = a0 << 0x1\n  9052: a4 = a4 | a0\n  9055: a0 = ra << 0x1\n  9058: a1 = u64 [s1 + 0x150]\n  9062: a5 = a1 >> 0x3f\n  9065: a2 = a0 | a5\n  9068: a5 = a1 << 0x1\n  9071: a1 = t2 >> 0x3f\n  9074: a1 = a1 | a5\n  9077: a5 = t2 << 0x1\n  9080: a0 = u64 [s1 + 0x158]\n  9084: ra = a0 >> 0x3f\n  9087: t2 = a5 | ra\n  9090: a0 = a0 << 0x1\n  9093: a5 = u64 [s1 + 0x110]\n  9097: a0 = a0 | a5\n  9100: u64 [s1 + 0x158] = a0\n  9104: a5 = u64 [s1 + 0x128]\n  9108: a0 = a5 | t2\n  9111: u64 [s1 + 0x148] = a0\n  9115: a0 = a5 | a1\n  9118: u64 [s1 + 0x150] = a0\n  9122: ra = a5 | a2\n  9125: a0 = a3 - a4\n  9128: a0 = a0 <u t0\n  9131: a1 = a3 <u a4\n  9134: t2 = u64 [s1 + 0x130]\n  9138: a5 = a3 - t2\n  9141: a5 = a5 - a1\n  9144: a5 = a5 - a0\n  9147: t0 = a5 >>a 0x3f\n  9150: a0 = u64 [s1 + 0x100]\n  9154: a0 = t0 & a0\n  9157: a2 = u64 [s1 + 0x118]\n  9161: a1 = a2 - a0\n  9164: u64 [s1 + 0x138] = a1\n  9168: a1 = a2 <u a0\n  9171: a0 = t1 - a1\n  9174: u64 [s1 + 0x140] = a0\n  9178: a1 = 0 if t1 != 0\n  9180: a0 = a4 - a1\n  9183: u64 [s1 + 0x120] = a0\n  9187: a1 = a4 <u a1\n  9190: a1 = t2 - a1\n  9193: a0 = s1 + 0x100\n  9197: u64 [a0 + 0x30] = a1\n  9200: a3 = u64 [a0 + 0x78]\n  9203: a1 = u64 [a0 + 0x70]\n  9206: a2 = a3 | a1\n  9209: a2 = a2 <u 0x1\n  9212: a4 = u64 [a0 + 0x60]\n  9215: a5 = a4 <u a2\n  9218: a4 = a4 - a2\n  9221: a2 = a3 <u 0x1\n  9224: a1 = a1 - a2\n  9227: a2 = u64 [a0 + 0x68]\n  9230: a2 = a2 - a5\n  9233: a3 = a3 + 0xffffffffffffffff\n  9236: u64 [a0 + 0x70] = a1\n  9239: u64 [a0 + 0x68] = a2\n  9242: a2 = a2 | a1\n  9245: u64 [a0 + 0x78] = a3\n  9248: a3 = a3 | a4\n  9251: a2 = a2 | a3\n  9254: a5 = t0 & 0x1\n  9257: u64 [a0 + 0x60] = a4\n  9260: u64 [s1 + 296] = 0\n  9264: jump @306 if a2 != 0\n      : @307 (gas: 20)\n  9268: a2 = u64 [s1 + 0x150]\n  9272: a0 = a2 >> 0x3f\n  9275: a1 = ra << 0x1\n  9278: a0 = a0 | a1\n  9281: a3 = u64 [s1 + 0x148]\n  9285: a1 = a3 >> 0x3f\n  9288: a2 = a2 << 0x1\n  9291: a1 = a1 | a2\n  9294: a4 = u64 [s1 + 0x158]\n  9298: a2 = a4 >> 0x3f\n  9301: a3 = a3 << 0x1\n  9304: a4 = a4 << 0x1\n  9307: t0 = a5 | a4\n  9310: a5 = u64 [s1 + 0x108]\n  9314: a2 = a2 | a5\n  9317: t2 = a2 | a3\n  9320: ra = a5 | a1\n  9323: a5 = a5 | a0\n  9326: a4 = u64 [s1 + 0x70]\n  9329: fallthrough\n      : @308 (gas: 19)\n  9330: u64 [s1 + 0x160] = ra\n  9334: u64 [s1 + 0x168] = a5\n  9338: u64 [s1 + 0x170] = t2\n  9342: u64 [s1 + 0x178] = t0\n  9346: a2 = u64 [s1 + 0x48]\n  9349: a0 = a2 >> 0x4\n  9352: a3 = u64 [s1 + 0x40]\n  9355: a1 = a3 << 0x3c\n  9358: a0 = a0 | a1\n  9361: a1 = u64 [s1 + 0x38]\n  9364: a1 = a1 >> 0x4\n  9367: a2 = a2 << 0x3c\n  9370: a1 = a1 | a2\n  9373: a1 = a1 <u 0x271\n  9377: a1 = 0 if a0 != 0\n  9379: a0 = a3 >> 0x4\n  9382: a0 = a0 | a4\n  9385: a1 = 0 if a0 != 0\n  9387: jump @314 if a1 != 0\n      : @309 (gas: 10)\n  9391: a1 = 0xffffffff\n  9401: a2 = u64 [s1 + 0x20]\n  9404: a2 = a2 & 0xffffffffffffffff\n  9407: a3 = u64 [s1 + 0x28]\n  9410: a0 = a3 & 0xffffffffffffffff\n  9413: a3 = u64 [s1 + 0x30]\n  9416: a1 = a1 & a3\n  9419: a0 = a0 | a2\n  9422: a0 = a0 | a1\n  9425: jump @314 if a0 == 0\n      : @310 (gas: 3)\n  9429: ra = 0x11e\n  9433: ecalli 10 // 'ref_time_left'\n  9435: fallthrough\n      : @311 [@dyn 143] (gas: 12)\n  9436: a1 = u64 [s1 + 0x28]\n  9439: a1 = reverse a1\n  9441: a2 = a1 << 0x20\n  9444: a3 = u64 [s1 + 0x30]\n  9447: a3 = reverse a3\n  9449: a3 = a3 >> 0x20\n  9452: a2 = a2 | a3\n  9455: a3 = u64 [s1 + 0x20]\n  9458: a3 = reverse a3\n  9460: a4 = a3 << 0x20\n  9463: a1 = a1 >> 0x20\n  9466: t0 = 288, jump @663\n      : @312 [@dyn 144] (gas: 38)\n  9472: a1 = u64 [s1 + 0x170]\n  9476: a3 = a2 + 0x300\n  9480: u64 [a3 + 0x30] = a1\n  9483: a1 = u64 [s1 + 0x178]\n  9487: u64 [a3 + 0x28] = a1\n  9490: a1 = u64 [s1 + 0x160]\n  9494: u64 [a3 + 0x38] = a1\n  9497: a1 = u64 [s1 + 0x168]\n  9501: u64 [a3 + 0x40] = a1\n  9504: u32 [a2 + 840] = 0\n  9508: a0 = a0 >u 0x8fc\n  9512: a1 = -a0\n  9514: u64 [a3 + 0x80] = a1\n  9518: u64 [a3 + 0x78] = a1\n  9521: u64 [a3 + 0x70] = a1\n  9524: u64 [a3 + 0x68] = a1\n  9527: a0 = a0 << 0x23\n  9530: a1 = u64 [s1 + 0x78]\n  9533: a0 = a0 | a1\n  9536: a1 = s1 + 0x1420\n  9540: a1 = a1 << 0x20\n  9543: a1 = a1 >> 0x20\n  9546: a2 = s1 + 0x1460\n  9550: a2 = a2 << 0x20\n  9553: a3 = a2 | a1\n  9556: a4 = u64 [s1 + 0xb8]\n  9560: a4 = a4 << 0x20\n  9563: a4 = a4 >> 0x20\n  9566: a1 = s1 + 0x1440\n  9570: a1 = a1 << 0x20\n  9573: a5 = a1 | a4\n  9576: a1 = 0xffffffffffffffff\n  9579: a2 = 0xffffffffffffffff\n  9582: ecalli 0 // 'call'\n  9583: u64 [s1 + 0x158] = a0\n  9587: a0 = s1 + 0x7ff\n  9591: a0 = a0 + 0x2c1\n  9595: ra = 290, jump @544\n      : @313 [@dyn 145] (gas: 2)\n  9601: a0 = u64 [s1 + 0x158]\n  9605: jump @397 if a0 != 0\n      : @314 (gas: 22)\n  9609: a0 = u64 [s1 + 0x68]\n  9612: a1 = u64 [s1 + 0x178]\n  9616: a0 = a0 <u a1\n  9619: ra = u64 [s1 + 0x50]\n  9622: t0 = u64 [s1 + 0x170]\n  9626: a2 = ra ^ t0\n  9629: a1 = ra <u t0\n  9632: u64 [s1 + 0x158] = a0\n  9636: a1 = a0 if a2 == 0\n  9639: a0 = u64 [s1 + 0x58]\n  9642: t2 = u64 [s1 + 0x160]\n  9646: a5 = a0 <u t2\n  9649: a2 = u64 [s1 + 0x60]\n  9652: t1 = u64 [s1 + 0x168]\n  9656: a3 = a2 ^ t1\n  9659: a4 = a2 <u t1\n  9662: u64 [s1 + 0x150] = a5\n  9666: a4 = a5 if a3 == 0\n  9669: a5 = a0 ^ t2\n  9672: a3 = a3 | a5\n  9675: a4 = a1 if a3 == 0\n  9678: jump @316 if a4 == 0\n      : @315 (gas: 1)\n  9681: jump @506\n      : @316 (gas: 21)\n  9684: a3 = a0 - t2\n  9687: a4 = a2 - t1\n  9690: a0 = u64 [s1 + 0x150]\n  9694: a4 = a4 - a0\n  9697: a2 = a3 <u a1\n  9700: a4 = a4 - a2\n  9703: u64 [s1 + 0x168] = a4\n  9707: a3 = a3 - a1\n  9710: u64 [s1 + 0x160] = a3\n  9714: a1 = ra - t0\n  9717: a0 = u64 [s1 + 0x158]\n  9721: a0 = a1 - a0\n  9724: u64 [s1 + 0x170] = a0\n  9728: a0 = u64 [s1 + 0x68]\n  9731: a1 = u64 [s1 + 0x178]\n  9735: a0 = a0 - a1\n  9738: u64 [s1 + 0x178] = a0\n  9742: a0 = s1 + 0x7ff\n  9746: a0 = a0 + 0x201\n  9750: a1 = u64 [s1 + 0xc0]\n  9754: ra = 292, jump @7\n      : @317 [@dyn 146] (gas: 12)\n  9760: a0 = s1 + 0x7ff\n  9764: a0 = a0 + 0xf9\n  9768: a2 = a0 + 0x100\n  9772: a1 = u64 [a2 + 0x8]\n  9775: u64 [s1 + 0x158] = a1\n  9779: a1 = u64 [a2 + 0x18]\n  9782: u64 [s1 + 0x150] = a1\n  9786: a0 = u64 [a2 + 0x10]\n  9789: u64 [s1 + 0x148] = a0\n  9793: ra = 0x126\n  9797: ecalli 10 // 'ref_time_left'\n  9799: fallthrough\n      : @318 [@dyn 147] (gas: 12)\n  9800: a1 = u64 [s1 + 0x148]\n  9804: a1 = reverse a1\n  9806: a2 = a1 << 0x20\n  9809: a3 = u64 [s1 + 0x150]\n  9813: a3 = reverse a3\n  9815: a3 = a3 >> 0x20\n  9818: a2 = a2 | a3\n  9821: a1 = a1 >> 0x20\n  9824: a3 = u64 [s1 + 0x158]\n  9828: a3 = reverse a3\n  9830: a4 = a3 << 0x20\n  9833: t0 = 296, jump @663\n      : @319 [@dyn 148] (gas: 38)\n  9839: a1 = u64 [s1 + 0x160]\n  9843: a3 = a2 + 0x300\n  9847: u64 [a3 + 0x98] = a1\n  9851: a1 = u64 [s1 + 0x170]\n  9855: u64 [a3 + 0x90] = a1\n  9859: a1 = u64 [s1 + 0x178]\n  9863: u64 [a3 + 0x88] = a1\n  9867: a1 = u64 [s1 + 0x168]\n  9871: u64 [a3 + 0xa0] = a1\n  9875: u32 [a2 + 936] = 0\n  9879: a0 = a0 >u 0x8fc\n  9883: a1 = -a0\n  9885: u64 [a3 + 0xe0] = a1\n  9889: u64 [a3 + 0xd8] = a1\n  9893: u64 [a3 + 0xd0] = a1\n  9897: u64 [a3 + 0xc8] = a1\n  9901: a0 = a0 << 0x23\n  9904: a1 = u64 [s1 + 0x78]\n  9907: a0 = a0 | a1\n  9910: a1 = s1 + 0x1480\n  9914: a1 = a1 << 0x20\n  9917: a1 = a1 >> 0x20\n  9920: a2 = s1 + 0x14c0\n  9924: a2 = a2 << 0x20\n  9927: a3 = a2 | a1\n  9930: a4 = u64 [s1 + 0xb8]\n  9934: a4 = a4 << 0x20\n  9937: a4 = a4 >> 0x20\n  9940: a1 = s1 + 0x14a0\n  9944: a1 = a1 << 0x20\n  9947: a5 = a1 | a4\n  9950: a1 = 0xffffffffffffffff\n  9953: a2 = 0xffffffffffffffff\n  9956: ecalli 0 // 'call'\n  9957: u64 [s1 + 0x178] = a0\n  9961: a0 = s1 + 0x7ff\n  9965: a0 = a0 + 0x1e1\n  9969: ra = 298, jump @544\n      : @320 [@dyn 149] (gas: 2)\n  9975: a0 = u64 [s1 + 0x178]\n  9979: jump @377 if a0 != 0\n      : @321 (gas: 11)\n  9983: a0 = u64 [s1 + 0x88]\n  9987: a1 = u64 [s1 + 0xa0]\n  9991: u32 [a1 + 0x10] = a0\n  9994: a0 = u64 [s1 + 0x80]\n  9998: u64 [a1 + 0x8] = a0\n 10001: a0 = u64 [s1 + 0x90]\n 10005: u64 [a1] = a0\n 10007: i32 a0 = a1 + 0\n 10009: u64 [s1 + 0x168] = a0\n 10013: ecalli 5 // 'code_size'\n 10015: fallthrough\n      : @322 (gas: 1)\n 10016: jump @324 if a0 != 0\n      : @323 (gas: 1)\n 10019: jump @497\n      : @324 (gas: 4)\n 10022: a0 = s1 + 0x7ff\n 10026: a0 = a0 + 0x121\n 10030: a1 = 0x40\n 10033: ra = 300, jump @7\n      : @325 [@dyn 150] (gas: 19)\n 10039: a0 = s1 + 0x7ff\n 10043: a0 = a0 + 0xf9\n 10047: a1 = u64 [a0 + 0x40]\n 10050: a2 = u64 [a0 + 0x38]\n 10053: a3 = u64 [a0 + 0x30]\n 10056: a4 = u64 [a0 + 0x28]\n 10059: a5 = s1 + 0x100\n 10063: u64 [a5 + 0x60] = a1\n 10066: u64 [a5 + 0x70] = a3\n 10069: a0 = a3 | a1\n 10072: u64 [a5 + 0x78] = a4\n 10075: a1 = a4 | a2\n 10078: a1 = a1 | a0\n 10081: a1 = a1 >> 0x20\n 10084: u64 [a5 + 0x58] = a2\n 10087: a0 = a0 | a2\n 10090: a0 = a0 << 0x20\n 10093: a0 = a0 | a1\n 10096: jump @327 if a0 == 0\n      : @326 (gas: 1)\n 10099: jump @187\n      : @327 (gas: 11)\n 10102: a2 = s1 + 0x7ff\n 10106: a2 = a2 + 0xf9\n 10110: u64 [a2 + 24] = 0\n 10113: u64 [a2 + 16] = 0\n 10116: u64 [a2 + 8] = 0\n 10119: a0 = 0x2ccb1b3000000000\n 10129: a1 = s1 + 0x7ff\n 10133: a1 = a1 + 0x101\n 10137: u64 [a2 + 0x20] = a0\n 10140: a0 = u64 [s1 + 0x178]\n 10144: ra = 302, jump @9\n      : @328 [@dyn 151] (gas: 3)\n 10150: a0 = u64 [s1 + 0x168]\n 10154: ecalli 4 // 'caller'\n 10156: fallthrough\n      : @329 (gas: 14)\n 10157: a3 = s1 + 0x100\n 10161: a0 = u64 [a3 + 0x60]\n 10164: a1 = u64 [a3 + 0x58]\n 10167: a2 = a1 | a0\n 10170: a0 = 0x100000000\n 10180: u64 [a3 + 0x48] = a0\n 10183: a0 = 0xfffffffc\n 10193: a1 = u64 [a3 + 0x78]\n 10196: a0 = a1 <u a0\n 10199: a1 = u64 [a3 + 0x70]\n 10202: a0 = 0 if a1 != 0\n 10204: u64 [a3 + 0x50] = a2\n 10207: a0 = 0 if a2 != 0\n 10209: jump @331 if a0 != 0\n      : @330 (gas: 1)\n 10212: jump @187\n      : @331 (gas: 27)\n 10215: a2 = u64 [s1 + 0xa0]\n 10219: a0 = u64 [a2 + 0x8]\n 10222: a1 = i32 [a2 + 0x10]\n 10225: a2 = u64 [a2]\n 10227: a0 = reverse a0\n 10229: a3 = a0 << 0x20\n 10232: a1 = reverse a1\n 10234: a1 = a1 >> 0x20\n 10237: a3 = a3 | a1\n 10240: a0 = a0 >> 0x20\n 10243: a1 = reverse a2\n 10245: a2 = a1 << 0x20\n 10248: a2 = a2 | a0\n 10251: a1 = a1 >> 0x20\n 10254: a0 = u64 [s1 + 0x178]\n 10258: i32 a0 = a0 + 0x4\n 10261: a4 = s1 + 0x7ff\n 10265: a4 = a4 + 0xf9\n 10269: u64 [a4 + 0] = 0\n 10271: u64 [a4 + 0xfffffffffffffff8] = a1\n 10274: a1 = s1 + 0x1000\n 10278: u64 [a1 + 0xfffffffffffff8e8] = a2\n 10282: a1 = s1 + 0x7ff\n 10286: a1 = a1 + 0xe1\n 10290: a2 = s1 + 0x1000\n 10294: u64 [a2 + 0xfffffffffffff8e0] = a3\n 10298: ra = 304, jump @9\n      : @332 [@dyn 152] (gas: 10)\n 10304: a2 = s1 + 0x100\n 10308: a0 = u64 [a2 + 0x48]\n 10311: a0 = a0 + 0xffffffffffffffdc\n 10314: a1 = u64 [a2 + 0x78]\n 10317: a0 = a1 <u a0\n 10320: a1 = u64 [a2 + 0x70]\n 10323: a0 = 0 if a1 != 0\n 10325: a1 = u64 [a2 + 0x50]\n 10328: a0 = 0 if a1 != 0\n 10330: jump @334 if a0 != 0\n      : @333 (gas: 1)\n 10333: jump @187\n      : @334 (gas: 17)\n 10336: a0 = u64 [s1 + 0x178]\n 10340: i32 a0 = a0 + 0x24\n 10343: a1 = u64 [s1 + 0xe0]\n 10347: a2 = s1 + 0x1000\n 10351: u64 [a2 + 0xfffffffffffff8c0] = a1\n 10355: a1 = u64 [s1 + 0xd8]\n 10359: a2 = s1 + 0x1000\n 10363: u64 [a2 + 0xfffffffffffff8c8] = a1\n 10367: a1 = u64 [s1 + 0xd0]\n 10371: a2 = s1 + 0x1000\n 10375: u64 [a2 + 0xfffffffffffff8d0] = a1\n 10379: a1 = s1 + 0x7ff\n 10383: a1 = a1 + 0xc1\n 10387: a2 = u64 [s1 + 0xc8]\n 10391: a3 = s1 + 0x1000\n 10395: u64 [a3 + 0xfffffffffffff8d8] = a2\n 10399: ra = 306, jump @9\n      : @335 [@dyn 153] (gas: 4)\n 10405: ra = 0x134\n 10409: ecalli 10 // 'ref_time_left'\n 10411: t0 = 0x136\n 10415: jump @651\n      : @336 [@dyn 154] (gas: 1)\n 10418: t0 = 310, jump @651\n      : @337 [@dyn 155] (gas: 7)\n 10424: u64 [a0 + 1024] = 0\n 10428: u64 [a0 + 1016] = 0\n 10432: u64 [a0 + 1008] = 0\n 10436: u64 [a0 + 1000] = 0\n 10440: a1 = 0x44\n 10443: a0 = u64 [s1 + 0x178]\n 10447: ra = 312, jump @16\n      : @338 [@dyn 156] (gas: 4)\n 10453: u64 [s1 + 0x150] = a0\n 10457: a0 = u64 [s1 + 0x178]\n 10461: a1 = 0\n 10463: ra = 314, jump @16\n      : @339 [@dyn 157] (gas: 32)\n 10469: a2 = s1 + 0x10f8\n 10473: u32 [a2 + 1032] = 0\n 10477: a3 = a2 + 0x400\n 10481: u64 [a3 + 64] = 0xffffffffffffffff\n 10485: u64 [a3 + 56] = 0xffffffffffffffff\n 10489: u64 [a3 + 48] = 0xffffffffffffffff\n 10493: u64 [a3 + 40] = 0xffffffffffffffff\n 10497: a1 = 0x800000000\n 10507: a2 = u64 [s1 + 0x78]\n 10510: t0 = a2 | a1\n 10513: a1 = s1 + 0x14e0\n 10517: a1 = a1 << 0x20\n 10520: a1 = a1 >> 0x20\n 10523: a2 = s1 + 0x1520\n 10527: a2 = a2 << 0x20\n 10530: a3 = a2 | a1\n 10533: a1 = u64 [s1 + 0x150]\n 10537: a1 = a1 << 0x20\n 10540: a1 = a1 >> 0x20\n 10543: a2 = 0x4400000000\n 10553: a4 = a1 | a2\n 10556: a0 = a0 << 0x20\n 10559: a0 = a0 >> 0x20\n 10562: a1 = s1 + 0x1500\n 10566: a1 = a1 << 0x20\n 10569: a5 = a1 | a0\n 10572: a1 = 0xffffffffffffffff\n 10575: a2 = 0xffffffffffffffff\n 10578: u64 [s1 + 0x150] = t0\n 10582: a0 = t0\n 10584: ecalli 0 // 'call'\n 10585: fallthrough\n      : @340 (gas: 1)\n 10586: jump @417 if a0 != 0\n      : @341 (gas: 25)\n 10590: a0 = s1 + 0x1000\n 10594: u64 [a0 + 4294965368] = 0\n 10598: a0 = s1 + 0x1000\n 10602: u64 [a0 + 4294965360] = 0\n 10606: a0 = s1 + 0x1000\n 10610: u64 [a0 + 4294965352] = 0\n 10614: a0 = s1 + 0x1000\n 10618: u64 [a0 + 4294965344] = 0\n 10622: a0 = u64 [s1 + 0x178]\n 10626: a1 = s1 + 0x1000\n 10630: u64 [a1 + 0xfffffffffffff880] = a0\n 10634: a0 = u64 [s1 + 0x170]\n 10638: a1 = s1 + 0x1000\n 10642: u64 [a1 + 0xfffffffffffff888] = a0\n 10646: a0 = u64 [s1 + 0x158]\n 10650: a1 = s1 + 0x1000\n 10654: u64 [a1 + 0xfffffffffffff890] = a0\n 10658: a0 = s1 + 0x7ff\n 10662: a0 = a0 + 0x81\n 10666: a1 = s1 + 0x7ff\n 10670: a1 = a1 + 0x61\n 10673: a2 = u64 [s1 + 0x160]\n 10677: a3 = s1 + 0x1000\n 10681: u64 [a3 + 0xfffffffffffff898] = a2\n 10685: ra = 316, jump @535\n      : @342 [@dyn 158] (gas: 21)\n 10691: a0 = u64 [s1 + 0xe8]\n 10695: u64 [a0 + 24] = 0\n 10698: u64 [a0 + 16] = 0\n 10701: u64 [a0 + 8] = 0\n 10704: u64 [a0 + 0] = 0\n 10706: a0 = u64 [s1 + 0xc8]\n 10710: a1 = s1 + 0x1000\n 10714: u64 [a1 + 0xfffffffffffff858] = a0\n 10718: a0 = u64 [s1 + 0xd0]\n 10722: a1 = s1 + 0x1000\n 10726: u64 [a1 + 0xfffffffffffff850] = a0\n 10730: a0 = u64 [s1 + 0xd8]\n 10734: a1 = s1 + 0x1000\n 10738: u64 [a1 + 0xfffffffffffff848] = a0\n 10742: a1 = s1 + 0x7ff\n 10746: a1 = a1 + 0x41\n 10749: a0 = u64 [s1 + 0xe0]\n 10753: a2 = s1 + 0x1000\n 10757: u64 [a2 + 0xfffffffffffff840] = a0\n 10761: a0 = 0\n 10763: ra = 318, jump @9\n      : @343 [@dyn 159] (gas: 12)\n 10769: a0 = s1 + 0x1000\n 10773: u64 [a0 + 4294965304] = 0\n 10777: a0 = s1 + 0x1000\n 10781: u64 [a0 + 4294965296] = 0\n 10785: a1 = s1 + 0x1000\n 10789: u64 [a1 + 4294965280] = 0x3\n 10794: a0 = 0x20\n 10797: a1 = s1 + 0x7ff\n 10801: a1 = a1 + 0x21\n 10804: a2 = s1 + 0x1000\n 10808: u64 [a2 + 4294965288] = 0\n 10812: ra = 320, jump @9\n      : @344 [@dyn 160] (gas: 3)\n 10818: a1 = 0x40\n 10821: a0 = 0\n 10823: ra = 322, jump @16\n      : @345 [@dyn 161] (gas: 1)\n 10829: t0 = 324, jump @664\n      : @346 [@dyn 162] (gas: 4)\n 10835: ra = 0x146\n 10839: ecalli 9 // 'hash_keccak_256'\n 10841: t0 = 0x148\n 10845: jump @652\n      : @347 [@dyn 163] (gas: 1)\n 10848: t0 = 328, jump @652\n      : @348 [@dyn 164] (gas: 8)\n 10854: a5 = a4 + 0x400\n 10858: u64 [a5 + 0x80] = a3\n 10862: u64 [a5 + 0x78] = a2\n 10865: u64 [a5 + 0x70] = a1\n 10868: u64 [a5 + 0x68] = a0\n 10871: a0 = s1 + 0x1560\n 10875: a1 = u64 [s1 + 0xe8]\n 10879: ra = 330, jump @12\n      : @349 [@dyn 165] (gas: 10)\n 10885: a0 = u64 [s1 + 0xa0]\n 10889: a1 = u64 [s1 + 0x80]\n 10893: u64 [a0 + 0x8] = a1\n 10896: a1 = u64 [s1 + 0x90]\n 10900: u64 [a0] = a1\n 10902: a1 = u64 [s1 + 0x88]\n 10906: u32 [a0 + 0x10] = a1\n 10909: a0 = u64 [s1 + 0x168]\n 10913: ecalli 5 // 'code_size'\n 10915: fallthrough\n      : @350 (gas: 1)\n 10916: jump @447 if a0 == 0\n      : @351 (gas: 4)\n 10920: a0 = s1 + 0x7ff\n 10924: a0 = a0 + 0x1\n 10927: a1 = 0x40\n 10930: ra = 332, jump @7\n      : @352 [@dyn 166] (gas: 21)\n 10936: a0 = s1 + 0x1000\n 10940: a0 = u64 [a0 + 0xfffffffffffff818]\n 10944: a1 = s1 + 0x1000\n 10948: a2 = u64 [a1 + 0xfffffffffffff810]\n 10952: a1 = s1 + 0x1000\n 10956: a1 = u64 [a1 + 0xfffffffffffff808]\n 10960: a3 = s1 + 0x1000\n 10964: a3 = u64 [a3 + 0xfffffffffffff800]\n 10968: a4 = s1 + 0x100\n 10972: u64 [a4 + 0x70] = a0\n 10975: u64 [a4 + 0x58] = a1\n 10978: a0 = a0 | a1\n 10981: u64 [a4 + 0x78] = a3\n 10984: a1 = a3 | a2\n 10987: a1 = a1 | a0\n 10990: a1 = a1 >> 0x20\n 10993: u64 [a4 + 0x60] = a2\n 10996: a0 = a0 | a2\n 10999: a0 = a0 << 0x20\n 11002: a0 = a0 | a1\n 11005: jump @354 if a0 == 0\n      : @353 (gas: 1)\n 11008: jump @187\n      : @354 (gas: 8)\n 11011: u64 [s1 + 2032] = 0\n 11015: u64 [s1 + 2024] = 0\n 11019: u64 [s1 + 2016] = 0\n 11023: a0 = 0x5aa5a48800000000\n 11033: a1 = s1 + 0x7e0\n 11037: u64 [s1 + 0x7f8] = a0\n 11041: a0 = u64 [s1 + 0x178]\n 11045: ra = 334, jump @9\n      : @355 [@dyn 167] (gas: 11)\n 11051: a3 = s1 + 0x100\n 11055: a0 = u64 [a3 + 0x70]\n 11058: a1 = u64 [a3 + 0x60]\n 11061: a0 = a0 | a1\n 11064: a1 = 0xfffffffc\n 11074: a2 = u64 [a3 + 0x78]\n 11077: a1 = a2 <u a1\n 11080: a2 = u64 [a3 + 0x58]\n 11083: a1 = 0 if a2 != 0\n 11085: a1 = 0 if a0 != 0\n 11087: jump @357 if a1 != 0\n      : @356 (gas: 1)\n 11090: jump @187\n      : @357 (gas: 13)\n 11093: a0 = u64 [s1 + 0x178]\n 11097: i32 a0 = a0 + 0x4\n 11100: a1 = u64 [s1 + 0xe0]\n 11104: a3 = s1 + 0x700\n 11108: u64 [a3 + 0xc0] = a1\n 11112: a1 = u64 [s1 + 0xd8]\n 11116: u64 [a3 + 0xc8] = a1\n 11120: a1 = u64 [s1 + 0xd0]\n 11124: u64 [a3 + 0xd0] = a1\n 11128: a1 = s1 + 0x7c0\n 11132: a2 = u64 [s1 + 0xc8]\n 11136: u64 [a3 + 0xd8] = a2\n 11140: ra = 336, jump @9\n      : @358 [@dyn 168] (gas: 4)\n 11146: ra = 0x152\n 11150: ecalli 10 // 'ref_time_left'\n 11152: t0 = 0x154\n 11156: jump @651\n      : @359 [@dyn 169] (gas: 1)\n 11159: t0 = 340, jump @651\n      : @360 [@dyn 170] (gas: 7)\n 11165: u64 [a0 + 1184] = 0\n 11169: u64 [a0 + 1176] = 0\n 11173: u64 [a0 + 1168] = 0\n 11177: u64 [a0 + 1160] = 0\n 11181: a1 = 0x24\n 11184: a0 = u64 [s1 + 0x178]\n 11188: ra = 342, jump @16\n      : @361 [@dyn 171] (gas: 4)\n 11194: u64 [s1 + 0x148] = a0\n 11198: a0 = u64 [s1 + 0x178]\n 11202: a1 = 0\n 11204: ra = 344, jump @16\n      : @362 [@dyn 172] (gas: 28)\n 11210: a2 = s1 + 0x10f8\n 11214: u32 [a2 + 1192] = 0\n 11218: a3 = a2 + 0x400\n 11222: u64 [a3 + 224] = 0xffffffffffffffff\n 11227: u64 [a3 + 216] = 0xffffffffffffffff\n 11232: u64 [a3 + 208] = 0xffffffffffffffff\n 11237: u64 [a3 + 200] = 0xffffffffffffffff\n 11242: a1 = s1 + 0x1580\n 11246: a1 = a1 << 0x20\n 11249: a1 = a1 >> 0x20\n 11252: a2 = s1 + 0x15c0\n 11256: a2 = a2 << 0x20\n 11259: a3 = a2 | a1\n 11262: a1 = u64 [s1 + 0x148]\n 11266: a1 = a1 << 0x20\n 11269: a1 = a1 >> 0x20\n 11272: a4 = u64 [s1 + 0x98]\n 11276: a4 = a4 | a1\n 11279: a0 = a0 << 0x20\n 11282: a0 = a0 >> 0x20\n 11285: a1 = s1 + 0x15a0\n 11289: a1 = a1 << 0x20\n 11292: a5 = a1 | a0\n 11295: a1 = 0xffffffffffffffff\n 11298: a2 = 0xffffffffffffffff\n 11301: a0 = u64 [s1 + 0x150]\n 11305: ecalli 0 // 'call'\n 11306: fallthrough\n      : @363 (gas: 1)\n 11307: jump @426 if a0 != 0\n      : @364 (gas: 15)\n 11311: u64 [s1 + 1912] = 0\n 11315: u64 [s1 + 1904] = 0\n 11319: u64 [s1 + 1896] = 0\n 11323: u64 [s1 + 1888] = 0\n 11327: a0 = u64 [s1 + 0x178]\n 11331: u64 [s1 + 0x780] = a0\n 11335: a0 = u64 [s1 + 0x158]\n 11339: u64 [s1 + 0x788] = a0\n 11343: a0 = u64 [s1 + 0x160]\n 11347: u64 [s1 + 0x790] = a0\n 11351: a0 = s1 + 0x780\n 11355: a1 = s1 + 0x760\n 11359: a2 = u64 [s1 + 0x170]\n 11363: u64 [s1 + 0x798] = a2\n 11367: ra = 346, jump @535\n      : @365 [@dyn 173] (gas: 3)\n 11373: a0 = s1 + 0x740\n 11377: a1 = 0x40\n 11380: ra = 348, jump @7\n      : @366 [@dyn 174] (gas: 13)\n 11386: a1 = s1 + 0x700\n 11390: a0 = u64 [a1 + 0x58]\n 11393: u64 [s1 + 0x170] = a0\n 11397: a0 = u64 [a1 + 0x50]\n 11400: u64 [s1 + 0x160] = a0\n 11404: a0 = u64 [a1 + 0x48]\n 11407: u64 [s1 + 0x158] = a0\n 11411: a0 = u64 [a1 + 0x40]\n 11414: u64 [s1 + 0x178] = a0\n 11418: a0 = u64 [s1 + 0x168]\n 11422: ra = 0x15e\n 11426: ecalli 4 // 'caller'\n 11428: fallthrough\n      : @367 [@dyn 175] (gas: 14)\n 11429: a3 = s1 + 0x100\n 11433: a0 = u64 [a3 + 0x70]\n 11436: a1 = u64 [a3 + 0x58]\n 11439: a0 = a0 | a1\n 11442: a1 = u64 [a3 + 0x78]\n 11445: a4 = a1\n 11447: a2 = u64 [a3 + 0x60]\n 11450: a1 = a1 | a2\n 11453: a1 = a1 | a0\n 11456: a1 = a1 >> 0x20\n 11459: a0 = a0 | a2\n 11462: a0 = a0 << 0x20\n 11465: a0 = a0 | a1\n 11468: jump @369 if a0 == 0\n      : @368 (gas: 1)\n 11471: jump @187\n      : @369 (gas: 5)\n 11474: a2 = u64 [s1 + 0xa0]\n 11478: a0 = u64 [a2 + 0x8]\n 11481: a1 = i32 [a2 + 0x10]\n 11484: a2 = u64 [a2]\n 11486: t0 = 352, jump @649\n      : @370 [@dyn 176] (gas: 7)\n 11492: u64 [s1 + 1848] = 0\n 11496: u64 [s1 + 0x730] = a1\n 11500: u64 [s1 + 0x728] = a0\n 11504: a1 = s1 + 0x720\n 11508: u64 [s1 + 0x720] = a3\n 11512: a0 = a4\n 11514: ra = 354, jump @9\n      : @371 [@dyn 177] (gas: 28)\n 11520: a3 = u64 [s1 + 0xc8]\n 11524: u64 [s1 + 0x6d8] = a3\n 11528: a2 = u64 [s1 + 0xd0]\n 11532: u64 [s1 + 0x6d0] = a2\n 11536: a1 = u64 [s1 + 0xd8]\n 11540: u64 [s1 + 0x6c8] = a1\n 11544: a0 = u64 [s1 + 0xe0]\n 11548: u64 [s1 + 0x6c0] = a0\n 11552: a4 = a0\n 11554: u64 [s1 + 0x6f8] = a3\n 11558: u64 [s1 + 0x6f0] = a2\n 11562: u64 [s1 + 0x6e8] = a1\n 11566: a0 = u64 [0x20068]\n 11571: a1 = u64 [0x20070]\n 11576: a2 = u64 [0x20078]\n 11581: u64 [s1 + 0x6e0] = a4\n 11585: a5 = s1 + 0x700\n 11589: u64 [a5 + 0x18] = a0\n 11592: u64 [a5 + 0x10] = a1\n 11595: u64 [a5 + 0x8] = a2\n 11598: a0 = u64 [0x20080]\n 11603: a1 = 0x20\n 11606: a2 = s1 + 0x700\n 11610: a3 = s1 + 0x6e0\n 11614: a4 = s1 + 0x6c0\n 11618: u64 [a5] = a0\n 11620: a0 = u64 [s1 + 0x178]\n 11624: ra = 356, jump @13\n      : @372 [@dyn 178] (gas: 4)\n 11630: a0 = u64 [s1 + 0x168]\n 11634: ra = 0x166\n 11638: ecalli 4 // 'caller'\n 11640: fallthrough\n      : @373 [@dyn 179] (gas: 5)\n 11641: a2 = u64 [s1 + 0xa0]\n 11645: a0 = u64 [a2 + 0x8]\n 11648: a1 = i32 [a2 + 0x10]\n 11651: a2 = u64 [a2]\n 11653: t0 = 360, jump @649\n      : @374 [@dyn 180] (gas: 17)\n 11659: a2 = u64 [s1 + 0xc8]\n 11663: a4 = s1 + 0x600\n 11667: u64 [a4 + 0x78] = a2\n 11670: a2 = u64 [s1 + 0xd0]\n 11674: u64 [a4 + 0x70] = a2\n 11677: a2 = u64 [s1 + 0xd8]\n 11681: u64 [a4 + 0x68] = a2\n 11684: a2 = u64 [s1 + 0xe0]\n 11688: u64 [a4 + 0x60] = a2\n 11691: u64 [s1 + 1688] = 0\n 11695: u64 [a4 + 0x90] = a1\n 11699: u64 [a4 + 0x88] = a0\n 11703: a0 = s1 + 0x6a0\n 11707: a1 = s1 + 0x680\n 11711: a2 = s1 + 0x660\n 11715: u64 [a4 + 0x80] = a3\n 11719: ra = 362, jump @572\n      : @375 [@dyn 181] (gas: 12)\n 11725: a1 = s1 + 0x10f8\n 11729: u64 [a1 + 1312] = 0\n 11733: u64 [a1 + 1304] = 0\n 11737: u64 [a1 + 1296] = 0\n 11741: u64 [a1 + 1288] = 0x1\n 11746: u64 [a1 + 1344] = 0\n 11750: u64 [a1 + 1336] = 0\n 11754: u64 [a1 + 1328] = 0\n 11758: u64 [a1 + 1320] = 0x1\n 11763: a0 = s1 + 0x1600\n 11767: a1 = s1 + 0x1620\n 11771: ra = 364, jump @12\n      : @376 [@dyn 182] (gas: 1)\n 11777: jump @481\n      : @377 (gas: 4)\n 11780: a0 = s1 + 0x7ff\n 11784: a0 = a0 + 0x1c1\n 11788: a1 = 0x40\n 11791: ra = 366, jump @7\n      : @378 [@dyn 183] (gas: 7)\n 11797: a0 = s1 + 0x7ff\n 11801: a0 = a0 + 0xf9\n 11805: a3 = u64 [a0 + 0xe0]\n 11809: a4 = u64 [a0 + 0xd8]\n 11813: a2 = u64 [a0 + 0xd0]\n 11817: a1 = u64 [a0 + 0xc8]\n 11821: t0 = 368, jump @657\n      : @379 [@dyn 184] (gas: 1)\n 11827: jump @381 if a0 == 0\n      : @380 (gas: 1)\n 11830: jump @187\n      : @381 (gas: 9)\n 11833: a2 = s1 + 0x7ff\n 11837: a2 = a2 + 0xf9\n 11841: u64 [a2 + 184] = 0\n 11845: u64 [a2 + 176] = 0\n 11849: u64 [a2 + 168] = 0\n 11853: t0 = 0x172\n 11857: a0 = 0x8c379a000000000\n 11867: a1 = s1 + 0x7ff\n 11871: fallthrough\n      : @382 [@dyn 185] (gas: 4)\n 11872: a1 = a1 + 0x1a1\n 11876: u64 [a2 + 0xc0] = a0\n 11880: a0 = u64 [s1 + 0x178]\n 11884: ra = 372, jump @9\n      : @383 [@dyn 186] (gas: 1)\n 11890: t0 = 374, jump @645\n      : @384 [@dyn 187] (gas: 1)\n 11896: jump @386 if a0 != 0\n      : @385 (gas: 1)\n 11899: jump @187\n      : @386 (gas: 1)\n 11902: t0 = 376, jump @668\n      : @387 [@dyn 188] (gas: 7)\n 11908: u64 [a2 + 160] = 0\n 11912: u64 [a2 + 152] = 0\n 11916: u64 [a2 + 136] = 0x20\n 11921: a1 = s1 + 0x7ff\n 11925: a1 = a1 + 0x181\n 11929: u64 [a2 + 144] = 0\n 11933: ra = 378, jump @9\n      : @388 [@dyn 189] (gas: 4)\n 11939: a2 = s1 + 0x100\n 11943: a0 = u64 [a2 + 0x60]\n 11946: a0 = a0 + 0xffffffffffffffdc\n 11949: t0 = 380, jump @647\n      : @389 [@dyn 190] (gas: 1)\n 11955: jump @391 if a0 != 0\n      : @390 (gas: 1)\n 11958: jump @187\n      : @391 (gas: 1)\n 11961: t0 = 382, jump @661\n      : @392 [@dyn 191] (gas: 7)\n 11967: u64 [a2 + 128] = 0\n 11971: u64 [a2 + 120] = 0\n 11974: u64 [a2 + 104] = 0x14\n 11978: a1 = s1 + 0x7ff\n 11982: a1 = a1 + 0x161\n 11986: u64 [a2 + 112] = 0\n 11989: ra = 384, jump @9\n      : @393 [@dyn 192] (gas: 3)\n 11995: a0 = 0xffffffbc\n 12005: a2 = s1 + 0x100\n 12009: t0 = 386, jump @647\n      : @394 [@dyn 193] (gas: 1)\n 12015: jump @396 if a0 != 0\n      : @395 (gas: 1)\n 12018: jump @187\n      : @396 (gas: 15)\n 12021: a0 = u64 [s1 + 0x178]\n 12025: i32 a0 = a0 + 0x44\n 12028: a1 = u64 [0x20058]\n 12033: a2 = u64 [0x20060]\n 12038: a3 = s1 + 0x7ff\n 12042: a3 = a3 + 0xf9\n 12046: u64 [a3 + 0x60] = a1\n 12049: u64 [a3 + 0x58] = a2\n 12052: a1 = 0x6661696c00000000\n 12062: u64 [a3 + 0x50] = a1\n 12065: a1 = s1 + 0x7ff\n 12069: a1 = a1 + 0x141\n 12073: u64 [a3 + 72] = 0\n 12076: ra = 0xb2\n 12080: jump @9\n      : @397 (gas: 4)\n 12083: a0 = s1 + 0x7ff\n 12087: a0 = a0 + 0x2a1\n 12091: a1 = 0x40\n 12094: ra = 388, jump @7\n      : @398 [@dyn 194] (gas: 8)\n 12100: a0 = s1 + 0x7ff\n 12104: a0 = a0 + 0xf9\n 12108: a5 = a0 + 0x100\n 12112: a3 = u64 [a5 + 0xc0]\n 12116: a4 = u64 [a5 + 0xb8]\n 12120: a2 = u64 [a5 + 0xb0]\n 12124: a1 = u64 [a5 + 0xa8]\n 12128: t0 = 390, jump @657\n      : @399 [@dyn 195] (gas: 1)\n 12134: jump @401 if a0 == 0\n      : @400 (gas: 1)\n 12137: jump @187\n      : @401 (gas: 9)\n 12140: a2 = s1 + 0x7ff\n 12144: a2 = a2 + 0xf9\n 12148: u64 [a2 + 408] = 0\n 12152: u64 [a2 + 400] = 0\n 12156: u64 [a2 + 392] = 0\n 12160: t0 = 0x188\n 12164: a0 = 0x8c379a000000000\n 12174: a1 = s1 + 0x7ff\n 12178: fallthrough\n      : @402 [@dyn 196] (gas: 4)\n 12179: a1 = a1 + 0x281\n 12183: u64 [a2 + 0x1a0] = a0\n 12187: a0 = u64 [s1 + 0x178]\n 12191: ra = 394, jump @9\n      : @403 [@dyn 197] (gas: 1)\n 12197: t0 = 396, jump @645\n      : @404 [@dyn 198] (gas: 1)\n 12203: jump @406 if a0 != 0\n      : @405 (gas: 1)\n 12206: jump @187\n      : @406 (gas: 1)\n 12209: t0 = 398, jump @668\n      : @407 [@dyn 199] (gas: 7)\n 12215: u64 [a2 + 384] = 0\n 12219: u64 [a2 + 376] = 0\n 12223: u64 [a2 + 360] = 0x20\n 12228: a1 = s1 + 0x7ff\n 12232: a1 = a1 + 0x261\n 12236: u64 [a2 + 368] = 0\n 12240: ra = 400, jump @9\n      : @408 [@dyn 200] (gas: 4)\n 12246: a2 = s1 + 0x100\n 12250: a0 = u64 [a2 + 0x60]\n 12253: a0 = a0 + 0xffffffffffffffdc\n 12256: t0 = 402, jump @647\n      : @409 [@dyn 201] (gas: 1)\n 12262: jump @411 if a0 != 0\n      : @410 (gas: 1)\n 12265: jump @187\n      : @411 (gas: 1)\n 12268: t0 = 404, jump @661\n      : @412 [@dyn 202] (gas: 7)\n 12274: u64 [a2 + 352] = 0\n 12278: u64 [a2 + 344] = 0\n 12282: u64 [a2 + 328] = 0x11\n 12287: a1 = s1 + 0x7ff\n 12291: a1 = a1 + 0x241\n 12295: u64 [a2 + 336] = 0\n 12299: ra = 406, jump @9\n      : @413 [@dyn 203] (gas: 3)\n 12305: a0 = 0xffffffbc\n 12315: a2 = s1 + 0x100\n 12319: t0 = 408, jump @647\n      : @414 [@dyn 204] (gas: 1)\n 12325: jump @416 if a0 != 0\n      : @415 (gas: 1)\n 12328: jump @187\n      : @416 (gas: 16)\n 12331: a0 = u64 [s1 + 0x178]\n 12335: i32 a0 = a0 + 0x44\n 12338: a1 = u64 [0x20048]\n 12343: a2 = u64 [0x20050]\n 12348: a3 = s1 + 0x7ff\n 12352: a3 = a3 + 0xf9\n 12356: a4 = a3 + 0x100\n 12360: u64 [a4 + 0x40] = a1\n 12363: u64 [a4 + 0x38] = a2\n 12366: a1 = 0x6c00000000000000\n 12376: u64 [a4 + 0x30] = a1\n 12379: a1 = s1 + 0x7ff\n 12383: a1 = a1 + 0x221\n 12387: u64 [a3 + 296] = 0\n 12391: ra = 0xb2\n 12395: jump @9\n      : @417 (gas: 4)\n 12398: a0 = s1 + 0x7ff\n 12402: a0 = a0 + 0xa1\n 12406: a1 = 0x40\n 12409: ra = 410, jump @7\n      : @418 [@dyn 205] (gas: 16)\n 12415: a0 = s1 + 0x1000\n 12419: a0 = u64 [a0 + 0xfffffffffffff8b8]\n 12423: u64 [s1 + 0x170] = a0\n 12427: a0 = s1 + 0x1000\n 12431: a0 = u64 [a0 + 0xfffffffffffff8b0]\n 12435: u64 [s1 + 0x168] = a0\n 12439: a0 = s1 + 0x1000\n 12443: a0 = u64 [a0 + 0xfffffffffffff8a8]\n 12447: u64 [s1 + 0x160] = a0\n 12451: a0 = s1 + 0x1000\n 12455: a0 = u64 [a0 + 0xfffffffffffff8a0]\n 12459: u64 [s1 + 0x178] = a0\n 12463: ra = 0x19c\n 12467: ecalli 12 // 'return_data_size'\n 12469: t0 = 0x19e\n 12473: jump @646\n      : @419 [@dyn 206] (gas: 1)\n 12476: t0 = 414, jump @646\n      : @420 [@dyn 207] (gas: 1)\n 12482: jump @422 if a1 == 0\n      : @421 (gas: 1)\n 12485: jump @187\n      : @422 (gas: 2)\n 12488: a1 = a0 >> 0x20\n 12491: jump @424 if a1 == 0\n      : @423 (gas: 1)\n 12494: jump @187\n      : @424 (gas: 6)\n 12497: a1 = a0\n 12499: u64 [s1 + 0x168] = a0\n 12503: i32 a0 = a0 + 0\n 12505: u64 [s1 + 0x170] = a0\n 12509: a0 = u64 [s1 + 0x178]\n 12513: ra = 416, jump @16\n      : @425 [@dyn 208] (gas: 11)\n 12519: a1 = s1 + 0x10f8\n 12523: a2 = u64 [s1 + 0x168]\n 12527: u32 [a1 + 0x448] = a2\n 12531: i32 a0 = a0 + 0\n 12533: a1 = s1 + 0x1000\n 12537: i32 a1 = a1 + 0x540\n 12541: a2 = 0\n 12543: ecalli 11 // 'return_data_copy'\n 12545: a0 = s1 + 0x10f8\n 12549: a0 = i32 [a0 + 0x448]\n 12553: jump @242\n      : @426 (gas: 3)\n 12556: a0 = s1 + 0x7a0\n 12560: a1 = 0x40\n 12563: ra = 418, jump @7\n      : @427 [@dyn 209] (gas: 13)\n 12569: a1 = s1 + 0x700\n 12573: a0 = u64 [a1 + 0xb8]\n 12577: u64 [s1 + 0x170] = a0\n 12581: a0 = u64 [a1 + 0xb0]\n 12585: u64 [s1 + 0x168] = a0\n 12589: a0 = u64 [a1 + 0xa8]\n 12593: u64 [s1 + 0x160] = a0\n 12597: a0 = u64 [a1 + 0xa0]\n 12601: u64 [s1 + 0x178] = a0\n 12605: ra = 0x1a4\n 12609: ecalli 12 // 'return_data_size'\n 12611: t0 = 0x1a6\n 12615: jump @646\n      : @428 [@dyn 210] (gas: 1)\n 12618: t0 = 422, jump @646\n      : @429 [@dyn 211] (gas: 1)\n 12624: jump @431 if a1 == 0\n      : @430 (gas: 1)\n 12627: jump @187\n      : @431 (gas: 2)\n 12630: a1 = a0 >> 0x20\n 12633: jump @433 if a1 == 0\n      : @432 (gas: 1)\n 12636: jump @187\n      : @433 (gas: 6)\n 12639: a1 = a0\n 12641: u64 [s1 + 0x168] = a0\n 12645: i32 a0 = a0 + 0\n 12647: u64 [s1 + 0x170] = a0\n 12651: a0 = u64 [s1 + 0x178]\n 12655: ra = 424, jump @16\n      : @434 [@dyn 212] (gas: 11)\n 12661: a1 = s1 + 0x10f8\n 12665: a2 = u64 [s1 + 0x168]\n 12669: u32 [a1 + 0x4e8] = a2\n 12673: i32 a0 = a0 + 0\n 12675: a1 = s1 + 0x1000\n 12679: i32 a1 = a1 + 0x5e0\n 12683: a2 = 0\n 12685: ecalli 11 // 'return_data_copy'\n 12687: a0 = s1 + 0x10f8\n 12691: a0 = i32 [a0 + 0x4e8]\n 12695: jump @242\n      : @435 (gas: 3)\n 12698: a1 = 0x200e0\n 12703: i32 a1 = a1 + 0\n 12705: jump @472\n      : @436 (gas: 3)\n 12708: a1 = 0x200e0\n 12713: i32 a1 = a1 + 0\n 12715: jump @472\n      : @437 (gas: 3)\n 12718: a1 = 0x200e0\n 12723: i32 a1 = a1 + 0\n 12725: jump @472\n      : @438 (gas: 3)\n 12728: a1 = 0x200e0\n 12733: i32 a1 = a1 + 0\n 12735: jump @472\n      : @439 (gas: 3)\n 12738: a1 = 0x200e0\n 12743: i32 a1 = a1 + 0\n 12745: jump @472\n      : @440 (gas: 3)\n 12748: a1 = 0x200e0\n 12753: i32 a1 = a1 + 0\n 12755: jump @472\n      : @441 (gas: 1)\n 12758: jump @461 if a0 != 4076725131\n      : @442 (gas: 11)\n 12766: a0 = s1 + 0x10f8\n 12770: u64 [a0 + 1472] = 0\n 12774: u64 [a0 + 1464] = 0\n 12778: u64 [a0 + 1456] = 0\n 12782: u64 [a0 + 1448] = 0\n 12786: a0 = s1 + 0x1000\n 12790: i32 a0 = a0 + 0x6a0\n 12794: ra = 0x1aa\n 12798: ecalli 16 // 'value_transferred'\n 12800: t0 = 0x1ac\n 12804: jump @665\n      : @443 [@dyn 213] (gas: 1)\n 12807: t0 = 428, jump @665\n      : @444 [@dyn 214] (gas: 8)\n 12813: a0 = u64 [a4 + 0xb8]\n 12817: a1 = u64 [a4 + 0xc0]\n 12821: a2 = u64 [a4 + 0xb0]\n 12825: a3 = u64 [a4 + 0xa8]\n 12829: a1 = a1 | a2\n 12832: a0 = a0 | a3\n 12835: a0 = a0 | a1\n 12838: jump @446 if a0 != 0\n      : @445 (gas: 3)\n 12841: a0 = u64 [s1 + 0x178]\n 12845: a0 = i32 [a0]\n 12847: jump @475 if a0 >u 35\n      : @446 (gas: 4)\n 12852: a0 = 0\n 12854: a1 = 0\n 12856: ra = 0x1ae\n 12860: jump @16\n      : @447 (gas: 2)\n 12863: a1 = 0\n 12865: ra = 430, jump @16\n      : @448 [@dyn 215] (gas: 3)\n 12871: i32 a1 = a0 + 0\n 12873: a0 = 0x1\n 12876: jump @473\n      : @449 (gas: 3)\n 12879: a1 = 0x200e0\n 12884: i32 a1 = a1 + 0\n 12886: jump @472\n      : @450 (gas: 3)\n 12889: a1 = 0x200e0\n 12894: i32 a1 = a1 + 0\n 12896: jump @472\n      : @451 (gas: 3)\n 12899: a1 = 0x200e0\n 12904: i32 a1 = a1 + 0\n 12906: jump @472\n      : @452 (gas: 8)\n 12909: u64 [s1 + 1264] = 0\n 12913: u64 [s1 + 1256] = 0\n 12917: u64 [s1 + 1248] = 0\n 12921: a0 = 0x3ee5aeb500000000\n 12931: a1 = s1 + 0x4e0\n 12935: u64 [s1 + 0x4f8] = a0\n 12939: a0 = 0\n 12941: ra = 432, jump @9\n      : @453 [@dyn 216] (gas: 2)\n 12947: a1 = i32 [0x200d0]\n 12952: jump @455 if a1 >u 31\n      : @454 (gas: 2)\n 12956: u32 [0x200d0] = 0x20\n 12962: fallthrough\n      : @455 (gas: 8)\n 12963: a1 = 0x200e0\n 12968: i32 a1 = a1 + 0\n 12970: a0 = 0x1\n 12973: a2 = 0x4\n 12976: ecalli 13 // 'seal_return'\n 12978: a1 = 0x200e0\n 12983: i32 a1 = a1 + 0\n 12985: jump @472\n      : @456 (gas: 3)\n 12988: a1 = 0x200e0\n 12993: i32 a1 = a1 + 0\n 12995: jump @472\n      : @457 (gas: 3)\n 12998: a1 = 0x200e0\n 13003: i32 a1 = a1 + 0\n 13005: jump @472\n      : @458 (gas: 14)\n 13008: a3 = s1 + 0x100\n 13012: a1 = u64 [a3 + 0x68]\n 13015: a1 = a1 << 0x20\n 13018: a2 = a1 >> 0x20\n 13021: u64 [s1 + 1176] = 0\n 13025: a1 = u64 [a3 + 0x70]\n 13028: a4 = s1 + 0x400\n 13032: u64 [a4 + 0x80] = a1\n 13036: a1 = u64 [a3 + 0x78]\n 13039: u64 [a4 + 0x88] = a1\n 13043: a1 = s1 + 0x480\n 13047: u64 [a4 + 0x90] = a2\n 13051: u64 [s1 + 0x178] = a0\n 13055: ra = 434, jump @9\n      : @459 [@dyn 217] (gas: 3)\n 13061: a1 = 0x20\n 13064: a0 = u64 [s1 + 0x178]\n 13068: ra = 436, jump @16\n      : @460 [@dyn 218] (gas: 5)\n 13074: i32 a1 = a0 + 0\n 13076: a2 = 0x20\n 13079: a0 = 0\n 13081: ecalli 13 // 'seal_return'\n 13083: fallthrough\n      : @461 (gas: 1)\n 13084: jump @465 if a0 != 155770457\n      : @462 (gas: 10)\n 13091: a0 = s1 + 0x7ff\n 13095: a0 = a0 + 0xf9\n 13099: u64 [a0 + 1888] = 0\n 13103: u64 [a0 + 1880] = 0\n 13107: u64 [a0 + 1872] = 0\n 13111: u64 [a0 + 1864] = 0\n 13115: a0 = s1 + 0x1000\n 13119: i32 a0 = a0 + 0x40\n 13122: ecalli 16 // 'value_transferred'\n 13124: fallthrough\n      : @463 (gas: 11)\n 13125: a3 = s1 + 0x7ff\n 13129: a3 = a3 + 0xf9\n 13133: a4 = a3 + 0x700\n 13137: a0 = u64 [a4 + 0x58]\n 13140: a1 = u64 [a4 + 0x60]\n 13143: a2 = u64 [a4 + 0x50]\n 13146: a3 = u64 [a4 + 0x48]\n 13149: a1 = a1 | a2\n 13152: a0 = a0 | a3\n 13155: a0 = a0 | a1\n 13158: jump @483 if a0 == 0\n      : @464 (gas: 3)\n 13162: a1 = 0x200e0\n 13167: i32 a1 = a1 + 0\n 13169: jump @472\n      : @465 (gas: 1)\n 13171: jump @469 if a0 != 1901074598\n      : @466 (gas: 9)\n 13178: a0 = s1 + 0x10f8\n 13182: u64 [a0 + 128] = 0\n 13186: u64 [a0 + 120] = 0\n 13189: u64 [a0 + 112] = 0\n 13192: u64 [a0 + 104] = 0\n 13195: a0 = s1 + 0x1000\n 13199: i32 a0 = a0 + 0x160\n 13203: ecalli 16 // 'value_transferred'\n 13205: fallthrough\n      : @467 (gas: 9)\n 13206: a3 = s1 + 0x10f8\n 13210: a0 = u64 [a3 + 0x78]\n 13213: a1 = u64 [a3 + 0x80]\n 13217: a2 = u64 [a3 + 0x70]\n 13220: a3 = u64 [a3 + 0x68]\n 13223: a1 = a1 | a2\n 13226: a0 = a0 | a3\n 13229: a0 = a0 | a1\n 13232: jump @485 if a0 == 0\n      : @468 (gas: 3)\n 13236: a1 = 0x200e0\n 13241: i32 a1 = a1 + 0\n 13243: jump @472\n      : @469 (gas: 3)\n 13245: a0 = u64 [s1 + 0x178]\n 13249: a0 = i32 [a0]\n 13251: fallthrough\n      : @470 (gas: 1)\n 13252: jump @474 if a0 == 0\n      : @471 (gas: 3)\n 13255: a1 = 0x200e0\n 13260: i32 a1 = a1 + 0\n 13262: fallthrough\n      : @472 (gas: 7)\n 13263: a0 = 0x1\n 13266: a2 = 0\n 13268: ecalli 13 // 'seal_return'\n 13270: a1 = 0x200e0\n 13275: i32 a1 = a1 + 0\n 13277: a0 = 0\n 13279: fallthrough\n      : @473 (gas: 6)\n 13280: a2 = 0\n 13282: ecalli 13 // 'seal_return'\n 13284: a1 = 0x200e0\n 13289: i32 a1 = a1 + 0\n 13291: a0 = 0\n 13293: jump @473\n      : @474 (gas: 4)\n 13295: a1 = 0x200e0\n 13300: i32 a1 = a1 + 0\n 13302: a0 = 0\n 13304: jump @473\n      : @475 (gas: 3)\n 13306: a0 = s1 + 0x7ff\n 13310: a0 = a0 + 0x7e1\n 13314: ra = 438, jump @521\n      : @476 [@dyn 219] (gas: 9)\n 13320: a0 = s1 + 0x7ff\n 13324: a0 = a0 + 0xf9\n 13328: a1 = u64 [a0 + 0x6f0]\n 13332: u64 [s1 + 0x170] = a1\n 13336: a1 = u64 [a0 + 0x6e8]\n 13340: u64 [s1 + 0x178] = a1\n 13344: a0 = u32 [a0 + 0x6f8]\n 13348: u64 [s1 + 0x168] = a0\n 13352: ra = 440, jump @560\n      : @477 [@dyn 220] (gas: 7)\n 13358: a2 = s1 + 0x100\n 13362: a0 = u64 [a2 + 0x78]\n 13365: a1 = u64 [a2 + 0x68]\n 13368: a0 = a0 | a1\n 13371: a1 = u64 [a2 + 0x70]\n 13374: a0 = a0 | a1\n 13377: jump @491 if a0 == 0\n      : @478 (gas: 6)\n 13381: a0 = 0xffffffff\n 13391: u64 [s1 + 0x160] = a0\n 13395: a0 = s1 + 0x7ff\n 13399: a0 = a0 + 0x7c1\n 13403: a1 = u64 [s1 + 0xe8]\n 13407: ra = 442, jump @11\n      : @479 [@dyn 221] (gas: 25)\n 13413: a0 = s1 + 0x7ff\n 13417: a0 = a0 + 0xf9\n 13421: a3 = a0 + 0x600\n 13425: a2 = u64 [a3 + 0xd8]\n 13429: u64 [s1 + 0x148] = a2\n 13433: a1 = u64 [a3 + 0xd0]\n 13437: u64 [s1 + 0x158] = a1\n 13441: a1 = u64 [a3 + 0xc8]\n 13445: u64 [s1 + 0x150] = a1\n 13449: a0 = u64 [a3 + 0xe0]\n 13453: a1 = a2 >> 0x20\n 13456: a1 = a1 << 0x20\n 13459: a2 = u64 [s1 + 0x168]\n 13463: a1 = a1 | a2\n 13466: a2 = s1 + 0x10f8\n 13470: a3 = u64 [s1 + 0x170]\n 13474: a4 = a2 + 0x500\n 13478: u64 [a4 + 0xd0] = a3\n 13482: a3 = u64 [s1 + 0x178]\n 13486: u64 [a4 + 0xc8] = a3\n 13490: u64 [a4 + 0xe0] = a0\n 13494: u64 [a4 + 0xd8] = a1\n 13498: a1 = s1 + 0x16c0\n 13502: a0 = u64 [s1 + 0xe8]\n 13506: ra = 444, jump @12\n      : @480 [@dyn 222] (gas: 40)\n 13512: a5 = s1 + 0x100\n 13516: a0 = u64 [a5 + 0x50]\n 13519: a0 = a0 & 0xffffffffffffffff\n 13522: a2 = u64 [a5 + 0x58]\n 13525: a1 = a2 & 0xffffffffffffffff\n 13528: a2 = u64 [a5 + 0x60]\n 13531: a3 = u64 [a5 + 0x48]\n 13534: a2 = a2 & a3\n 13537: a4 = s1 + 0x7ff\n 13541: a4 = a4 + 0xf9\n 13545: u64 [a4 + 1664] = 0\n 13549: a3 = u64 [a5 + 0x68]\n 13552: u64 [a4 + 0x678] = a3\n 13556: a3 = u64 [a5 + 0x70]\n 13559: u64 [a4 + 0x670] = a3\n 13563: a3 = u64 [a5 + 0x78]\n 13566: a5 = a4 + 0x600\n 13570: u64 [a5 + 0x68] = a3\n 13573: u64 [a4 + 1696] = 0\n 13577: u64 [a5 + 0x98] = a2\n 13581: u64 [a5 + 0x90] = a1\n 13585: a1 = u64 [0x20020]\n 13590: a2 = u64 [0x20028]\n 13595: a3 = u64 [0x20030]\n 13600: u64 [a5 + 0x88] = a0\n 13604: u64 [a5 + 0xc0] = a1\n 13608: u64 [a5 + 0xb8] = a2\n 13612: u64 [a5 + 0xb0] = a3\n 13616: a1 = a4\n 13618: a0 = u64 [0x20038]\n 13623: a2 = s1 + 0x7ff\n 13627: a2 = a2 + 0x7a1\n 13631: a3 = s1 + 0x7ff\n 13635: a3 = a3 + 0x781\n 13639: a4 = s1 + 0x7ff\n 13643: a4 = a4 + 0x761\n 13647: u64 [a1 + 0x6a8] = a0\n 13651: a0 = 0\n 13653: a1 = 0\n 13655: ra = 446, jump @13\n      : @481 [@dyn 223] (gas: 3)\n 13661: a0 = 0\n 13663: a1 = 0\n 13665: ra = 448, jump @16\n      : @482 [@dyn 224] (gas: 3)\n 13671: i32 a1 = a0 + 0\n 13673: a0 = 0\n 13675: jump @473\n      : @483 (gas: 3)\n 13678: a0 = u64 [s1 + 0x178]\n 13682: a0 = i32 [a0]\n 13684: jump @487 if a0 >u 67\n      : @484 (gas: 4)\n 13688: a1 = 0x200e0\n 13693: i32 a1 = a1 + 0\n 13695: a0 = 0x1\n 13698: jump @473\n      : @485 (gas: 3)\n 13701: a0 = u64 [s1 + 0x178]\n 13705: a0 = i32 [a0]\n 13707: jump @498 if a0 >u 3\n      : @486 (gas: 4)\n 13712: a1 = 0x200e0\n 13717: i32 a1 = a1 + 0\n 13719: a0 = 0x1\n 13722: jump @473\n      : @487 (gas: 2)\n 13725: a0 = s1 + 0x180\n 13729: ra = 450, jump @521\n      : @488 [@dyn 225] (gas: 11)\n 13735: a0 = u64 [s1 + 0x190]\n 13739: u64 [s1 + 0x168] = a0\n 13743: a0 = u64 [s1 + 0x188]\n 13747: u64 [s1 + 0x170] = a0\n 13751: a0 = u64 [s1 + 0x180]\n 13755: u64 [s1 + 0x178] = a0\n 13759: a0 = s1 + 0x1000\n 13763: i32 a0 = a0 + 0x60\n 13766: a1 = 0x24\n 13769: ecalli 2 // 'call_data_load'\n 13771: fallthrough\n      : @489 (gas: 12)\n 13772: a2 = s1 + 0x7ff\n 13776: a2 = a2 + 0xf9\n 13780: a3 = a2 + 0x700\n 13784: a0 = u64 [a3 + 0x80]\n 13788: a1 = u64 [a3 + 0x78]\n 13791: a2 = u64 [a3 + 0x70]\n 13794: a0 = a0 | a1\n 13797: u64 [s1 + 0x160] = a2\n 13801: a1 = a2 >> 0x20\n 13804: a1 = a1 <u 0x1\n 13807: a1 = 0 if a0 != 0\n 13809: jump @503 if a1 != 0\n      : @490 (gas: 4)\n 13813: a1 = 0x200e0\n 13818: i32 a1 = a1 + 0\n 13820: a0 = 0x1\n 13823: jump @473\n      : @491 (gas: 12)\n 13826: a0 = s1 + 0x7ff\n 13830: a0 = a0 + 0xf9\n 13834: u64 [a0 + 1624] = 0\n 13838: u64 [a0 + 1616] = 0\n 13842: u64 [a0 + 1608] = 0\n 13846: a2 = a0\n 13848: a0 = 0x1e4fbdf700000000\n 13858: a1 = s1 + 0x7ff\n 13862: a1 = a1 + 0x741\n 13866: u64 [a2 + 0x660] = a0\n 13870: a0 = 0\n 13872: ra = 452, jump @9\n      : @492 [@dyn 226] (gas: 11)\n 13878: a0 = s1 + 0x7ff\n 13882: a0 = a0 + 0xf9\n 13886: u64 [a0 + 1600] = 0\n 13890: u64 [a0 + 1592] = 0\n 13894: u64 [a0 + 1584] = 0\n 13898: a2 = a0\n 13900: a0 = 0x4\n 13903: a1 = s1 + 0x7ff\n 13907: a1 = a1 + 0x721\n 13911: u64 [a2 + 1576] = 0\n 13915: ra = 454, jump @9\n      : @493 [@dyn 227] (gas: 3)\n 13921: a1 = 0x24\n 13924: a0 = 0\n 13926: ra = 456, jump @16\n      : @494 [@dyn 228] (gas: 5)\n 13932: i32 a1 = a0 + 0\n 13934: a0 = 0x1\n 13937: a2 = 0x24\n 13940: ecalli 13 // 'seal_return'\n 13942: fallthrough\n      : @495 (gas: 6)\n 13943: a0 = 0x1\n 13946: a1 = u64 [s1 + 0xb0]\n 13950: ecalli 13 // 'seal_return'\n 13952: a0 = 0x1\n 13955: a1 = u64 [s1 + 0xb0]\n 13959: jump @473\n      : @496 (gas: 5)\n 13962: a1 = u64 [s1 + 0xb0]\n 13966: ecalli 13 // 'seal_return'\n 13968: a0 = 0x1\n 13971: a1 = u64 [s1 + 0xb0]\n 13975: jump @473\n      : @497 (gas: 3)\n 13978: a0 = 0x1\n 13981: a1 = u64 [s1 + 0xb0]\n 13985: jump @473\n      : @498 (gas: 1)\n 13988: ra = 458, jump @560\n      : @499 [@dyn 229] (gas: 8)\n 13994: a0 = s1 + 0x10f8\n 13998: u64 [a0 + 160] = 0\n 14002: u64 [a0 + 152] = 0\n 14006: u64 [a0 + 144] = 0\n 14010: u64 [a0 + 136] = 0\n 14014: a0 = s1 + 0x300\n 14018: a1 = s1 + 0x1180\n 14022: ra = 460, jump @11\n      : @500 [@dyn 230] (gas: 22)\n 14028: a2 = s1 + 0x300\n 14032: a1 = u64 [a2 + 0x10]\n 14035: u64 [s1 + 0x168] = a1\n 14039: a0 = u64 [a2]\n 14041: u64 [s1 + 0x178] = a0\n 14045: a0 = u64 [a2 + 0x8]\n 14048: u64 [s1 + 0x170] = a0\n 14052: a0 = u64 [a2 + 0x18]\n 14055: a1 = a1 >> 0x20\n 14058: a1 = a1 << 0x20\n 14061: a2 = s1 + 0x10f8\n 14065: u64 [a2 + 192] = 0\n 14069: u64 [a2 + 184] = 0\n 14073: u64 [a2 + 176] = 0\n 14077: u64 [a2 + 168] = 0\n 14081: u64 [a2 + 208] = 0\n 14085: u64 [a2 + 200] = 0\n 14089: u64 [a2 + 0xe0] = a0\n 14093: u64 [a2 + 0xd8] = a1\n 14097: a0 = s1 + 0x11a0\n 14101: a1 = s1 + 0x11c0\n 14105: ra = 462, jump @12\n      : @501 [@dyn 231] (gas: 29)\n 14111: a4 = s1 + 0x100\n 14115: a0 = u64 [a4 + 0x68]\n 14118: a0 = a0 << 0x20\n 14121: a0 = a0 >> 0x20\n 14124: u64 [s1 + 696] = 0\n 14128: u64 [s1 + 688] = 0\n 14132: u64 [s1 + 680] = 0\n 14136: u64 [s1 + 672] = 0\n 14140: u64 [s1 + 728] = 0\n 14144: a5 = s1 + 0x200\n 14148: u64 [a5 + 0xd0] = a0\n 14152: a0 = u64 [a4 + 0x70]\n 14155: u64 [a5 + 0xc8] = a0\n 14159: a0 = u64 [0x20020]\n 14164: a1 = u64 [0x20028]\n 14169: a2 = u64 [0x20030]\n 14174: a3 = u64 [a4 + 0x78]\n 14177: u64 [a5 + 0xc0] = a3\n 14181: u64 [a5 + 0xf8] = a0\n 14185: u64 [a5 + 0xf0] = a1\n 14189: u64 [a5 + 0xe8] = a2\n 14193: a0 = u64 [0x20038]\n 14198: a2 = s1 + 0x2e0\n 14202: a3 = s1 + 0x2c0\n 14206: a4 = s1 + 0x2a0\n 14210: u64 [a5 + 0xe0] = a0\n 14214: a0 = 0\n 14216: a1 = 0\n 14218: ra = 464, jump @13\n      : @502 [@dyn 232] (gas: 4)\n 14224: a1 = 0x200e0\n 14229: i32 a1 = a1 + 0\n 14231: a0 = 0\n 14233: jump @473\n      : @503 (gas: 5)\n 14236: a0 = s1 + 0x7ff\n 14240: a0 = a0 + 0xf9\n 14244: a0 = u64 [a0 + 0x768]\n 14248: u64 [s1 + 0x158] = a0\n 14252: ra = 466, jump @560\n      : @504 [@dyn 233] (gas: 27)\n 14258: a4 = s1 + 0x100\n 14262: a2 = u64 [a4 + 0x58]\n 14265: a0 = a2 >> 0x20\n 14268: a1 = u64 [a4 + 0x60]\n 14271: a1 = a1 << 0x20\n 14274: a0 = a0 | a1\n 14277: a1 = a2 << 0x20\n 14280: a2 = u64 [a4 + 0x68]\n 14283: a2 = a2 << 0x20\n 14286: a2 = a2 >> 0x20\n 14289: a1 = a1 | a2\n 14292: a3 = s1 + 0x7ff\n 14296: a3 = a3 + 0xf9\n 14300: u64 [a3 + 1952] = 0\n 14304: u64 [a3 + 1944] = 0\n 14308: u64 [a3 + 1936] = 0\n 14312: a5 = a3 + 0x700\n 14316: u64 [a5 + 136] = 0x2\n 14321: a2 = u64 [a4 + 0x70]\n 14324: u64 [a5 + 0xb0] = a2\n 14328: a2 = u64 [a4 + 0x78]\n 14331: u64 [a5 + 0xa8] = a2\n 14335: u64 [a5 + 0xc0] = a0\n 14339: u64 [a5 + 0xb8] = a1\n 14343: a0 = s1 + 0x1080\n 14347: a1 = s1 + 0x10a0\n 14351: ra = 468, jump @12\n      : @505 [@dyn 234] (gas: 4)\n 14357: a1 = 0x200e0\n 14362: i32 a1 = a1 + 0\n 14364: a0 = 0\n 14366: jump @473\n      : @506 (gas: 8)\n 14369: u64 [s1 + 1616] = 0\n 14373: u64 [s1 + 1608] = 0\n 14377: u64 [s1 + 1600] = 0\n 14381: a0 = 0x4e487b7100000000\n 14391: a1 = s1 + 0x640\n 14395: u64 [s1 + 0x658] = a0\n 14399: a0 = 0\n 14401: ra = 470, jump @9\n      : @507 [@dyn 235] (gas: 8)\n 14407: u64 [s1 + 1592] = 0\n 14411: u64 [s1 + 1584] = 0\n 14415: u64 [s1 + 1568] = 0x11\n 14420: a0 = 0x4\n 14423: a1 = s1 + 0x620\n 14427: u64 [s1 + 1576] = 0\n 14431: ra = 0x1da\n 14435: jump @9\n      : @508 (gas: 12)\n 14438: a0 = s1 + 0x7ff\n 14442: a0 = a0 + 0xf9\n 14446: u64 [a0 + 536] = 0\n 14450: u64 [a0 + 528] = 0\n 14454: u64 [a0 + 520] = 0\n 14458: a2 = a0\n 14460: a0 = 0x4e487b7100000000\n 14470: a1 = s1 + 0x7ff\n 14474: a1 = a1 + 0x301\n 14478: u64 [a2 + 0x220] = a0\n 14482: a0 = 0\n 14484: ra = 472, jump @9\n      : @509 [@dyn 236] (gas: 11)\n 14490: a1 = s1 + 0x7ff\n 14494: a1 = a1 + 0xf9\n 14498: u64 [a1 + 512] = 0\n 14502: u64 [a1 + 504] = 0\n 14506: u64 [a1 + 488] = 0x11\n 14511: a2 = a1\n 14513: a0 = 0x4\n 14516: a1 = s1 + 0x7ff\n 14520: a1 = a1 + 0x2e1\n 14524: u64 [a2 + 496] = 0\n 14528: ra = 474, jump @9\n      : @510 [@dyn 237] (gas: 3)\n 14534: a0 = u64 [s1 + 0xa8]\n 14538: a0 = i32 [a0]\n 14540: jump @512 if a0 >u 63\n      : @511 (gas: 5)\n 14544: a1 = u64 [s1 + 0xa8]\n 14548: u32 [a1 + 0] = 0x40\n 14551: a0 = 0x1\n 14554: a2 = 0x24\n 14557: jump @496\n      : @512 (gas: 3)\n 14560: a0 = 0x1\n 14563: a2 = 0x24\n 14566: jump @496\n      : @513 (gas: 18)\n 14569: sp = sp + 0xffffffffffffffc0\n 14572: u64 [sp + 0x38] = ra\n 14575: u64 [sp + 0x30] = s0\n 14578: u64 [sp + 0x28] = s1\n 14581: s0 = sp + 0x40\n 14584: sp = sp & 0xfffffffffffffff0\n 14587: a2 = u64 [a1 + 0x10]\n 14590: a3 = u64 [a1 + 0x18]\n 14593: a4 = u64 [a1 + 0x8]\n 14596: a1 = u64 [a1]\n 14598: a3 = a3 | a4\n 14601: a4 = a1 | a2\n 14604: a4 = a4 | a3\n 14607: a4 = a4 >> 0x20\n 14610: a2 = a2 | a3\n 14613: a2 = a2 << 0x20\n 14616: a2 = a2 | a4\n 14619: jump @519 if a2 != 0\n      : @514 (gas: 3)\n 14622: s1 = a0\n 14624: a0 = sp\n 14626: ra = 476, jump @7\n      : @515 [@dyn 238] (gas: 1)\n 14632: t0 = 478, jump @656\n      : @516 [@dyn 239] (gas: 1)\n 14638: jump @520 if a3 == 0\n      : @517 (gas: 1)\n 14641: t0 = 480, jump @660\n      : @518 [@dyn 240] (gas: 1)\n 14647: ret\n      : @519 (gas: 1)\n 14649: trap\n      : @520 (gas: 7)\n 14650: a1 = 0x200e0\n 14655: i32 a1 = a1 + 0\n 14657: a0 = 0x1\n 14660: a2 = 0\n 14662: ra = 0x1e2\n 14666: ecalli 13 // 'seal_return'\n 14668: fallthrough\n      : @521 [@dyn 241] (gas: 13)\n 14669: sp = sp + 0xffffffffffffffc0\n 14672: u64 [sp + 0x38] = ra\n 14675: u64 [sp + 0x30] = s0\n 14678: u64 [sp + 0x28] = s1\n 14681: s0 = sp + 0x40\n 14684: sp = sp & 0xffffffffffffffe0\n 14687: s1 = a0\n 14689: i32 a0 = sp + 0\n 14691: a1 = 0x4\n 14694: ra = 0x1e4\n 14698: ecalli 2 // 'call_data_load'\n 14700: t0 = 0x1e6\n 14704: jump @656\n      : @522 [@dyn 242] (gas: 1)\n 14707: t0 = 486, jump @656\n      : @523 [@dyn 243] (gas: 1)\n 14713: jump @526 if a3 == 0\n      : @524 (gas: 1)\n 14716: t0 = 488, jump @660\n      : @525 [@dyn 244] (gas: 1)\n 14722: ret\n      : @526 (gas: 7)\n 14724: a1 = 0x200e0\n 14729: i32 a1 = a1 + 0\n 14731: a0 = 0x1\n 14734: a2 = 0\n 14736: ra = 0x1ea\n 14740: ecalli 13 // 'seal_return'\n 14742: fallthrough\n      : @527 [@dyn 245] (gas: 19)\n 14743: sp = sp + 0xffffffffffffff90\n 14746: u64 [sp + 0x68] = ra\n 14749: u64 [sp + 0x60] = s0\n 14752: s0 = sp + 0x70\n 14755: sp = sp & 0xfffffffffffffff0\n 14758: a3 = u64 [a0 + 0x18]\n 14761: a2 = u64 [a0 + 0x10]\n 14764: t1 = u64 [a0]\n 14766: a0 = u64 [a0 + 0x8]\n 14769: a4 = a3 >u 0\n 14771: a5 = a2 >u 0\n 14773: a5 = a4 if a3 != 0\n 14776: t0 = a0 >u 0\n 14778: a4 = t1 <u 0xffffffffffffffe0\n 14781: a4 = a4 ^ 0x1\n 14784: a4 = t0 if a0 != 0\n 14787: a1 = a2 | a3\n 14790: a4 = a5 if a1 != 0\n 14793: jump @530 if a4 != 0\n      : @528 (gas: 15)\n 14796: a1 = t1 + 0x20\n 14799: a4 = a1 <u t1\n 14802: a5 = a0 + a4\n 14805: a0 = a5 <u a0\n 14808: a0 = a4 if a4 == 0\n 14811: a0 = a0 + a2\n 14814: a2 = a0 <u a2\n 14817: a2 = a2 + a3\n 14820: u64 [sp + 0x40] = a1\n 14823: u64 [sp + 0x48] = a5\n 14826: u64 [sp + 0x50] = a0\n 14829: a0 = 0x40\n 14832: a1 = sp + a0\n 14835: u64 [sp + 0x58] = a2\n 14838: ra = 492, jump @9\n      : @529 [@dyn 246] (gas: 5)\n 14844: sp = s0 + 0xffffffffffffff90\n 14847: ra = u64 [sp + 0x68]\n 14850: s0 = u64 [sp + 0x60]\n 14853: sp = sp + 0x70\n 14856: ret\n      : @530 (gas: 8)\n 14858: u64 [sp + 48] = 0\n 14861: u64 [sp + 40] = 0\n 14864: u64 [sp + 32] = 0\n 14867: a0 = 0x4e487b7100000000\n 14877: a1 = sp + 0x20\n 14880: u64 [sp + 0x38] = a0\n 14883: a0 = 0\n 14885: ra = 494, jump @9\n      : @531 [@dyn 247] (gas: 7)\n 14891: u64 [sp + 24] = 0\n 14894: u64 [sp + 16] = 0\n 14897: u64 [sp + 0] = 0x41\n 14900: a0 = 0x4\n 14903: a1 = sp\n 14905: u64 [sp + 8] = 0\n 14908: ra = 496, jump @9\n      : @532 [@dyn 248] (gas: 2)\n 14914: a1 = i32 [0x200d0]\n 14919: jump @534 if a1 >u 63\n      : @533 (gas: 2)\n 14923: u32 [0x200d0] = 0x40\n 14929: fallthrough\n      : @534 (gas: 7)\n 14930: a1 = 0x200e0\n 14935: i32 a1 = a1 + 0\n 14937: a0 = 0x1\n 14940: a2 = 0x24\n 14943: ra = 0x1f2\n 14947: ecalli 13 // 'seal_return'\n 14949: fallthrough\n      : @535 [@dyn 249] (gas: 46)\n 14950: sp = sp + 0xffffffffffffff70\n 14954: u64 [sp + 0x88] = ra\n 14958: u64 [sp + 0x80] = s0\n 14962: u64 [sp + 0x78] = s1\n 14965: s0 = sp + 0x90\n 14969: sp = sp & 0xfffffffffffffff0\n 14972: t0 = a0\n 14974: a2 = u64 [a1]\n 14976: t2 = u64 [a0 + 0x8]\n 14979: a5 = u64 [a1 + 0x8]\n 14982: t1 = u64 [a0]\n 14984: a3 = a2 + 0x1f\n 14987: ra = a3 <u a2\n 14990: a2 = a5 + ra\n 14993: a3 = a3 & 0xffffffffffffffe0\n 14996: u64 [sp + 0x8] = t1\n 14999: t1 = t1 + a3\n 15002: a4 = t1 <u a3\n 15005: a3 = a2 + t2\n 15008: a3 = a3 + a4\n 15011: s1 = a3 ^ a2\n 15014: a0 = a3 <u a2\n 15017: a0 = a4 if s1 == 0\n 15020: a4 = u64 [t0 + 0x18]\n 15023: a5 = a2 <u a5\n 15026: s1 = u64 [a1 + 0x10]\n 15029: t0 = u64 [t0 + 0x10]\n 15032: a1 = u64 [a1 + 0x18]\n 15035: a5 = ra if ra == 0\n 15038: a5 = a5 + s1\n 15041: s1 = a5 <u s1\n 15044: a2 = a5 + t0\n 15047: a0 = a0 + a2\n 15050: a5 = a2 <u a5\n 15053: a2 = a0 <u a2\n 15056: a1 = a1 + a4\n 15059: a1 = a1 + s1\n 15062: a1 = a1 + a5\n 15065: a5 = a1 + a2\n 15068: a1 = a5 >u 0\n 15070: a2 = a0 >u 0\n 15072: a2 = a1 if a5 != 0\n 15075: a1 = a0 | a5\n 15078: s1 = a3 >u 0\n 15080: s1 = a2 if a1 != 0\n 15083: jump @539 if s1 != 0\n      : @536 (gas: 13)\n 15086: a1 = u64 [sp + 0x8]\n 15089: a1 = t1 <u a1\n 15092: a2 = a3 ^ t2\n 15095: s1 = a3 <u t2\n 15098: s1 = a1 if a2 == 0\n 15101: a1 = a0 <u t0\n 15104: a2 = a5 ^ a4\n 15107: a4 = a5 <u a4\n 15110: a4 = a1 if a2 == 0\n 15113: a1 = a0 ^ t0\n 15116: a1 = a1 | a2\n 15119: a4 = s1 if a1 == 0\n 15122: jump @539 if a4 != 0\n      : @537 (gas: 7)\n 15125: u64 [sp + 0x50] = t1\n 15128: u64 [sp + 0x58] = a3\n 15131: u64 [sp + 0x60] = a0\n 15134: a0 = 0x40\n 15137: a1 = sp + 0x50\n 15140: u64 [sp + 0x68] = a5\n 15143: ra = 500, jump @9\n      : @538 [@dyn 250] (gas: 6)\n 15149: sp = s0 + 0xffffffffffffff70\n 15153: ra = u64 [sp + 0x88]\n 15157: s0 = u64 [sp + 0x80]\n 15161: s1 = u64 [sp + 0x78]\n 15164: sp = sp + 0x90\n 15168: ret\n      : @539 (gas: 8)\n 15170: u64 [sp + 64] = 0\n 15173: u64 [sp + 56] = 0\n 15176: u64 [sp + 48] = 0\n 15179: a0 = 0x4e487b7100000000\n 15189: a1 = sp + 0x30\n 15192: u64 [sp + 0x48] = a0\n 15195: a0 = 0\n 15197: ra = 502, jump @9\n      : @540 [@dyn 251] (gas: 7)\n 15203: u64 [sp + 40] = 0\n 15206: u64 [sp + 32] = 0\n 15209: u64 [sp + 16] = 0x41\n 15213: a0 = 0x4\n 15216: a1 = sp + 0x10\n 15219: u64 [sp + 24] = 0\n 15222: ra = 504, jump @9\n      : @541 [@dyn 252] (gas: 2)\n 15228: a1 = i32 [0x200d0]\n 15233: jump @543 if a1 >u 63\n      : @542 (gas: 2)\n 15237: u32 [0x200d0] = 0x40\n 15243: fallthrough\n      : @543 (gas: 7)\n 15244: a1 = 0x200e0\n 15249: i32 a1 = a1 + 0\n 15251: a0 = 0x1\n 15254: a2 = 0x24\n 15257: ra = 0x1fa\n 15261: ecalli 13 // 'seal_return'\n 15263: fallthrough\n      : @544 [@dyn 253] (gas: 9)\n 15264: sp = sp + 0xffffffffffffff20\n 15268: u64 [sp + 0xd8] = ra\n 15272: u64 [sp + 0xd0] = s0\n 15276: u64 [sp + 0xc8] = s1\n 15280: s0 = sp + 0xe0\n 15284: sp = sp & 0xffffffffffffffe0\n 15287: s1 = a0\n 15289: ecalli 12 // 'return_data_size'\n 15291: fallthrough\n      : @545 (gas: 1)\n 15292: jump @558 if a0 == 0\n      : @546 (gas: 6)\n 15296: u64 [sp + 0x18] = s1\n 15299: ecalli 12 // 'return_data_size'\n 15301: s1 = a0\n 15303: a0 = sp + 0xa0\n 15307: a1 = 0x40\n 15310: ra = 508, jump @7\n      : @547 [@dyn 254] (gas: 28)\n 15316: a2 = u64 [sp + 0xb8]\n 15320: a5 = u64 [sp + 0xb0]\n 15324: u64 [sp + 0x38] = a5\n 15327: t0 = u64 [sp + 0xa8]\n 15331: u64 [sp + 0x30] = t0\n 15334: t1 = u64 [sp + 0xa0]\n 15338: u64 [sp + 0x28] = t1\n 15341: a0 = s1 + 0x1f\n 15344: u64 [sp + 0x20] = s1\n 15347: a1 = a0 <u s1\n 15350: s1 = a2\n 15352: a0 = a0 & 0xffffffffffffffe0\n 15355: a2 = a0 + 0x20\n 15358: a0 = a2 <u a0\n 15361: a3 = a1 + a0\n 15364: a4 = a3 <u a1\n 15367: a4 = a0 if a0 == 0\n 15370: u64 [sp + 120] = 0\n 15373: u64 [sp + 0x60] = a2\n 15376: u64 [sp + 0x98] = s1\n 15380: u64 [sp + 0x90] = a5\n 15384: u64 [sp + 0x88] = t0\n 15388: u64 [sp + 0x80] = t1\n 15392: u64 [sp + 0x68] = a3\n 15395: a0 = sp + 0x80\n 15399: a1 = sp + 0x60\n 15402: u64 [sp + 0x70] = a4\n 15405: ra = 510, jump @535\n      : @548 [@dyn 255] (gas: 5)\n 15411: a0 = u64 [sp + 0x28]\n 15414: a2 = u64 [sp + 0x30]\n 15417: a2 = a2 | s1\n 15420: a3 = u64 [sp + 0x38]\n 15423: t0 = 512, jump @667\n      : @549 [@dyn 256] (gas: 1)\n 15429: jump @557 if a1 != 0\n      : @550 (gas: 7)\n 15433: u64 [sp + 88] = 0\n 15436: u64 [sp + 80] = 0\n 15439: u64 [sp + 72] = 0\n 15442: a1 = sp + 0x40\n 15445: a2 = u64 [sp + 0x20]\n 15448: u64 [sp + 0x40] = a2\n 15451: ra = 514, jump @9\n      : @551 [@dyn 257] (gas: 2)\n 15457: ecalli 12 // 'return_data_size'\n 15459: fallthrough\n      : @552 (gas: 10)\n 15460: a3 = u64 [sp + 0x28]\n 15463: u64 [sp + 0x20] = s1\n 15466: a1 = u64 [sp + 0x38]\n 15469: a1 = a1 | s1\n 15472: a2 = 0xffffffe0\n 15482: a2 = a3 <u a2\n 15485: a4 = u64 [sp + 0x30]\n 15488: a2 = 0 if a4 != 0\n 15490: a2 = 0 if a1 != 0\n 15492: jump @557 if a2 == 0\n      : @553 (gas: 3)\n 15495: s1 = a0\n 15497: a0 = a0 >> 0x20\n 15500: jump @557 if a0 != 0\n      : @554 (gas: 5)\n 15503: i32 a0 = a3 + 0x20\n 15506: i32 a1 = s1 + 0\n 15508: u64 [sp + 0x10] = a1\n 15511: a1 = s1\n 15513: ra = 516, jump @16\n      : @555 [@dyn 258] (gas: 6)\n 15519: u32 [sp + 0xc0] = s1\n 15523: i32 a0 = a0 + 0\n 15525: i32 a1 = sp + 0xc0\n 15529: a2 = 0\n 15531: ecalli 11 // 'return_data_copy'\n 15533: fallthrough\n      : @556 (gas: 8)\n 15534: a4 = u64 [sp + 0x28]\n 15537: a0 = i32 [sp + 0xc0]\n 15541: s1 = u64 [sp + 0x18]\n 15544: a1 = u64 [sp + 0x20]\n 15547: a2 = u64 [sp + 0x38]\n 15550: a3 = u64 [sp + 0x30]\n 15553: a5 = u64 [sp + 0x10]\n 15556: jump @559 if a0 >=u a5\n      : @557 (gas: 1)\n 15559: trap\n      : @558 (gas: 5)\n 15560: a3 = 0\n 15562: a2 = 0\n 15564: a1 = 0\n 15566: a4 = 0x60\n 15569: fallthrough\n      : @559 (gas: 10)\n 15570: u64 [s1] = a4\n 15572: u64 [s1 + 0x8] = a3\n 15575: u64 [s1 + 0x10] = a2\n 15578: u64 [s1 + 0x18] = a1\n 15581: sp = s0 + 0xffffffffffffff20\n 15585: ra = u64 [sp + 0xd8]\n 15589: s0 = u64 [sp + 0xd0]\n 15593: s1 = u64 [sp + 0xc8]\n 15597: sp = sp + 0xe0\n 15601: ret\n      : @560 (gas: 13)\n 15603: sp = sp + 0xffffffffffffff40\n 15607: u64 [sp + 0xb8] = ra\n 15611: u64 [sp + 0xb0] = s0\n 15615: u64 [sp + 0xa8] = s1\n 15619: s0 = sp + 0xc0\n 15623: sp = sp & 0xffffffffffffffe0\n 15626: u64 [sp + 152] = 0\n 15630: u64 [sp + 144] = 0\n 15634: u64 [sp + 136] = 0\n 15638: u64 [sp + 128] = 0\n 15642: a0 = sp + 0x60\n 15645: a1 = sp + 0x80\n 15649: ra = 518, jump @11\n      : @561 [@dyn 259] (gas: 12)\n 15655: a0 = u64 [sp + 0x68]\n 15658: u64 [sp + 0x18] = a0\n 15661: a0 = u64 [sp + 0x60]\n 15664: u64 [sp + 0x10] = a0\n 15667: a0 = u32 [sp + 0x70]\n 15670: u64 [sp + 0x8] = a0\n 15673: s1 = 0x300e0\n 15678: i32 a0 = s1 + 0\n 15680: u64 [sp] = a0\n 15682: ra = 0x208\n 15686: ecalli 4 // 'caller'\n 15688: fallthrough\n      : @562 [@dyn 260] (gas: 4)\n 15689: a0 = u64 [s1 + 0x8]\n 15692: a1 = u64 [s1]\n 15694: a2 = i32 [s1 + 0x10]\n 15697: t0 = 522, jump @655\n      : @563 [@dyn 261] (gas: 9)\n 15703: a2 = u64 [sp + 0x8]\n 15706: a1 = a1 ^ a2\n 15709: a2 = u64 [sp + 0x10]\n 15712: a0 = a0 ^ a2\n 15715: a0 = a0 | a1\n 15718: a1 = u64 [sp + 0x18]\n 15721: a1 = a1 ^ a3\n 15724: a0 = a0 | a1\n 15727: jump @565 if a0 != 0\n      : @564 (gas: 6)\n 15730: sp = s0 + 0xffffffffffffff40\n 15734: ra = u64 [sp + 0xb8]\n 15738: s0 = u64 [sp + 0xb0]\n 15742: s1 = u64 [sp + 0xa8]\n 15746: sp = sp + 0xc0\n 15750: ret\n      : @565 (gas: 8)\n 15752: u64 [sp + 80] = 0\n 15755: u64 [sp + 72] = 0\n 15758: u64 [sp + 64] = 0\n 15761: a0 = 0x118cdaa700000000\n 15771: a1 = sp + 0x40\n 15774: u64 [sp + 0x58] = a0\n 15777: a0 = 0\n 15779: ra = 524, jump @9\n      : @566 [@dyn 262] (gas: 4)\n 15785: a0 = u64 [sp]\n 15787: ra = 0x20e\n 15791: ecalli 4 // 'caller'\n 15793: fallthrough\n      : @567 [@dyn 263] (gas: 4)\n 15794: a0 = u64 [s1 + 0x8]\n 15797: a1 = i32 [s1 + 0x10]\n 15800: a2 = u64 [s1]\n 15802: t0 = 528, jump @649\n      : @568 [@dyn 264] (gas: 7)\n 15808: u64 [sp + 56] = 0\n 15811: u64 [sp + 0x30] = a1\n 15814: u64 [sp + 0x28] = a0\n 15817: a0 = 0x4\n 15820: a1 = sp + 0x20\n 15823: u64 [sp + 0x20] = a3\n 15826: ra = 530, jump @9\n      : @569 [@dyn 265] (gas: 2)\n 15832: a1 = i32 [0x200d0]\n 15837: jump @571 if a1 >u 63\n      : @570 (gas: 2)\n 15841: u32 [0x200d0] = 0x40\n 15847: fallthrough\n      : @571 (gas: 7)\n 15848: a1 = 0x200e0\n 15853: i32 a1 = a1 + 0\n 15855: a0 = 0x1\n 15858: a2 = 0x24\n 15861: ra = 0x214\n 15865: ecalli 13 // 'seal_return'\n 15867: fallthrough\n      : @572 [@dyn 266] (gas: 26)\n 15868: sp = sp + 0xfffffffffffffb20\n 15872: a3 = sp + 0x400\n 15876: u64 [a3 + 0xd8] = ra\n 15880: u64 [a3 + 0xd0] = s0\n 15884: u64 [a3 + 0xc8] = s1\n 15888: s0 = sp + 0x4e0\n 15892: sp = sp & 0xffffffffffffffe0\n 15895: s1 = sp\n 15897: a3 = u64 [a2 + 0x18]\n 15900: u64 [s1 + 0x78] = a3\n 15903: a3 = u64 [a2 + 0x10]\n 15906: u64 [s1 + 0x80] = a3\n 15910: a3 = u64 [a2 + 0x8]\n 15913: u64 [s1 + 0x88] = a3\n 15917: a2 = u64 [a2]\n 15919: u64 [s1 + 0x90] = a2\n 15923: a2 = u64 [a1 + 0x10]\n 15926: u64 [s1 + 0x48] = a2\n 15929: a2 = u64 [a1 + 0x8]\n 15932: u64 [s1 + 0x58] = a2\n 15935: a1 = u64 [a1]\n 15937: u64 [s1 + 0x50] = a1\n 15940: u64 [s1 + 0x28] = a0\n 15943: a0 = s1 + 0x3a0\n 15947: a1 = 0x40\n 15950: ra = 534, jump @7\n      : @573 [@dyn 267] (gas: 15)\n 15956: a4 = s1 + 0x300\n 15960: a0 = u64 [a4 + 0xb8]\n 15964: u64 [s1 + 0x98] = a0\n 15968: a1 = u64 [a4 + 0xb0]\n 15972: u64 [s1 + 0x68] = a1\n 15975: a2 = u64 [a4 + 0xa8]\n 15979: u64 [s1 + 0x60] = a2\n 15982: a3 = u64 [a4 + 0xa0]\n 15986: u64 [s1 + 0x70] = a3\n 15989: u64 [a4 + 0x98] = a0\n 15993: u64 [a4 + 0x90] = a1\n 15997: u64 [a4 + 0x88] = a2\n 16001: a0 = s1 + 0x380\n 16005: u64 [a4 + 0x80] = a3\n 16009: ra = 536, jump @527\n      : @574 [@dyn 268] (gas: 6)\n 16015: a0 = u64 [s1 + 0x70]\n 16018: a1 = u64 [s1 + 0x98]\n 16022: a2 = u64 [s1 + 0x60]\n 16025: a2 = a2 | a1\n 16028: a3 = u64 [s1 + 0x68]\n 16031: t0 = 538, jump @667\n      : @575 [@dyn 269] (gas: 1)\n 16037: jump @638 if a1 != 0\n      : @576 (gas: 13)\n 16041: a1 = 0xffffffff\n 16051: u64 [s1 + 0x68] = a1\n 16054: a1 = u64 [s1 + 0x48]\n 16057: a1 = a1 << 0x20\n 16060: a2 = a1 >> 0x20\n 16063: u64 [s1 + 888] = 0\n 16067: a1 = u64 [s1 + 0x50]\n 16070: u64 [s1 + 0x360] = a1\n 16074: a1 = u64 [s1 + 0x58]\n 16077: u64 [s1 + 0x368] = a1\n 16081: a1 = s1 + 0x360\n 16085: u64 [s1 + 0x370] = a2\n 16089: ra = 540, jump @9\n      : @577 [@dyn 270] (gas: 11)\n 16095: a0 = u64 [s1 + 0x78]\n 16098: u64 [s1 + 0x358] = a0\n 16102: a0 = u64 [s1 + 0x80]\n 16106: u64 [s1 + 0x350] = a0\n 16110: a0 = u64 [s1 + 0x88]\n 16114: u64 [s1 + 0x348] = a0\n 16118: a1 = s1 + 0x340\n 16122: a0 = u64 [s1 + 0x90]\n 16126: u64 [s1 + 0x340] = a0\n 16130: a0 = 0\n 16132: ra = 542, jump @9\n      : @578 [@dyn 271] (gas: 7)\n 16138: u64 [s1 + 824] = 0\n 16142: u64 [s1 + 816] = 0\n 16146: u64 [s1 + 800] = 0x3\n 16151: a0 = 0x20\n 16154: a1 = s1 + 0x320\n 16158: u64 [s1 + 808] = 0\n 16162: ra = 544, jump @9\n      : @579 [@dyn 272] (gas: 6)\n 16168: a0 = sp + 0xffffffffffffffe0\n 16171: a0 = a0 & 0xffffffffffffffe0\n 16174: u64 [s1 + 0x98] = a0\n 16178: sp = a0\n 16180: a1 = i32 [0x200d0]\n 16185: jump @581 if a1 >u 63\n      : @580 (gas: 2)\n 16189: u32 [0x200d0] = 0x40\n 16195: fallthrough\n      : @581 (gas: 14)\n 16196: a0 = sp + 0xffffffffffffffe0\n 16199: a2 = a0 & 0xffffffffffffffe0\n 16202: u64 [s1 + 0x60] = a2\n 16205: sp = a2\n 16207: a0 = 0x200e0\n 16212: i32 a0 = a0 + 0\n 16214: i32 a2 = a2 + 0\n 16216: a1 = 0x40\n 16219: u64 [s1 + 0x18] = a0\n 16222: ra = 0x222\n 16226: ecalli 9 // 'hash_keccak_256'\n 16228: a3 = u64 [s1 + 0x60]\n 16231: t0 = 0x224\n 16235: jump @659\n      : @582 [@dyn 273] (gas: 2)\n 16238: a3 = u64 [s1 + 0x60]\n 16241: t0 = 548, jump @659\n      : @583 [@dyn 274] (gas: 8)\n 16247: a4 = u64 [s1 + 0x98]\n 16251: u64 [a4 + 0x18] = a3\n 16254: u64 [a4 + 0x10] = a2\n 16257: u64 [a4 + 0x8] = a1\n 16260: u64 [a4] = a0\n 16262: a0 = s1 + 0x300\n 16266: a1 = u64 [s1 + 0x70]\n 16269: ra = 550, jump @7\n      : @584 [@dyn 275] (gas: 13)\n 16275: a0 = u64 [s1 + 0x300]\n 16279: a1 = u64 [s1 + 0x308]\n 16283: a2 = u64 [s1 + 0x310]\n 16287: a0 = a0 & 0xffffffffffffffff\n 16290: u64 [s1 + 0x70] = a0\n 16293: a1 = a1 & 0xffffffffffffffff\n 16296: u64 [s1 + 0x60] = a1\n 16299: a0 = u64 [s1 + 0x68]\n 16302: a0 = a0 & a2\n 16305: u64 [s1 + 0x68] = a0\n 16308: a0 = s1 + 0x2e0\n 16312: a1 = u64 [s1 + 0x98]\n 16316: ra = 552, jump @11\n      : @585 [@dyn 276] (gas: 15)\n 16322: a0 = u32 [s1 + 0x2f4]\n 16326: a0 = a0 << 0x20\n 16329: a1 = u64 [s1 + 0x2f8]\n 16333: a2 = u64 [s1 + 0x68]\n 16336: a0 = a0 | a2\n 16339: a2 = u64 [s1 + 0x60]\n 16342: a3 = s1 + 0x300\n 16346: u64 [a3 + 0xc8] = a2\n 16350: a2 = u64 [s1 + 0x70]\n 16353: u64 [a3 + 0xc0] = a2\n 16357: u64 [a3 + 0xd8] = a1\n 16361: u64 [a3 + 0xd0] = a0\n 16365: a1 = s1 + 0x3c0\n 16369: a0 = u64 [s1 + 0x98]\n 16373: ra = 554, jump @12\n      : @586 [@dyn 277] (gas: 1)\n 16379: ra = 556, jump @0\n      : @587 [@dyn 278] (gas: 9)\n 16385: a1 = u64 [0x30110]\n 16390: u64 [s1 + 0x48] = a1\n 16393: a1 = u64 [0x30108]\n 16398: u64 [s1 + 0x40] = a1\n 16401: a0 = u64 [0x30100]\n 16406: u64 [s1 + 0x70] = a0\n 16409: a0 = s1 + 0x2c0\n 16413: a1 = 0x40\n 16416: ra = 558, jump @7\n      : @588 [@dyn 279] (gas: 16)\n 16422: a4 = s1 + 0x200\n 16426: a2 = u64 [a4 + 0xd8]\n 16430: a3 = u64 [a4 + 0xd0]\n 16434: a1 = u64 [a4 + 0xc8]\n 16438: a0 = u64 [a4 + 0xc0]\n 16442: u64 [s1 + 0x58] = a1\n 16445: u64 [s1 + 0x68] = a2\n 16448: a2 = a2 | a1\n 16451: a1 = a0 | a3\n 16454: a1 = a1 | a2\n 16457: a1 = a1 >> 0x20\n 16460: u64 [s1 + 0x60] = a3\n 16463: a2 = a2 | a3\n 16466: a2 = a2 << 0x20\n 16469: a1 = a1 | a2\n 16472: jump @638 if a1 != 0\n      : @589 (gas: 8)\n 16476: u64 [s1 + 688] = 0\n 16480: u64 [s1 + 680] = 0\n 16484: u64 [s1 + 672] = 0\n 16488: a2 = 0xb9186d7d00000000\n 16498: a1 = s1 + 0x2a0\n 16502: u64 [s1 + 0x2b8] = a2\n 16506: u64 [s1 + 0x98] = a0\n 16510: ra = 560, jump @9\n      : @590 [@dyn 280] (gas: 10)\n 16516: a2 = u64 [s1 + 0x98]\n 16520: a0 = u64 [s1 + 0x68]\n 16523: a1 = u64 [s1 + 0x60]\n 16526: a0 = a0 | a1\n 16529: a1 = 0xfffffffc\n 16539: a1 = a2 <u a1\n 16542: a3 = u64 [s1 + 0x58]\n 16545: a1 = 0 if a3 != 0\n 16547: a1 = 0 if a0 != 0\n 16549: jump @638 if a1 == 0\n      : @591 (gas: 14)\n 16553: a0 = 0x2400000000\n 16563: u64 [s1 + 0x50] = a0\n 16566: i32 a0 = a2 + 0x4\n 16569: a1 = u64 [s1 + 0x90]\n 16573: a3 = s1 + 0x200\n 16577: u64 [a3 + 0x80] = a1\n 16581: a1 = u64 [s1 + 0x88]\n 16585: u64 [a3 + 0x88] = a1\n 16589: a1 = u64 [s1 + 0x80]\n 16593: u64 [a3 + 0x90] = a1\n 16597: a1 = s1 + 0x280\n 16601: a2 = u64 [s1 + 0x78]\n 16604: u64 [a3 + 0x98] = a2\n 16608: ra = 562, jump @9\n      : @592 [@dyn 281] (gas: 29)\n 16614: ecalli 10 // 'ref_time_left'\n 16616: a0 = u64 [s1 + 0x40]\n 16619: a0 = reverse a0\n 16621: a1 = a0 << 0x20\n 16624: a2 = u64 [s1 + 0x48]\n 16627: a2 = reverse a2\n 16629: a2 = a2 >> 0x20\n 16632: a4 = a2 | a1\n 16635: a1 = u64 [s1 + 0x70]\n 16638: a1 = reverse a1\n 16640: a2 = a1 << 0x20\n 16643: a3 = 0x300e0\n 16648: u64 [s1 + 0x70] = a3\n 16651: a0 = a0 >> 0x20\n 16654: a0 = a0 | a2\n 16657: a1 = a1 >> 0x20\n 16660: u64 [s1 + 0x38] = a0\n 16663: u64 [0x300e8] = a0\n 16668: u64 [s1 + 0x48] = a4\n 16671: u64 [0x300e0] = a4\n 16676: u64 [s1 + 0x40] = a1\n 16679: u32 [0x300f0] = a1\n 16684: u64 [s1 + 1016] = 0\n 16688: u64 [s1 + 1008] = 0\n 16692: u64 [s1 + 1000] = 0\n 16696: u64 [s1 + 992] = 0\n 16700: a1 = 0x24\n 16703: a0 = u64 [s1 + 0x98]\n 16707: ra = 564, jump @16\n      : @593 [@dyn 282] (gas: 4)\n 16713: u64 [s1 + 0x30] = a0\n 16716: a1 = 0x20\n 16719: a0 = u64 [s1 + 0x98]\n 16723: ra = 566, jump @16\n      : @594 [@dyn 283] (gas: 32)\n 16729: u32 [s1 + 1024] = 0x20\n 16734: u64 [s1 + 1080] = 0\n 16738: u64 [s1 + 1072] = 0\n 16742: u64 [s1 + 1064] = 0\n 16746: u64 [s1 + 1056] = 0\n 16750: a1 = u64 [s1 + 0x70]\n 16753: a1 = a1 << 0x20\n 16756: a2 = a1 >> 0x20\n 16759: a1 = 0x1800000000\n 16769: u64 [s1 + 0x20] = a2\n 16772: t0 = a2 | a1\n 16775: a1 = s1 + 0x3e0\n 16779: a1 = a1 << 0x20\n 16782: a1 = a1 >> 0x20\n 16785: a2 = s1 + 0x420\n 16789: a2 = a2 << 0x20\n 16792: a3 = a2 | a1\n 16795: a1 = u64 [s1 + 0x30]\n 16798: a1 = a1 << 0x20\n 16801: a1 = a1 >> 0x20\n 16804: a4 = u64 [s1 + 0x50]\n 16807: a4 = a4 | a1\n 16810: a0 = a0 << 0x20\n 16813: a0 = a0 >> 0x20\n 16816: a1 = s1 + 0x400\n 16820: a1 = a1 << 0x20\n 16823: a5 = a1 | a0\n 16826: a1 = 0xffffffffffffffff\n 16829: a2 = 0xffffffffffffffff\n 16832: a0 = t0\n 16834: ecalli 0 // 'call'\n 16835: fallthrough\n      : @595 (gas: 1)\n 16836: jump @621 if a0 != 0\n      : @596 (gas: 2)\n 16840: ecalli 12 // 'return_data_size'\n 16842: fallthrough\n      : @597 (gas: 2)\n 16843: a4 = 0x20\n 16846: jump @599 if a0 >=u a4\n      : @598 (gas: 3)\n 16849: ecalli 12 // 'return_data_size'\n 16851: a4 = a0\n 16853: fallthrough\n      : @599 (gas: 18)\n 16854: a2 = u64 [s1 + 0x98]\n 16858: a3 = u64 [s1 + 0x68]\n 16861: a0 = u64 [s1 + 0x60]\n 16864: a1 = u64 [s1 + 0x58]\n 16867: u64 [s1 + 96] = 0\n 16870: u64 [s1 + 0x68] = a4\n 16873: a5 = s1 + 0x200\n 16877: u64 [a5 + 0x20] = a4\n 16880: u64 [a5 + 0x40] = a2\n 16883: u64 [s1 + 552] = 0\n 16887: u64 [a5 + 0x48] = a1\n 16890: u64 [s1 + 560] = 0\n 16894: u64 [a5 + 0x50] = a0\n 16897: u64 [s1 + 568] = 0\n 16901: a0 = s1 + 0x240\n 16905: a1 = s1 + 0x220\n 16909: u64 [a5 + 0x58] = a3\n 16912: ra = 568, jump @535\n      : @600 [@dyn 284] (gas: 4)\n 16918: a3 = u64 [s1 + 0x60]\n 16921: a0 = a3 >u 0\n 16923: a1 = u64 [s1 + 0x68]\n 16926: t0 = 570, jump @648\n      : @601 [@dyn 285] (gas: 1)\n 16932: jump @639 if a2 == 0\n      : @602 (gas: 3)\n 16936: a0 = s1 + 0x200\n 16940: a1 = u64 [s1 + 0x98]\n 16944: ra = 572, jump @7\n      : @603 [@dyn 286] (gas: 12)\n 16950: a1 = s1 + 0x200\n 16954: a0 = u64 [a1 + 0x18]\n 16957: u64 [s1 + 0x98] = a0\n 16961: a0 = u64 [a1 + 0x10]\n 16964: u64 [s1 + 0x68] = a0\n 16967: a0 = u64 [a1 + 0x8]\n 16970: u64 [s1 + 0x60] = a0\n 16973: a0 = u64 [a1]\n 16975: u64 [s1 + 0x58] = a0\n 16978: a0 = s1 + 0x1e0\n 16982: a1 = 0x40\n 16985: ra = 574, jump @7\n      : @604 [@dyn 287] (gas: 6)\n 16991: a4 = s1 + 0x100\n 16995: a3 = u64 [a4 + 0xf8]\n 16999: a1 = u64 [a4 + 0xf0]\n 17003: a2 = u64 [a4 + 0xe8]\n 17007: a0 = u64 [a4 + 0xe0]\n 17011: t0 = 576, jump @653\n      : @605 [@dyn 288] (gas: 1)\n 17017: jump @638 if a1 != 0\n      : @606 (gas: 11)\n 17021: a1 = u64 [s1 + 0x58]\n 17024: u64 [s1 + 0x1c0] = a1\n 17028: a1 = u64 [s1 + 0x60]\n 17031: u64 [s1 + 0x1c8] = a1\n 17035: a1 = u64 [s1 + 0x68]\n 17038: u64 [s1 + 0x1d0] = a1\n 17042: a1 = s1 + 0x1c0\n 17046: a2 = u64 [s1 + 0x98]\n 17050: u64 [s1 + 0x1d8] = a2\n 17054: u64 [s1 + 0x98] = a0\n 17058: ra = 578, jump @9\n      : @607 [@dyn 289] (gas: 27)\n 17064: a2 = u64 [s1 + 0x78]\n 17067: a5 = s1 + 0x100\n 17071: u64 [a5 + 0x78] = a2\n 17074: a1 = u64 [s1 + 0x80]\n 17078: u64 [a5 + 0x70] = a1\n 17081: a0 = u64 [s1 + 0x88]\n 17085: u64 [a5 + 0x68] = a0\n 17088: a3 = u64 [s1 + 0x90]\n 17092: u64 [a5 + 0x60] = a3\n 17095: u64 [a5 + 0x98] = a2\n 17099: u64 [a5 + 0x90] = a1\n 17103: u64 [a5 + 0x88] = a0\n 17107: a0 = u64 [0x200a8]\n 17112: a1 = u64 [0x200b0]\n 17117: a2 = u64 [0x200b8]\n 17122: u64 [a5 + 0x80] = a3\n 17126: u64 [a5 + 0xb8] = a0\n 17130: u64 [a5 + 0xb0] = a1\n 17134: u64 [a5 + 0xa8] = a2\n 17138: a0 = u64 [0x200c0]\n 17143: a1 = 0x20\n 17146: a2 = s1 + 0x1a0\n 17150: a3 = s1 + 0x180\n 17154: a4 = s1 + 0x160\n 17158: u64 [a5 + 0xa0] = a0\n 17162: a0 = u64 [s1 + 0x98]\n 17166: ra = 580, jump @13\n      : @608 [@dyn 290] (gas: 10)\n 17172: a1 = u64 [s1 + 0x70]\n 17175: a0 = u64 [s1 + 0x38]\n 17178: u64 [a1 + 0x8] = a0\n 17181: a0 = u64 [s1 + 0x48]\n 17184: u64 [a1] = a0\n 17186: a0 = u64 [s1 + 0x40]\n 17189: u32 [a1 + 0x10] = a0\n 17192: i32 a0 = a1 + 0\n 17194: ecalli 5 // 'code_size'\n 17196: fallthrough\n      : @609 (gas: 1)\n 17197: jump @640 if a0 == 0\n      : @610 (gas: 3)\n 17201: a0 = s1 + 0x140\n 17205: a1 = 0x40\n 17208: ra = 582, jump @7\n      : @611 [@dyn 291] (gas: 17)\n 17214: a4 = s1 + 0x100\n 17218: a2 = u64 [a4 + 0x58]\n 17221: a3 = u64 [a4 + 0x50]\n 17224: a0 = u64 [a4 + 0x48]\n 17227: a1 = u64 [a4 + 0x40]\n 17230: u64 [s1 + 0x58] = a0\n 17233: u64 [s1 + 0x68] = a2\n 17236: a0 = a0 | a2\n 17239: u64 [s1 + 0x98] = a1\n 17243: a1 = a1 | a3\n 17246: a1 = a1 | a0\n 17249: a1 = a1 >> 0x20\n 17252: u64 [s1 + 0x60] = a3\n 17255: a0 = a0 | a3\n 17258: a0 = a0 << 0x20\n 17261: a0 = a0 | a1\n 17264: jump @638 if a0 != 0\n      : @612 (gas: 8)\n 17268: u64 [s1 + 304] = 0\n 17272: u64 [s1 + 296] = 0\n 17276: u64 [s1 + 288] = 0\n 17280: a0 = 0x5aa5a48800000000\n 17290: a1 = s1 + 0x120\n 17294: u64 [s1 + 0x138] = a0\n 17298: a0 = u64 [s1 + 0x98]\n 17302: ra = 584, jump @9\n      : @613 [@dyn 292] (gas: 10)\n 17308: a0 = u64 [s1 + 0x68]\n 17311: a1 = u64 [s1 + 0x60]\n 17314: a0 = a0 | a1\n 17317: a1 = 0xfffffffc\n 17327: a2 = u64 [s1 + 0x98]\n 17331: a1 = a2 <u a1\n 17334: a2 = u64 [s1 + 0x58]\n 17337: a1 = 0 if a2 != 0\n 17339: a1 = 0 if a0 != 0\n 17341: jump @638 if a1 == 0\n      : @614 (gas: 13)\n 17345: a0 = u64 [s1 + 0x98]\n 17349: i32 a0 = a0 + 0x4\n 17352: a1 = u64 [s1 + 0x90]\n 17356: a3 = s1 + 0x100\n 17360: u64 [a3] = a1\n 17362: a1 = u64 [s1 + 0x88]\n 17366: u64 [a3 + 0x8] = a1\n 17369: a1 = u64 [s1 + 0x80]\n 17373: u64 [a3 + 0x10] = a1\n 17376: a1 = s1 + 0x100\n 17380: a2 = u64 [s1 + 0x78]\n 17383: u64 [a3 + 0x18] = a2\n 17386: ra = 586, jump @9\n      : @615 [@dyn 293] (gas: 15)\n 17392: ecalli 10 // 'ref_time_left'\n 17394: a1 = u64 [s1 + 0x70]\n 17397: a0 = u64 [s1 + 0x38]\n 17400: u64 [a1 + 0x8] = a0\n 17403: a0 = u64 [s1 + 0x48]\n 17406: u64 [a1] = a0\n 17408: a0 = u64 [s1 + 0x40]\n 17411: u32 [a1 + 0x10] = a0\n 17414: u64 [s1 + 1144] = 0\n 17418: u64 [s1 + 1136] = 0\n 17422: u64 [s1 + 1128] = 0\n 17426: u64 [s1 + 1120] = 0\n 17430: a1 = 0x24\n 17433: a0 = u64 [s1 + 0x98]\n 17437: ra = 588, jump @16\n      : @616 [@dyn 294] (gas: 4)\n 17443: u64 [s1 + 0x70] = a0\n 17446: a0 = u64 [s1 + 0x98]\n 17450: a1 = 0\n 17452: ra = 590, jump @16\n      : @617 [@dyn 295] (gas: 30)\n 17458: u32 [s1 + 1152] = 0\n 17462: a2 = s1 + 0x400\n 17466: u64 [a2 + 184] = 0xffffffffffffffff\n 17471: u64 [a2 + 176] = 0xffffffffffffffff\n 17476: u64 [a2 + 168] = 0xffffffffffffffff\n 17481: u64 [a2 + 160] = 0xffffffffffffffff\n 17486: a1 = 0x800000000\n 17496: a2 = u64 [s1 + 0x20]\n 17499: t0 = a2 | a1\n 17502: a1 = s1 + 0x460\n 17506: a1 = a1 << 0x20\n 17509: a1 = a1 >> 0x20\n 17512: a2 = s1 + 0x4a0\n 17516: a2 = a2 << 0x20\n 17519: a3 = a2 | a1\n 17522: a1 = u64 [s1 + 0x70]\n 17525: a1 = a1 << 0x20\n 17528: a1 = a1 >> 0x20\n 17531: a4 = u64 [s1 + 0x50]\n 17534: a4 = a4 | a1\n 17537: a0 = a0 << 0x20\n 17540: a0 = a0 >> 0x20\n 17543: a1 = s1 + 0x480\n 17547: a1 = a1 << 0x20\n 17550: a5 = a1 | a0\n 17553: a1 = 0xffffffffffffffff\n 17556: a2 = 0xffffffffffffffff\n 17559: a0 = t0\n 17561: ecalli 0 // 'call'\n 17562: fallthrough\n      : @618 (gas: 1)\n 17563: jump @628 if a0 != 0\n      : @619 (gas: 15)\n 17567: u64 [s1 + 184] = 0\n 17571: u64 [s1 + 176] = 0\n 17575: u64 [s1 + 168] = 0\n 17579: u64 [s1 + 160] = 0\n 17583: a0 = u64 [s1 + 0x98]\n 17587: u64 [s1 + 0xc0] = a0\n 17591: a0 = u64 [s1 + 0x58]\n 17594: u64 [s1 + 0xc8] = a0\n 17598: a0 = u64 [s1 + 0x60]\n 17601: u64 [s1 + 0xd0] = a0\n 17605: a0 = s1 + 0xc0\n 17609: a1 = s1 + 0xa0\n 17613: a2 = u64 [s1 + 0x68]\n 17616: u64 [s1 + 0xd8] = a2\n 17620: ra = 592, jump @535\n      : @620 [@dyn 296] (gas: 16)\n 17626: a0 = u64 [s1 + 0x28]\n 17629: a1 = u64 [s1 + 0x78]\n 17632: u64 [a0 + 0x18] = a1\n 17635: a1 = u64 [s1 + 0x80]\n 17639: u64 [a0 + 0x10] = a1\n 17642: a1 = u64 [s1 + 0x88]\n 17646: u64 [a0 + 0x8] = a1\n 17649: a1 = u64 [s1 + 0x90]\n 17653: u64 [a0] = a1\n 17655: sp = s0 + 0xfffffffffffffb20\n 17659: a0 = sp + 0x400\n 17663: ra = u64 [a0 + 0xd8]\n 17667: s0 = u64 [a0 + 0xd0]\n 17671: s1 = u64 [a0 + 0xc8]\n 17675: sp = sp + 0x4e0\n 17679: ret\n      : @621 (gas: 3)\n 17681: a0 = s1 + 0x260\n 17685: a1 = 0x40\n 17688: ra = 594, jump @7\n      : @622 [@dyn 297] (gas: 13)\n 17694: a1 = s1 + 0x200\n 17698: a0 = u64 [a1 + 0x78]\n 17701: u64 [s1 + 0x90] = a0\n 17705: a0 = u64 [a1 + 0x70]\n 17708: u64 [s1 + 0x88] = a0\n 17712: a0 = u64 [a1 + 0x68]\n 17715: u64 [s1 + 0x80] = a0\n 17719: a0 = u64 [a1 + 0x60]\n 17722: u64 [s1 + 0x98] = a0\n 17726: ra = 0x254\n 17730: ecalli 12 // 'return_data_size'\n 17732: t0 = 0x256\n 17736: jump @662\n      : @623 [@dyn 298] (gas: 1)\n 17739: t0 = 598, jump @662\n      : @624 [@dyn 299] (gas: 1)\n 17745: jump @638 if a1 != 0\n      : @625 (gas: 2)\n 17749: a1 = a0 >> 0x20\n 17752: jump @638 if a1 != 0\n      : @626 (gas: 6)\n 17756: a1 = a0\n 17758: u64 [s1 + 0x88] = a0\n 17762: i32 a0 = a0 + 0\n 17764: u64 [s1 + 0x90] = a0\n 17768: a0 = u64 [s1 + 0x98]\n 17772: ra = 600, jump @16\n      : @627 [@dyn 300] (gas: 8)\n 17778: a1 = u64 [s1 + 0x88]\n 17782: u32 [s1 + 0x440] = a1\n 17786: i32 a0 = a0 + 0\n 17788: i32 a1 = s1 + 0x440\n 17792: a2 = 0\n 17794: ecalli 11 // 'return_data_copy'\n 17796: a0 = i32 [s1 + 0x440]\n 17800: jump @635\n      : @628 (gas: 3)\n 17802: a0 = s1 + 0xe0\n 17806: a1 = 0x40\n 17809: ra = 602, jump @7\n      : @629 [@dyn 301] (gas: 12)\n 17815: a0 = u64 [s1 + 0xf8]\n 17819: u64 [s1 + 0x90] = a0\n 17823: a0 = u64 [s1 + 0xf0]\n 17827: u64 [s1 + 0x88] = a0\n 17831: a0 = u64 [s1 + 0xe8]\n 17835: u64 [s1 + 0x80] = a0\n 17839: a0 = u64 [s1 + 0xe0]\n 17843: u64 [s1 + 0x98] = a0\n 17847: ra = 0x25c\n 17851: ecalli 12 // 'return_data_size'\n 17853: t0 = 0x25e\n 17857: jump @662\n      : @630 [@dyn 302] (gas: 1)\n 17860: t0 = 606, jump @662\n      : @631 [@dyn 303] (gas: 1)\n 17866: jump @638 if a1 != 0\n      : @632 (gas: 2)\n 17869: a1 = a0 >> 0x20\n 17872: jump @638 if a1 != 0\n      : @633 (gas: 6)\n 17875: a1 = a0\n 17877: u64 [s1 + 0x88] = a0\n 17881: i32 a0 = a0 + 0\n 17883: u64 [s1 + 0x90] = a0\n 17887: a0 = u64 [s1 + 0x98]\n 17891: ra = 608, jump @16\n      : @634 [@dyn 304] (gas: 8)\n 17897: a1 = u64 [s1 + 0x88]\n 17901: u32 [s1 + 0x4c0] = a1\n 17905: i32 a0 = a0 + 0\n 17907: i32 a1 = s1 + 0x4c0\n 17911: a2 = 0\n 17913: ecalli 11 // 'return_data_copy'\n 17915: a0 = i32 [s1 + 0x4c0]\n 17919: fallthrough\n      : @635 (gas: 2)\n 17920: a1 = u64 [s1 + 0x90]\n 17924: jump @638 if a0 <u a1\n      : @636 (gas: 2)\n 17927: ecalli 12 // 'return_data_size'\n 17929: fallthrough\n      : @637 (gas: 3)\n 17930: a1 = a0\n 17932: a0 = a0 >> 0x20\n 17935: jump @641 if a0 == 0\n      : @638 (gas: 1)\n 17938: trap\n      : @639 (gas: 4)\n 17939: a0 = 0x1\n 17942: a1 = u64 [s1 + 0x18]\n 17945: ecalli 13 // 'seal_return'\n 17947: fallthrough\n      : @640 (gas: 5)\n 17948: a0 = 0x1\n 17951: a1 = u64 [s1 + 0x18]\n 17954: a2 = 0\n 17956: ecalli 13 // 'seal_return'\n 17958: fallthrough\n      : @641 (gas: 3)\n 17959: a0 = u64 [s1 + 0x98]\n 17963: u64 [s1 + 0x90] = a1\n 17967: ra = 610, jump @16\n      : @642 [@dyn 305] (gas: 7)\n 17973: i32 a1 = a0 + 0\n 17975: a2 = i32 [s1 + 0x90]\n 17979: a0 = 0x1\n 17982: ecalli 13 // 'seal_return'\n 17984: a0 = 0\n 17986: ra = 0x264\n 17990: jump @22\n      : @643 [export #0: 'call'] (gas: 2)\n 17993: a0 = 0\n 17995: ra = 612, jump @22\n      : @644 [@dyn 306] [export #1: 'deploy'] (gas: 2)\n 18001: a0 = 0x1\n 18004: ra = 614, jump @22\n      : @645 [@dyn 307] (gas: 14)\n 18010: a3 = s1 + 0x100\n 18014: a0 = u64 [a3 + 0x68]\n 18017: a2 = u64 [a3 + 0x60]\n 18020: a2 = a2 | a0\n 18023: a0 = 0x100000000\n 18033: u64 [a3 + 0x60] = a0\n 18036: a0 = 0xfffffffc\n 18046: a1 = u64 [a3 + 0x78]\n 18049: a0 = a1 <u a0\n 18052: a1 = u64 [a3 + 0x70]\n 18055: a0 = 0 if a1 != 0\n 18057: u64 [a3 + 0x68] = a2\n 18060: a0 = 0 if a2 != 0\n 18062: jump [t0]\n      : @646 (gas: 13)\n 18064: a4 = s1 + 0x100\n 18068: a1 = u64 [a4 + 0x70]\n 18071: a2 = u64 [a4 + 0x60]\n 18074: a1 = a1 | a2\n 18077: a3 = u64 [a4 + 0x68]\n 18080: a2 = u64 [a4 + 0x78]\n 18083: a2 = a2 | a3\n 18086: a2 = a2 | a1\n 18089: a2 = a2 >> 0x20\n 18092: a1 = a1 | a3\n 18095: a1 = a1 << 0x20\n 18098: a1 = a1 | a2\n 18101: jump [t0]\n      : @647 (gas: 7)\n 18103: a1 = u64 [a2 + 0x78]\n 18106: a0 = a1 <u a0\n 18109: a1 = u64 [a2 + 0x70]\n 18112: a0 = 0 if a1 != 0\n 18114: a1 = u64 [a2 + 0x68]\n 18117: a0 = 0 if a1 != 0\n 18119: jump [t0]\n      : @648 (gas: 9)\n 18121: a1 = a1 <u 0x20\n 18124: a1 = a1 ^ 0x1\n 18127: a1 = a0 if a3 != 0\n 18130: a0 = a3 >u 0\n 18132: a2 = a3 >u 0\n 18134: a2 = a0 if a3 == 0\n 18137: a0 = a3 | a3\n 18140: a2 = a1 if a0 == 0\n 18143: jump [t0]\n      : @649 (gas: 11)\n 18145: a0 = reverse a0\n 18147: a3 = a0 << 0x20\n 18150: a1 = reverse a1\n 18152: a1 = a1 >> 0x20\n 18155: a3 = a3 | a1\n 18158: a0 = a0 >> 0x20\n 18161: a1 = reverse a2\n 18163: a2 = a1 << 0x20\n 18166: a0 = a0 | a2\n 18169: a1 = a1 >> 0x20\n 18172: jump [t0]\n      : @650 (gas: 12)\n 18174: a5 = s1 + 0x100\n 18178: a1 = u64 [a5 + 0x78]\n 18181: a0 = u64 [a5 + 0x68]\n 18184: a3 = u64 [a5 + 0x60]\n 18187: a3 = a3 | a0\n 18190: a4 = 0x100000000\n 18200: a0 = 0xfffffffc\n 18210: a0 = a1 <u a0\n 18213: a2 = u64 [a5 + 0x70]\n 18216: a0 = 0 if a2 != 0\n 18218: a0 = 0 if a3 != 0\n 18220: jump [t0]\n      : @651 (gas: 9)\n 18222: a0 = u64 [s1 + 0xa0]\n 18226: a1 = u64 [s1 + 0x80]\n 18230: u64 [a0 + 0x8] = a1\n 18233: a1 = u64 [s1 + 0x90]\n 18237: u64 [a0] = a1\n 18239: a1 = u64 [s1 + 0x88]\n 18243: u32 [a0 + 0x10] = a1\n 18246: a0 = s1 + 0x10f8\n 18250: jump [t0]\n      : @652 (gas: 11)\n 18252: a3 = u64 [s1 + 0x178]\n 18256: a0 = u64 [a3 + 0x18]\n 18259: a1 = u64 [a3 + 0x10]\n 18262: a2 = u64 [a3 + 0x8]\n 18265: a3 = u64 [a3]\n 18267: a0 = reverse a0\n 18269: a1 = reverse a1\n 18271: a2 = reverse a2\n 18273: a3 = reverse a3\n 18275: a4 = s1 + 0x10f8\n 18279: jump [t0]\n      : @653 (gas: 8)\n 18281: a3 = a3 | a2\n 18284: a2 = a0 | a1\n 18287: a2 = a2 | a3\n 18290: a2 = a2 >> 0x20\n 18293: a1 = a1 | a3\n 18296: a1 = a1 << 0x20\n 18299: a1 = a1 | a2\n 18302: jump [t0]\n      : @654 (gas: 9)\n 18304: a3 = s1 + 0x100\n 18308: a2 = u64 [a3 + 0x78]\n 18311: a0 = 0xffffffbc\n 18321: a0 = a2 <u a0\n 18324: a1 = u64 [a3 + 0x70]\n 18327: a0 = 0 if a1 != 0\n 18329: a1 = u64 [a3 + 0x68]\n 18332: a0 = 0 if a1 != 0\n 18334: jump [t0]\n      : @655 (gas: 11)\n 18336: a0 = reverse a0\n 18338: a3 = a0 >> 0x20\n 18341: a1 = reverse a1\n 18343: a4 = a1 << 0x20\n 18346: a3 = a3 | a4\n 18349: a0 = a0 << 0x20\n 18352: a2 = reverse a2\n 18354: a2 = a2 >> 0x20\n 18357: a0 = a0 | a2\n 18360: a1 = a1 >> 0x20\n 18363: jump [t0]\n      : @656 (gas: 10)\n 18365: a0 = u64 [sp + 0x10]\n 18368: a1 = u64 [sp + 0x18]\n 18371: a2 = 0x100000000\n 18381: a2 = a2 ^ a0\n 18384: a2 = a2 | a1\n 18387: a3 = a0 >> 0x20\n 18390: a3 = a3 <u 0x1\n 18393: a3 = 0 if a1 != 0\n 18395: a3 = 0 if a2 == 0\n 18397: jump [t0]\n      : @657 (gas: 13)\n 18399: a5 = s1 + 0x100\n 18403: u64 [a5 + 0x70] = a2\n 18406: u64 [a5 + 0x68] = a3\n 18409: a0 = a2 | a3\n 18412: u64 [a5 + 0x78] = a1\n 18415: a1 = a1 | a4\n 18418: a1 = a1 | a0\n 18421: a1 = a1 >> 0x20\n 18424: u64 [a5 + 0x60] = a4\n 18427: a0 = a0 | a4\n 18430: a0 = a0 << 0x20\n 18433: a0 = a0 | a1\n 18436: jump [t0]\n      : @658 (gas: 10)\n 18438: a4 = s1 + 0x100\n 18442: a3 = u64 [a4 + 0x68]\n 18445: a2 = u64 [a4 + 0x70]\n 18448: a1 = u64 [a4 + 0x78]\n 18451: a0 = u64 [a4 + 0x60]\n 18454: a0 = a0 + 0xffffffffffffffdc\n 18457: a0 = a1 <u a0\n 18460: a0 = 0 if a2 != 0\n 18462: a0 = 0 if a3 != 0\n 18464: jump [t0]\n      : @659 (gas: 9)\n 18466: a0 = u64 [a3 + 0x18]\n 18469: a1 = u64 [a3 + 0x10]\n 18472: a2 = u64 [a3 + 0x8]\n 18475: a3 = u64 [a3]\n 18477: a0 = reverse a0\n 18479: a1 = reverse a1\n 18481: a2 = reverse a2\n 18483: a3 = reverse a3\n 18485: jump [t0]\n      : @660 (gas: 12)\n 18487: a2 = u64 [sp]\n 18489: a3 = u64 [sp + 0x8]\n 18492: u64 [s1] = a2\n 18494: u64 [s1 + 0x8] = a3\n 18497: u64 [s1 + 0x10] = a0\n 18500: u64 [s1 + 0x18] = a1\n 18503: sp = s0 + 0xffffffffffffffc0\n 18506: ra = u64 [sp + 0x38]\n 18509: s0 = u64 [sp + 0x30]\n 18512: s1 = u64 [sp + 0x28]\n 18515: sp = sp + 0x40\n 18518: jump [t0]\n      : @661 (gas: 5)\n 18520: a0 = u64 [s1 + 0x178]\n 18524: i32 a0 = a0 + 0x24\n 18527: a2 = s1 + 0x7ff\n 18531: a2 = a2 + 0xf9\n 18535: jump [t0]\n      : @662 (gas: 12)\n 18537: a1 = u64 [s1 + 0x90]\n 18541: a2 = u64 [s1 + 0x80]\n 18545: a1 = a1 | a2\n 18548: a3 = u64 [s1 + 0x88]\n 18552: a2 = u64 [s1 + 0x98]\n 18556: a2 = a2 | a3\n 18559: a2 = a2 | a1\n 18562: a2 = a2 >> 0x20\n 18565: a1 = a1 | a3\n 18568: a1 = a1 << 0x20\n 18571: a1 = a1 | a2\n 18574: jump [t0]\n      : @663 (gas: 9)\n 18576: a1 = a1 | a4\n 18579: a3 = a3 >> 0x20\n 18582: a4 = u64 [s1 + 0xa0]\n 18586: u32 [a4 + 0x10] = a3\n 18589: u64 [a4 + 0x8] = a1\n 18592: u64 [a4] = a2\n 18594: a1 = 0x10f8\n 18598: a2 = s1 + a1\n 18601: jump [t0]\n      : @664 (gas: 8)\n 18603: a1 = sp + 0xffffffffffffffe0\n 18606: a1 = a1 & 0xffffffffffffffe0\n 18609: u64 [s1 + 0x178] = a1\n 18613: sp = a1\n 18615: i32 a0 = a0 + 0\n 18617: i32 a2 = a1 + 0\n 18619: a1 = 0x40\n 18622: jump [t0]\n      : @665 (gas: 4)\n 18624: a0 = 0x10f8\n 18628: a3 = s1 + a0\n 18631: a4 = a3 + 0x500\n 18635: jump [t0]\n      : @666 (gas: 7)\n 18637: a1 = a0 | a5\n 18640: a1 = a1 | a2\n 18643: a1 = a1 >> 0x20\n 18646: a2 = a2 | a5\n 18649: a2 = a2 << 0x20\n 18652: a1 = a1 | a2\n 18655: jump [t0]\n      : @667 (gas: 7)\n 18657: a1 = a0 | a3\n 18660: a1 = a1 | a2\n 18663: a1 = a1 >> 0x20\n 18666: a2 = a2 | a3\n 18669: a2 = a2 << 0x20\n 18672: a1 = a1 | a2\n 18675: jump [t0]\n      : @668 (gas: 5)\n 18677: a0 = u64 [s1 + 0x178]\n 18681: i32 a0 = a0 + 0x4\n 18684: a2 = s1 + 0x7ff\n 18688: a2 = a2 + 0xf9\n 18692: jump [t0]\n      : @669 (gas: 2)\n 18694: a3 = a2 & 0x40\n 18697: jump @673 if a3 != 0\n      : @670 (gas: 1)\n 18700: jump @672 if a2 == 0\n      : @671 (gas: 6)\n 18703: i32 a3 = 0x40 - a2\n 18706: a3 = a1 << a3\n 18709: a1 = a1 >> a2\n 18712: a0 = a0 >> a2\n 18715: a0 = a0 | a3\n 18718: ret\n      : @672 (gas: 1)\n 18720: ret\n      : @673 (gas: 4)\n 18722: a0 = a2 + 0xffffffffffffffc0\n 18725: a0 = a1 >> a0\n 18728: a1 = 0\n 18730: ret\n      : @674 (gas: 2)\n 18732: a3 = a2 & 0x40\n 18735: jump @678 if a3 != 0\n      : @675 (gas: 1)\n 18738: jump @677 if a2 == 0\n      : @676 (gas: 6)\n 18741: i32 a3 = 0x40 - a2\n 18744: a3 = a0 >> a3\n 18747: a0 = a0 << a2\n 18750: a1 = a1 << a2\n 18753: a1 = a1 | a3\n 18756: ret\n      : @677 (gas: 1)\n 18758: ret\n      : @678 (gas: 4)\n 18760: a1 = a2 + 0xffffffffffffffc0\n 18763: a1 = a0 << a1\n 18766: a0 = 0\n 18768: ret\n",
        "bytecode": {
          "object": "50564d00000c57000000000000010700c12001c000800380cc145916539c07e08b84f2a4d01fcd4413afdaa322977f4919e057646b6f18b4e3145916539c07e08b84f2a4d01fcd4413afdaa322977f4919e057646b6f18b4e3756c6176206461626e617274206565666961662072656673742072656c6c657320726566736e6172e85fa1904503a8a2c09660733d81e910b534cbce36323ba024a6a667ed87f6b96179756220746f6e206e776f6e6b6e7500676e697473696c74666e20796c6e6f6fcaf90a2f7ec7d256f8da007f1d55367b95e5f171bea19301d84e2699cb2ade2000000004812111000000000400000012000000200000002e000000340000003d0000004a0000005c00000067000000760000008300000093000000a3000000ae000000c0000000cb00000063616c6c63616c6c5f646174615f636f707963616c6c5f646174615f6c6f616463616c6c5f646174615f73697a6563616c6c6572636f64655f73697a656465706f7369745f6576656e746765745f696d6d757461626c655f646174616765745f73746f72616765686173685f6b656363616b5f3235367265665f74696d655f6c65667472657475726e5f646174615f636f707972657475726e5f646174615f73697a657365616c5f72657475726e7365745f696d6d757461626c655f646174617365745f73746f7261676576616c75655f7472616e73666572726564051302c049460463616c6cc05146066465706c6f7906c0e954813302c052496a00b201ce03d603ac04fb047c058705b805f8051e0688060d071907c807fb076208b308ed0833093d097909d509e1095f0a7b0aa40ab90ae90af40a2f0bbe0be70b3d0c720c770cb50cba0cee0c170d210d260d310d360d5b0d900d5c0e810e960e3c0f580f710f08102d1059106d10f7100311bd111b1252127d12d212dc12fc12441356137013b813dc13f913311437146114671489148f1428154e1568157c159515cc15d215fb150116231629164f165c167316a016c51601177017de17ef17ce18de18f6184019ae19fc19381a861aa51ada1ae01a031b481ba51b011c0e1c141c311c421c041d141d2c1dcf1db61fce1ff01f31207920ae20b420d7200d217121832189219321b221c221cc21eb21ff21592271228d22d522dc2400258125202648266f26f7263727a6274028a528b228b828d528e528c329112a422a4d2a532a602a662a852ab82a2b2b8a2b972b9d2bba2bca2b6d2c7a2ca52ce42c002d6e2d792d8b2dcd2d012e152e332e602e722e782e842ea32eb32ebf2edb2eef2e442f662f932fa52fab2fb72fd62fe62ff22f113025307f30bc30c230e73019314a315031753107320d32473293320533123308342e346534c8345d356735a735363661366c36aa36cc361f379037b237153847389a38c63828392e3937394d397339793982399739fc392b3a423a663a2d3b633b7c3ba03bd43b333c453c613c9f3c273d493d573da93db23dc03dd83dfc3d543e8f3ea53edf3e0a3f283f6e3f773f933fc23ffb3f014026408440e640494159411642244236425f427942a84214433e439c43f04323443244da441e454b45514572459745c445ca45e945354651465a469511e87b10107b15087b163306c800023905c8000251051c3307000103837783680a07013907c800022003c80002ac571082101082150882169511183200003908c8000251089c0a330700010383770a0e288f0a9511f07b10087b15648964753308206497501002f8037c78017c797c7a027c7b03978808d4980897aa1097bb18d4ba0ad4a8087c79057c7a047c7b067c7c07979908d4a90997bb1097cc18d4cb0bd4b909979920d489027c79097c7a087c7b0a7c7c0b979908d4a90997bb1097cc18d4cb0bd4b9097c7a0d7c7b0c7c7c0e7c780f97aa08d4ba0a97cc10978818d4c808d4a808978820d498037c78117c7a107c7b127c7c13978808d4a80897bb1097cc18d4cb0bd4b8087c7a157c7b147c7c167c791797aa08d4ba0a97cc10979918d4c909d4a909979920d4890a7c78197c79187c7b1a7c7c1b978808d4980897bb1097cc18d4cb0bd4b8087c791d7c7b1c7c7c1e7c771f979908d4b90997cc10977718d4c707d49707977720d487076f776fa86f396f2a7b5a187b59107b58087b57821008821595111032009511d87b10207b15187b161082897b19088289087b19828510828618330820501004b0026f686f59821a6faa821b086fbb787b18787a10787908787898bc38787c1f98bc30787c1e98bc28787c1d98bc20787c1c98bc18787c1b98bc10787c1a98bb08787b1998ab38787b1798ab30787b1698ab28787b1598ab20787b1498ab18787b1398ab10787b1298aa08787a11989a38787a0f989a30787a0e989a28787a0d989a20787a0c989a18787a0b989a10787a0a98990878790998893878790798893078790698892878790598892078790498891878790398891078790298880878780182102082151882161095112832009511a07b10587b15507b16489515608411e06476828718828910828a0882886f776f996faa6f887b18187b1a107b19087b17491138491130491128491120481140208318831a20831b403309ff33070a08821738821830821928821a206f776f886f996faa7b6a187b69107b68087b679551a082105882155082164895116032009511a07b10587b15509515608411e08272827a08827b108277188283828908828c108288186f746fbb6faa6f276f826fcc6f996f387b17187b1a107b1b087b147b18387b19307b1c287b12208318831a203309ff330b2033070a0f9551a08210588215509511603200951120ff7b10d8007b15d0007b16c8009515e0008411e082bc7b1c4082bc087b1c4882bc107b1c5082bb187b1b5833020682ab7b1b1882ab087b1b2082ab107b1b2882aa187b1a308296829a087b1a829a107b1a088299187b19107b18383300082892007b18385010088c006f687b187882186f887b18708218086f887b18688218106f887b18608218186f887b1898008218206f887b1890008218286f887b1888008218306f887b1880008218406f887b18b8008218486f887b18b0008218506f887b18a8008218586f887b18a0008379811a388317603308030a06955120ff8210d8008215d0008216c8009511e00032008b7910520931c8780883881f8488e05638000001253309d00002390ad00002ae8a093d08d00002013308e000028377c887073200009511f07b10087b158475010a03013d07cc000251050750100a5333000c951108f8951700077b70f0007b75e8007b76e0009515f807951100f89511f8f88411e064169569ff079599f9004929200749291807492908078000330740956800104929100733003c2896fc9511c0fb951700047b70387b75307b7628951540048411e095170003491738491730491728491720831720030a1001951b000382b73082b83882b92882ba20d49808d4a707d487075207c8043906cc000297672098772095771f8477e09578a000d87807951900037b987b970894777b97103307409518000349191850100e17fc3307a0006468501010dbfe8377646833090a010154165f8b04951900024929d8004929d0004929c000a0009517e0029518c0024929c8005010123633951900028297f8007b17488297f0007b1780008297e8007b17788297e0007b1770492998004929900049298000c0009517a0029518800249298800501014f632951800028287b0007b17408287a8007b17388287a0007b1730951760023308e0005010163bfa951a000282a77882a87082a968d487077b192898982088880194785108f203821760027b17203306e0000383677b1798000a04013807f000033a08e000033a09e80003d48707d497075107d303951700034917584917504917484917409517400295184003501018fdfb951800028287407b17688287487b17608287587b1788008287507b179000821798000a0482670881681082696f77977a206f88988820d4a8089877206f99979a20d4a707989920821a900098aa2097aa20d4a909951b0003491b78491b70491b68491b60821a88007bba98007bb990007bb788007bb88000951760039518800350101af9fb9517200233084050101c40f9951800028287387b17188287307b17508287287b17588287207b178800821798000a0482670881681082696f7a97a7206f88988820d4870798aa206f99979820d4a808989920821a900097aa2098aa204921d8014921f8017b1af001821a607b1ae801821a687b1ae0013a0a0000023a0b0800023a0c1000023a061800027b1a1802951a00027bab107bac087ba67b19d0017b18c80195190002951ae001951bc0017b17c0013307330850101ea7fb951800034928b8004928b0004928a8004928a000014928d8004928d0004928c8004928c000019517a0039518c0035010200bfb82198000979720987720821a78821b70d4ab08d487075207370182178800821950d49707821858821618d46808d48707987720d49808978820d487075207d301492150014921480149214001140700000000a079c308951840017b1758018217880050102231f9821750d46709140600000000010000001407fcffffff0000000082188800d878078218589487949751078001821788008377044921380149213001492120012095182001492128017b199800501024e0f8821998009567dc82188800d87807821858948794975107420182168800836724492118014921100149210001059518000149210801501026a6f81407bcffffff00000000d87607821858948782189800948751070501821688008367444921f0004921e8001408000000303d74666e7b18f8009518e0004921e00050102860f8330864646750102a25fb83783307013309640a0d013306ff1407ffffffff000000007b1798007b1ba0017b1aa8017b19b001330780009518a0018219487b19b80150102c1af8821920989720821828978820d48707979820821930d26909821a38d26a0a821b40821c9800d2cb0bd4b808951c0003492cf800492cf000492ce800492ce00002951b00047bb7187bb8107bba087bb99517e0039518000450102e31f99517800133084050103078f682179801821890018219880182168001d49707d48609d47909989920d48707977720d4970751079500003308e00002838833070133090a0d28213308e00002838833070133090a0d28113308e00002838833070133090a0d014921d0004921c8004921c000140700000000f7bd4f1e9518c0007b17d800330750103234f74921b8004921b0004921a8003307049518a0004921a00050103418f73908d0000256183f0b2003d0000240013308e0000283883307013309240a0d0164673308501036bef98377330833090a019517600133088000501038a0f58217780182197001821a6801821b60013e071801033e091001033e0a0801033e0b0001032862f56467330850103a79f98378330733090a0d2849ff3307cc00027b6778013907cc00025517040728be289517e08477e064714917184917104917087b67e800490795670010837720330833003e0a0201956aff0795aaf90081a7440751475bcba58d800951474a096ad9190651477be574de00019569f810514753d8a9247503514740489046a002524702cacc47430449196049195849195049194895670010837740010a1001956af81082a75882a86082a95082aa48d49808d4a707d4870751070628f8258267780181775617030728f525956780023308405010409bf495680002828798007b677801828790007b677001828788007b676001828780007b6768015010421ef4956b000182b77882b860d4870782b868648a82b970d49808d47808988820d49707977720d48707520760093a090001033a08080103380710010349267802956b00027bb7707bb868956860027bb96064a750104456f5330820826768013300b4012815f89567f8104927600549275805492750054927480595670010837740063300460a1033024828513c5012484e3c82b75882b86082b95082ba48d49808d4a707d4870751070628a52582677801817756172307289825956700108377600633080433004a0a0233024c280e3c50124c0b3c82b76882b87082b97882ba8000956bff0795bbf90095bc00067bca207bc9187bc8109568ff07958801077bc708330750104ea5f49569ff079599f900492900064929f8054929e805033307209568ff079588e1064929f0055010507cf4330840330750105241f75012548a3b3300560a09330258281e3a5012581b3a95bc00057bcaa0007bc998007bc890007bc788009567ff079577c1069568801650105a2af59567ff079577f900957900058298d800956700017b78688298d0007b78788298c8007b78709567ff079577a10633084050105cc9f2956aff0795aaf90095ac000582cbc00082c8b80082c9b00082c7a800d49b0bd48709d4b909989920d4b808978820d498085208ad07956b000182b868978820988920492aa00582b87095ac00057bc8880082b8787bc890009568ff07958881067bc998007b6778013300b2012892f349192049191849191049190895670010837700010a1001956bf81082b71882b82082b91082ba08d49808d4a707d48707510706287c2382677801817756170307287923491b40491b38491b30491b2802956740029568201150105e29f482675002956800017b8768826748027b8778826740027b877095672002330840501060d8f1956b000282ba3882b83082b92882b720501262d8385208d806956a000182a8689788209889204926180282a870956b00027bb882a8787bb808956800027bb9107b6778013300b20128c5f2492ae007492ad807492ad007492ac807956700108377c0000a1001956aff0795aaf90095ab000782b7d80082b8e00082b9d00082bac800d49808d4a707d4870751070628b3228267780181779569f8105617030728ac2249094919f84919f04919e8029567e0019568e01050106449f38267f8017b6778018267f0017b6770019567c00133084050106601f1956b000182bad80082b8d00082b9c80082b7c000501268fd375208fd05956b000182b97098992082ba7897a820d4890998a8204926b8014926b0017bb8a8009568a0017bb9a0007b6778013300b20128e7f15147688e807d0a282522492900014929f8004929f0004929e800956700108377e0010a1001956af81082a7f80082a8000182a9f00082aae800d49808d4a707d4870751070628602282677801817756174307285d229567600450106a4a29956800048287787b6740018287707b6748018287687b6750018287607b67580150106cd8ef3a080801037b6878013a080001037b68700138071001037b6768013307e000037b676001837733006e0a0401956c000182c9608297088298819910501270383782c968d3980882c970d39707d4870782c878d3a808d487075207ea0495670010837700023308240a029567f810957b000182b82082b91882ba1082b708956b00017bb8787b6878037bb9707b6970037bba687b6a68037bb7607b67600382b7407b67980382b7487b67900382b7507b6788039567a003956880039569600382ba587b6a80035010720a2d9567400333084050107456ef956b000382b75882b85082b94882ba40d49707d48a09d47909989920d48707977720d497075207460495690001829760956b00037bb7208297687bb7288297707bb730956820038297787bb73864a77b9a783300b2012835f08267780181775617230728fd2095670010837760023308040a029568f81095890001829780007b67c8008297787b67d0008297707b67d8008297687b67e0004928a001492898014928900149298800019567ff079577610695688012501076c8f0956aff0795aaf90095ab000582b7800082b87082b96882ba78d48707859802d4a808d487075207062888209568f8104928c0014928b8014928b0014928a801014928e0014928d8014928d0014928c801029567a0129568c012501078ebf09569ff079599f9008267c800959a00057ba7608267d0007ba7588267d8007ba7509568ff07958841068267e0007ba748330750107a41ef9568ff079588f9004928400549283805492828050364893307209568ff07958821064929300550107c16ef9517e08477e07b67780164713309d000023907d0000256173f0b2003d0000240017b69a8009517e08479e07b69700164913307e000027b67b800837783993308407b67b00033007e0a09826a700133028000285335826a7001502280004c35826b78017bba187bb9107bb8087bb79567ff0795770106330840502082005eed9568ff079588f900958c000582c7207b67700182c9187b69680182ca107b6a600182cb087b6bc0007bc7958c00047bc9f8007bcaf0009567ff079577e1057bcbe8005020840059269567ff079577c105826878015020860030ef8267c000956b000182b87082b960d4890982ba685022880077355208fe019569ff079599f9008298d804829ad0047b6a7001829bc8047b6b7801978820988c207b6c68014929c0047b9ba8047b9ab0049568ff079588a1057b9cb80450208a00dced95690001829778829870d48707829868d487075207a2029567800533084050208c007eec95680005828b9800828c9000828a880082878000d4ba0950228e00da3452087501492670054926680549266005140900000000a079c308956860057b6978057b6778017b6a70017b6b68017b6c60015020900063ed50229200cd32510737018387044926580549265005492640052095684005492648057b6a68017b6b60015020940033ed50229600a533510707018387244926380549263005492620050f9568200549262805502098000bed50229a00f7325107df008397443a089000023a099800027b681805492608057b69100595680005492600053300b20028d6ec9567f8104927400149273801492730014927280195670010837720020a1001956bf81095bc000182c73882c84082c93082ca28d49808d4a707d4870751070628c21d8267780181775617030728bf1d492b6001492b5801492b5001492b48019567c0049568401250209c005eed8267d004956800017b87688267c8047b87788267c0047b87709567a00433084050209e000ceb956b000482bab80082b8b00082b9a80082b7a0005022a000073252080628651d00956740043308405020a200deea95680004828b58828c50828a48828740d4ba095022a4003e335208d9492630044926280449262004140900000000a079c308956820047b6938047b6778017b6a70017b6b68017b6c60015020a600c8eb5022a800323151079c8387044926180449261004492600042095680004492608047b6a68017b6b60015020aa0099eb5022ac000b3251076dff8387244926f8034926f0034926e003089568e0034926e8035020ae0071eb5022b0005d31510745ff8397443a08a000024926d0034926c8037b68d8039568c0034926c0035020b20045eb330864826778015020b40007ee83783307013309640a0d3300b6002896e95020b60093e93a08100103956900017b98683a080801037b98603a070001037b97709567ff07957781053308405020b800bae9956bff0795bbf90082b3a00495b80004828c9800828a900082878800d43a095022ba000e325208a9fe492b7804492b7004492b6804140200000000c8c738e79568ff07958861057bb280047b6778017b6358017b6c50017b6a48015020bc0093ea956b000182ba7882b75882b850d487071408fcffffff00000000d88a0882b94894989478510849fe140700000000240000007b67980083a7048268e000956bff0795bbf90095ba00047ba8488268d8007ba8508268d0007ba8589568ff07958841058269c8007ba9605020be0024ea0a0a826760016f77977820826968016f99989920d4890b826870016f88978920330ae000037b6aa000987720d497079888207b6780003e07e800037b6b90003e0be000037b6888003d08f000039567f810492700024927f8014927f0014927e801330824826778015020c00085ec7b677001330820826778015020c20074ec9568f8104828080220492840024928380249283002492828028268a000978820988920140800000000180000007b6978d489029568e01297882098882095692013979920d4890a82687001978820988820826b9800d48b0b97772098772095680013978820d4780c3308ff3309ff7b62700164270a0152072f020a0c01330c20aec7080a0c647c019569ff079599f900826a7801826258018267500182684801492660017b6c68017b9ce803959b00047bba084929f0037bb8104929f8037bb718492900049567ff07957701059568ff079588e1047b9220045020c4009e21826a60018ea7826868015022c600f12d52090628961d9567ff079577c104826878015020c80064e7956aff0795aaf90095ab000382b7e00082b8d80082b9c80082bad000d4780b889c0294ac94bc520c06287b1dd49808d4a707d487077b6778019567ff079577a1043308405020ca001ae79569ff079599f900829cc003829bb8038294a8038292b003d4b408d4c207d4cb03826a7801520aef01d47808988820d4b707977720d487075207f6fb492610064926080649260006140700000000a079c308956800067b67180664477b6468017b6260017b6358015020cc00e6e7956b000182b868140a00000000010000001407fcffffff00000000d8780782b960949782b9589497510798fb8387044926f8054926f0054926e005209568e0054926e8057b6a78015020ce0098e7956b000182ba5882b96082b86882b7789577dcd87807949794a7510758fb8387244926d8054926d0054926c0050b9568c0054926c8055020d0005ce7956a000182a9681407bcffffff00000000d8790782a860948782a8589487510718fb8397443a088800024926a8057b68b80514080000000000656c627b68b0059568a0054926a0055020d2000ee7330864826768013300b40028cce99567ff07957721053308405020d400b5e59567ff079577f900957900048298407b6870018298387b6868018298307b6860018297287b6778013300d6000a0c3302d80028b92b5022d800b62b52088efa6479987720520785fa83977b6770018267780164987b6968015020da0060e99568f810826968017a8948028377956800108388400333090a0b9567f810817748020182687001ac8744fa0a0c016478987720520738fa826778017b6870015020dc001be98378816970013307010a0d01d47808988820d4b707977720d4870752070bfa7b6b50017b6c78014929980349299003492988031407000000007d6d18b99568ff07958881047b97a00364477b6468017b6260017b6358015020de00efe595690001829a681407fcffffff00000000d87a07829860948782985894875107abf983a7048268e000956bff0795bbf90095ba00037ba8688268d8007ba8708268d0007ba8789568ff07958861048269c8007ba980005020e00093e53300e2000a0a3302e40028232b5022e400202b49278002492778024927700249276802330824826768015020e60032e87b675801330820826768015020e80021e89568f81048288802204928c0024928b8024928b0024928a802956860139788209888209569a013979920d4890a82685801978820988820826b9800d48b0b97772098772095688013978820d4780c3308ff3309ff826770010a015207cc030a0c01330c20aec7080a0c647c019569ff079599f900826a6801826760018262780182685001492670017b6c7801959b00037bbc087bba28492910037bb730492918037bb838492920039567ff07957721049568ff07958801047b9240035020ea00681d826a70018ea7826878015022ec00bb295209062860199567ff079577e103826868015020ee002ee39567ff079577f900827800037b6860957900028298f8007b68588298f0007b68508297e8007b67689567f810492700034927f8024927f0024927e802956700108377e0030a1001826458826360826250826c68956bf81082b7000382b8f00282b9e80282baf802d33707d32808d48707d34a08d3c909d49808d4870752075403492b2003492b1803492b1003492b0803029567ff0795772103956800145020f000b7e48260689562ff079522f9008228400282293802822730027b67289787207b6930989920d49707988320d67009826850ca780ac8a909d8a90ad6780bc8ba0aca300bc8b9097b6948d8b909d6300bc8b909c89a0bca380cc8bc09d8c90cd8ab0ad6380bc8ba0ac8ca0a7b6a7001826a58caa30b826460ca740cc8cb0b7b6b7801d4a00b644c82647001d48c0cd4cb0864acca7a0bc89b0b7b6b40d89b09822a28027b6a20d67c0b826c7801c8bc0cc8c40ac89a0a7b6a70510841826a70d34a02826a70d84a0adb2a09d8bc02826a608eab8e3cd2cb0bd67a0c8ecc826a58d6a3088e88d4b808d4c808d42808826a70d4980851080628a319ca7002826040d40207826448d4a408d487078877017b6778016807957740826870688b826870da870b68279577406848da470895878000826970d49009da970bd8870a949a8eac88b7f300857901daa90c88c7019577ff9ac39aaac99a099ab8f2008e3a8e7bda7a0b8e9a7b68580188880001858801db9a08dbcb08826a7801d4a808826b7064bc948c948094847b6238948252081905826858018588ff00d43808d4790ad4a80851080405826c580195ca017b6a780188a801c898087b687001d4a808888801c838087b686001d83808c887077b6768019ac8ff007b6848019a8980008267388268485020f20056297b6750017b683801826740826870826948015020f40064297b67400182673801d487077b673801826858019a897f8267388268485020f600422982694801889b80007b6b5801826a3801dbba08826a70da9a087b68180182685001826a4001d4a808dab708826740da97087b6850018267388268485020f8000129956c000182c97082ca68d4a90982ca7882cb60d4ba0ad4a90982ca5893a87bc84893a77bc7585209e901330c492608018260180128cf039567ff07957741043308405020fa00e1df9567ff079577f900957900038298607b6870018298587b6868018298507b6860018297487b6778013300fc000a0c3302fe0028e5255022fe00e2255208baf464799877205207b1f483977b6770018267780164987b696801502000018ce39568f810826968017a89c8028377956800108388c00333090a0b9567f8108177c802282dfa9567ff079577c103330840502002014ddf9569ff079599f900959c000282cae00082cbd80082c7d00082c8c800956c00017bc7707bca68d4a7077bc878d4b808d478089888207bcb60d4b707977720d48707520720f44929b8024929b0024929a80233020401140700000000a079c3089568ff07019588a1037b97c002826778015020060111e050220801d7245107e5f350220a0168274929a0024929980249298802209568ff07958881034929900250200c01e2df956900018297609577dc50220e01fb245107acf3502210019226492980024929780249296802099568ff07958861034929700250201201a9df1407bcffffff000000009569000150221401be2451076ff3826778018377443a084000029569ff079599f900492950027b986002140800000000000000657b9858029568ff0795884103492948023300b2002851df4926000110278267780195798082674082687050201601b3267b6738017b68400182673882684882697801502018019b267b6730017b682801826878019a89800082674082687050201a01a52682692801d4980882697801889a80007b6a2001826b4001daab08826b48da9b087b68400182683001d4870782683801daa807826838da98077b67380182674082687050201c013726330c49262801956a000182a92093987ba83093977ba72082a89589ff7b69f8008e899599ff7b69f00082601801017b6c1001492608018268380198893f826c400197ca01d49a03978901980b3fd49b0b7b6b1801826af000d33a0782644801d83a088269f800d8b902db78028268300197880182672001987b3fd4b8087b68300198cb3f977701d47b0b97070182685001988c3fd4c709978c0198483fd4c808974c018267580198703fd40c04977701826c1001d4c7077b675801826c2801d44c077b674801d48c077b675001d49c00c9ba07d82707d8ba0882643001c94a0cc98c0cc97c0c99c23f82670001d2720782691801c979087b683801d87908c983077b6740019438c98b077b672001d88b08c98408956700017b7830827a78827870d48a09889901827b60d89b0cc99b0b88a901c99808827968c9c90995aaff7b78707b7968d489097b7a78d4ba0ad4a909842c017b7b60492628015209d3fe8269500198973f970801d48707826a480198a83f979901d49808826b580198b93f97aa0197bb01d4bc02826c0801d4c909d4a904d48c00d47c0c826b70017b6060017b6c68017b6470017b627801826948989704826a4097a83cd4870782683898880497993cd4980888887102947898a704d4b70794785208de001408ffffffff000000008269208499ff826a2884a7ff826a30d2a808d49707d487075107b80033001e010a0a018268286f88978920826a306faa98aa20d4a909826a206faa97ab2098882050222001962382687001959a00037ba830826878017ba828826860017ba838826868017ba840482948038e77fc089a787ba880007ba8787ba8707ba868977723826878d487079568201497882098882095696014979920d4890a826bb80097bb2098bb2095684014978820d4b80c3308ff3309ff0a7b6758019567ff079577c102502022012516826758015207ae0982676882687801d8870782605082627001d32009d820087b675801da970882675882646001d8470c82696082636801d3390ad8390b7b6c5001daac0bd3470cd4ca0adaa80b510b06285012c9470ac9390b82675001c97b0bd88a09c99b0b7b6b6801c98a0a7b6a6001c9200882675801c978077b67700182676882687801c987077b6778019567ff07957701028268c000502024013ada9567ff079577f900957900018298087b6858018298187b6850018297107b674801330026010a0a01826848016f88978920826a50016faa98aa20d4a909988820826a58016faa97ab2050222801272282686001959a00037ba89800826870017ba89000826878017ba88800826868017ba8a0004829a8038e77fc089a787ba8e0007ba8d8007ba8d0007ba8c800977723826878d48707956880149788209888209569c014979920d4890a826bb80097bb2098bb209568a014978820d4b80c3308ff3309ff0a7b6778019567ff079577e10150202a01af148267780152070907826788008268a0007a8710826780007b8708826790007b8783877b6768010a050152070628770f9567ff079577210133084050202c0123d99567ff079577f900827840827938827a30827b28956c00017bc8607bca70d48a077bcb78d49b08d478089888207bc958d49707977720d4870751070628fbed9569ff079599f900491918491910491908140700000000301bcb2c9568ff07958801017b97208267780150202e01eed9826768010a0401956a000182a76082a858d47809140700000000010000007ba7481407fcffffff0000000082a878d8780782a87094877ba9509497520706288aed8269a00082970881981082996f77977a206f88988820d48a0a9877206f98978920d4790998882082677801837704956bff0795bbf900490b7bb8f8956800107b89e8f89568ff079588e100956900107b9ae0f85020300154d9956900018297489577dc829878d87807829870948782985094875207062811ed826778018377248268e000956900107b98c0f88268d800956900107b98c8f88268d000956900107b98d0f89568ff079588c1008269c800956a00107ba9d8f850203201efd8330034010a0a33023601287f1e502236017c1e492700044927f8034927f0034927e80333084482677801502038018edb7b67500182677801330850203a017edb9569f81048290804959a0004491a40ff491a38ff491a30ff491a28ff14080000000008000000826978d489029568e01497882098882095692015979920d4890a8268500197882098882014090000000044000000d4980b97772098772095680015978820d4780c3308ff3309ff7b62500164270a015207140795670010492778f895670010492770f895670010492768f895670010492760f882677801956800107b8780f882677001956800107b8788f882675801956800107b8790f89567ff07957781009568ff0795886182696001956a00107ba998f850203c01a9108267e80049171849171049170849078267c800956800107b8758f88267d000956800107b8750f88267d800956800107b8748f89568ff079588418267e000956900107b9740f8330750203e0183d795670010492738f895670010492730f895680010492820f8033307209568ff0795882195690010492928f85020400152d733084033075020420116da502244015e1e330046010a093302480128ef1c50224801ec1c95bc00047bca80007bc9787bc8707bc768956760158268e80050204a0182d88267a000826880007b7808826890007b78826888007a7810826768010a050151079b079567ff0795770133084050204c01a2d595670010827718f895680010828910f895680010828808f8956a001082aa00f8956b00017bb7707bb858d487077bba78d49a08d478089888207bb960d49707977720d48707510706286eea4926f0074926e8074926e00714070000000088a4a55a9568e0077b67f8078267780150204e0169d6956a000182a77082a860d487071408fcffffff0000000082a978d8890882a95894989478520806281cea826778018377048268e000956a00077ba8c0008268d8007ba8c8008268d0007ba8d0009568c0078269c8007ba9d800502050010ad6330052010a0a33025401289a1b50225401971b4927a0044927980449279004492788043308248267780150205601a9d87b6748018267780133085020580199d89569f8104829a804959a0004492ae000ff492ad800ff492ad000ff492ac800ff956880159788209888209569c015979920d4890a82684801978820988820826b9800d48b0b9777209877209568a015978820d4780c3308ff3309ff826750010a015207e10449267807492670074926680749266007826778017b678007826758017b678807826760017b6790079567800795686007826970017b69980750205a01ff0d9567400733084050205c01e0d3956800078287587b6770018287507b6760018287487b6758018287407b6778018267680133005e010a0401956a000182a77082a858d4870782a878648b82a960d49808d47808988820d49707977720d48707510706289fe88269a000829708819810829950226001031a492638077b6830077b672807956820077b6a200764b75020620194d4826ac8007b6ad8068269d0007b69d0068268d8007b68c8068267e0007b67c006647b7b6af8067b69f0067b68e8063a076800023a087000023a097800027b6be006956c00077bc7187bc8107bc9083a0780000233082095690007956ae006956bc0067bc7826778015020640102d682676801330066010a04018269a0008297088198108299502268015c198269c800956b00067bb9788269d0007bb9708269d8007bb9688269e0007bb960492698067bb890007bb788009567a00695688006956960067bba800050206a0135109568f81049282005492818054928100549280805014928400549283805492830054928280501956700169568201650206c0106d5285c079567ff079577c10133084050206e0145d29567ff079577f900827ae000827bd8008279d0008278c80050227001b2195107062838e79569ff079599f9004929b8004929b0004929a80033027201140700000000a079c3089568ff07019588a1017b97c000826778015020740122d350227601e81752070628f3e650227801771a4929a0004929980049298800209568ff07958881014929900050207a01f1d2956900018297609577dc50227c010a1852070628b8e650227e019f1949298000491978491968149568ff079588610149197050208001b9d21407bcffffff000000009569000150228201ce17520706287ce6826778018377443a085800023a09600002956aff0795aaf9007ba8607ba9581408000000006c6961667ba8509568ff0795884101491a483300b200285ed29567ff079577a1023308405020840116d19567ff079577f900957c000182cac00082cbb80082c9b00082c8a800502286017f185107062805e69569ff079599f90049299801492990014929880133028801140700000000a079c3089568ff0701958881027b97a0018267780150208a01efd150228c01b51652070628c0e550228e014419492980014929780149296801209568ff07958861024929700150209001bed1956900018297609577dc50229201d7165207062885e5502294016c18492960014929580149294801119568ff0795884102492950015020960183d11407bcffffff00000000956900015022980198165207062846e5826778018377443a084800023a09500002956aff0795aaf90095ab00017bb8407bb9381408000000000000006c7bb8309568ff0795882102492a28013300b2002823d19567ff079577a10033084050209a01dbcf956700108277b8f87b677001956700108277b0f87b676801956700108277a8f87b676001956700108277a0f87b67780133009c010a0c33029e0128d71550229e01d41551080628a9e498782051080628a0e464787b67680183777b677001826778015020a0017cd39568f810826968017a8948048377956800108388400533090a0b9567f81081774804281dea9567a0073308405020a20141cf956800078287b8007b6770018287b0007b6768018287a8007b6760018287a0007b6778013300a4010a0c3302a6012849155022a6014615510806281be49878205108062812e464787b67680183777b677001826778015020a801eed29568f810826968017a89e8048377956800108388e00533090a0b9567f8108177e804288fe93308e000028388282e023308e0000283882824023308e000028388281a023308e0000283882810023308e0000283882806023308e00002838828fc0152478be3fdf246019567f8104927c0054927b8054927b0054927a805956700108377a0063300aa010a103302ac0128bc165022ac01b91682b7b80082b8c00082b9b00082baa800d49808d4a707d4870752070e826778018177561723cb01330733083300ae012821d233085020ae011cd283783307012894013308e0000283882879013308e000028388286f013308e0000283882865014926f0044926e8044926e004140700000000b5aee53e9568e0047b67f80433075020b00101cf3908d0000256181f0b2003d0000220013308e0000283883307013309040a0d3308e0000283882816013308e000028388280c013308e000028388280201956a000182a8689788209889204926980482a870956b00047bb8800082a8787bb88800956880047bb990007b6778015020b2018fce330820826778015020b40151d1837833092033070a0d01524759de4809579567ff079577f90049276007492758074927500749274807956700108377400a1001956aff0795aaf90095ab000782b75882b86082b95082ba48d49808d4a707d48707510708023308e000028388285e5247a61850714a9567f8104927800049177849177049176895670010837760010a1001956af81082a77882a8800082a97082aa68d49808d4a707d487075107d5013308e00002838828148267780181770151072b3308e0000283880133070133090a0d3308e00002838833070133090a0d3308e000028388330728f33308e000028388330728e89567ff079577e1075020b6014b059567ff079577f9008278f0067b6870018278e8067b6878018077f8067b6768015020b801cb0895690001829778829868d48707829870d487075107c1011407ffffffff000000007b6760019567ff079577c1078268e8005020ba0121ce9567ff079577f900957a000682a9d8007b69480182a8d0007b68580182a8c8007b68500182a7e00098982097882082696801d498089569f810826a7001959b00057bbad000826a78017bbac8007bb7e0007bb8d8009568c0168267e8005020bc013fce956c000182c7508477ff82c9588498ff82c96082ca48d2a909956bff0795bbf900492b800682ca687bba780682ca707bba700682ca7895bc00067bca68492ba0067bc998007bc890003a082000023a092800023a0a3000027bc788007bc8c0007bc9b8007bcab00064b83a073800029569ff079599a107956aff0795aa8107956bff0795bb61077b87a806330733085020be0113ce330733085020c001fcce837833072875fe826778018177561743293308e000028388330701285efe82677801817756170319013308e0000283883307012846fe956780015020c201ac03826790017b676801826788017b677001826780017b677801956700108377603308240a02019569ff079599f900959a000782a7800082a87882a970d487077b69600198982088880194785208ab013308e00002838833070128e1fd9567ff079577f9004927580649275006492748066479140700000000f7bd4f1e9568ff07958841077b97600633075020c4015ecb9567ff079577f90049274006492738064927300664793307049568ff0795882107492928065020c60133cb33082433075020c801f7cd83783307013309240a0d013307018268b0000a0d3307018268b0002859fd8268b0000a0d3307018268b0002849fd3307018268b000283ffd5020ca014f069567f8104927a00049279800492790004927880095670003956880115020cc01bacb956900038298107b68680182977b6778018297087b6770018297189888209788209569f8104929c0004929b8004929b0004929a8004929d0004929c8007b97e0007b98d8009567a0119568c0115020ce01e8cb956b000182b7689777209877204926b8024926b0024926a8024926a0024926d802956c00027bc7d00082b7707bc7c8003a072000023a082800023a0930000282ba787bcac0007bc7f8007bc8f0007bc9e8003a073800029569e002956ac002956ba0027bc7e000330733085020d001e0cb3308e00002838833072847fc9567ff079577f900827768077b6758015020d2014705956b000182b95898972082b860978820d4870797982082b968979920989920d49808956aff0795aaf900492aa007492a9807492a900795ac0007492c88000282b9707bc9b00082b9787bc9a8007bc7c0007bc8b800956780109568a0105020d401f2ca3308e000028388330728c2fb492650064926480649264006140700000000717b484e956840067b67580633075020d6014dc94926380649263006492620061133070495682006492628063300da01282bc99567ff079577f9004927180249271002492708026479140700000000717b484e9568ff07958801037b97200233075020d801fac89568ff079588f900492800024928f8014928e8011164893307049568ff079588e1024929f0015020da01cec88267a800817756173f148268a80048084033070133092428adfd33070133092428a4fd9511c07b10387b15307b16289515408411f0828910828a18828b088288d4ba0ad4980bd4ab0b98bb20d4a909979920d4b90952091e647664175020dc0132c75022de01950e510a0c5022e001060f3200003308e00002838833070133093300e2010a0d019511c07b10387b15307b16289515408411e0647683173308043300e4010a023302e601284d0e5022e6014a0e510a0b5022e801bb0e32003308e00002838833070133093300ea010a0d019511907b10687b15609515708411f0827a1882791082738277088eab8e9cdbab0c8e72883be085bb01db720bd4a908db8c0b520b41953820d8380bc8b70cd87c07dabb07c89707d89709c8a9097b18407b1c487b1750330740c871087b19585020ec0198c79551908210688215609511703200491130491128491120140700000000717b484e9518207b173833075020ee0169c749111849111049014133070464184911085020f00152c73908d0000256183f0b2003d0000240013308e0000283883307013309243300f2010a0d01951170ff7b1088007b1580007b1678951590008411f064728289827408828c088273959a1fd89a00c80c0984aae07b1308c8a303d8a30bc8490ac8ba0ad39a06d89a07da6b07822b18d8c90c828610822210828818da000cc86c0cd86c06c82c09c89707d8c90cd89709c8b808c86808c8c808c8980c8ec88e79dbc809d4c7088ea6db8906520657821808d88308d34a09d84a06da9806d82708d3bc09d8bc0bda980bd32708d49808da860b520b307b13507b1a587b17603307409518507b1c685020f40167c6955170ff8210880082158000821678951190003200491140491138491130140700000000717b484e9518307b174833075020f60131c6491128491120491110413307049518104911185020f80118c63908d0000256183f0b2003d0000240013308e0000283883307013309243300fa010a0d01951120ff7b10d8007b15d0007b16c8009515e0008411e064760a0c0151070c017b16180a0c64769517a0003308405020fc0186c48219b800821cb0007b1c388212a8007b12308213a0007b132895671f7b1620d8670864968477e0957920d87907c8780ad88a0bda770b4911787b19607b1698007b1c90007b1288007b1380007b1a68951780009518607b1b705020fe0139fe821728821930d46909821a3850220002a20c520882004911584911504911489518408219207b19405020020233c50a0c01821a287b1620821838d468081409e0ffffff00000000d89a09821b3094b99489510943647698772052073b83a72083687b1810646850200402c4c77a16c00083778318c00033090a0b01821b288117c000821618821820821938821a30821c10aec70e00330a33093308330b60017b6b7b6a087b69107b6818955120ff8210d8008215d0008216c8009511e0003200951140ff7b10b8007b15b0007b16a8009515c0008411e04921980049219000492188004921800095176095188000502006025fc58217687b17188217607b17108017707b17083306e0000383677b17330008020a0401826708826881691050220a024f0a821908d39808821910d39707d48707821818d3a808d48707520719955140ff8210b8008215b0008216a8009511c0003200491150491148491140140700000000a7da8c119518407b1758330750200c02ebc3821733000e020a040182670881681082695022100227094911387b18307b17283307049518207b1a2050201202bcc33908d0000256183f0b2003d0000240013308e000028388330701330924330014020a0d01951120fb951a00047ba0d8007ba5d0007ba6c8009515e0048411e06416829a187b6a78829a107b6a8000829a087b6a880082997b6990008289107b69488289087b695882887b68507b67289567a0033308405020160206c2956b000382b7b8007b67980082b8b0007b686882b9a8007b696082baa0007b6a707bb798007bb890007bb98800956780037bba8000502018020efb82677082689800826960d48909826a6850221a02420a52086d071408ffffffff000000007b6868826848978820988920492678038268507b6860038268587b686803956860037b69700350201c02b5c28267787b675803826780007b675003826788007b67480395684003826790007b674003330750201e028ac2492638034926300349262003033307209568200349262803502020026cc29517e08477e07b67980064713908d0000256183f0b2003d0000240019517e08479e07b696064913307e00002837783993308407b6718330022020a09826a603302240228b708826a6050222402b108826b98007bba187bb9107bb8087bb79567000382687050202602c7c08267000382680803826910038477ff7b67708488ff7b6860826768d297077b67689567e0028268980050202802c4c28067f4029777208268f802826968d49707826960956a00037ba9c8008269707ba9c0007ba8d8007ba7d0009568c0038267980050202a020cc350202c0205c03a081001037b68483a080801037b68403a070001037b67709567c00233084050202e0234c0956b000282b9d80082bad00082b8c80082b7c0007b68587b6968d48909d4a708d498089888207b6a60d4a909979920d498085208ba054926b0024926a8024926a0021409000000007d6d18b99568a0027b69b8027b6798005020300210c182699800826768826860d487071408fcffffff00000000d88908826a5894a8947851086d05140700000000240000007b675083970482689000956a00027ba88000826888007ba88800826880007ba89000956880028269787ba9980050203202aec00a0a8267406f779778208269486f99989920d4890b8268706f88978920330ae000037b6a70987720d497079888207b67383e07e800037b6b483e0be000037b68403d08f000034926f8034926f0034926e8034926e00333082482679800502034021ac37b673033082082679800502036020ac3482600042049263804492630044926280449262004826870978820988920140800000000180000007b6920d489029568e00397882098882095692004979920d4890a826830978820988820826b50d48b0b97772098772095680004978820d4780c3308ff3309ff64270a0152074d030a0c01330b20aeb7080a0c647b0182699800826a688267608268584916607b6b68956c00027bcb207bc940492628027bc848492630027bc7504926380295674002956820027bca585020380256f8826a608ea782686850223a02ab045109ef03956700028268980050203c0224be956800028287187b6798008287107b67688287087b676082877b67589567e00133084050203e02fbbd956b000182baf80082b8f00082b9e80082b7e00050224002f604520899038268587b68c0018268607b68c8018268687b68d0019568c001826998007b69d8017b67980050204202ecbe826978956c00017bc978826880007bc870826788007bc768826a90007bca607bc998007bc890007bc788003a07a800023a08b000023a09b800027bca80007bc7b8007bc8b0007bc9a8003a07c000023308209569a001956a8001956b60017bc7a00082679800502044025cc08268708267387b87088267487b878267407a871083870a05015107ef0295674001330840502046021cbd956b000182b95882ba5082b74882b8407b67587b6968d497077b689800d4a808d478089888207b6a60d4a707977720d487075207a20249263001492628014926200114070000000088a4a55a956820017b6738018267980050204802f8bd826768826860d487071408fcffffff0000000082699800d8890882695894989478510855028267980083770482689000956a00017ba8826888007ba808826880007ba810956800018269787ba91850204a02a4bd0a0a8268708267387b87088267487b878267407a8710492678044926700449266804492660043308248267980050204c0240c07b677082679800330850204e0231c048268004956900044929b800ff4929b000ff4929a800ff4929a000ff14080000000008000000826920d48902956860049788209888209569a004979920d4890a826870978820988820826b50d48b0b97772098772095688004978820d4780c3308ff3309ff64270a015207ef004926b8004926b0004926a8004926a000826798007b67c0008267587b67c8008267607b67d0009567c0009568a0008269687b69d8005020500292f58267288268787b7818826880007b7810826888007b7808826890007b78955120fb951700048270d8008275d0008276c8009511e004320095676002330840502052023cbb956800028287787b6790008287707b6788008287687b6780008287607b679800330054020a0c33025602282103502256021e035208c1009878205208ba0064787b67880083777b6790008267980050205802f1be826888007a68400483778368400433090a0b8167400428789567e00033084050205a02c3ba8267f8007b6790008267f0007b6788008267e8007b6780008267e0007b67980033005c020a0c33025e0228a80250225e02a50252084898782052084264787b67880083777b67900082679800502060027abe826888007a68c00483778368c00433090a0b8167c0040182689000ac870e0a0c016478987720510718003307018268180a0d0133070182681833090a0d01826798007b689000502062022ebe8378816990003307010a0d330733006402284cbe33075020640247be330701502066023ebe956a000182a76882a960d47909140700000000010000007ba7601407fcffffff0000000082a878d8780782a87094877ba96894973202956b000182b87082b960d4980882ba6882b978d4a909d48909989920d4a808978820d498083202829878d87807829870948782986894873202888820858801dba7088ea78ea9daa709d4aa07da780932026f77977a206f88988820d48a0a9877206f98978920d497079888203202956c000182c87882c76882ca60d47a0a140b00000000010000001407fcffffff00000000d8780782c970949794a732028267a000826880007b7808826890007b78826888007a78109567f8103202826a780182a71882a81082a90882aa6f776f886f996faa956bf8103202d49a0ad48709d4a909989920d4a808978820d498083202956a000182a9781407bcffffff00000000d8790782a870948782a868948732026f77987a206f88978b20d4ba0a9777206f99989920d49707988820320282171082181814090000000001000000d37909d48909987a2088aa01948a939a3202956c00017bc9707bca68d4a9077bc878d4b808d478089888207bcb60d4b707977720d487073202956b000182ba6882b97082b87882b7609577dcd87807949794a7320282a71882a81082a90882aa6f776f886f996faa32028219821a087b697b6a087b67107b68189551c08210388215308216289511403202826778018377249569ff079599f90032028268900082698000d49808826a880082699800d4a909d48909989920d4a808978820d498083202d4b80898aa20826ba0007aba107bb8087bb93308f810c8860932029518e08488e07b68780164818377838933084032023307f810c8760a95ab00053202d4c708d49808988820d4c909979920d498083202d4a708d49808988820d4a909979920d498083202826778018377049569ff079599f9003202849a40520a195109148d9a40cfa80ad09808d09707d4a707320032009597c0d0780733083200849a40520a195109148d9a40d0a70acf9707cf9808d4a808320032009598c0cf870833073200490a21a11a4292d210a1925429a42449922449922449922449922449922449922449922449922449922449922449aa9294529294942454a5242549922449922449922449922449922449922449922449499294a4aa24254994a492a42a494992922425294955559292a42495244544444a92242949929492244942a9a4a4a4489122458a14295294a488882849128490309426a52191888888881411112422894812892489469224899024912825911085aa21228288081189884422828808118944224224499222128a861092882489089124894494544a52924812491211111121122249924494544a52924822229108218488a48888880a1111212242448824492292244992888800222224010410494524224444884452118908112180a428221101444448a1a40920222222119224499244121111224911211222229224490ca50aa50aa5464400118588484408110c25ad501511222242082115aa12224492924491d28808080888808080248968244992248a44424444444484489292244984102292482111898888889484244992449188a42424898848129142444448448414424a4244444444888888442211091111119124492292442212111191248968244992248a2489881091482412224942449248944422121111d188888848924411298988101111091111112292248988888804121111d1888848924491089148241221448810214a232921499224225244924422914824128988488448882449922411892449242512452252444422918888101121222249922411112122424488884824121129444484121121894288602451884aa4884410498a4810118944225144444410114144920411111111494444440491248948101111092222028888880882484488880882484488088248081111118988888846244992248a444444041189442241444404c94810499220111140444444102411212222082211212208222122228244505224089190908804111111912022228088888808224902482a0288444424128988044589922821924488102122221241248208111191049044124924912492243a9ad48888888888442211111141144112114144444424952489880411111149229224111101441411412480009252242244441049925424224404910092522444041011412212912022128944228a0451a288228888222a62444b4404459a248988880820228a88201240528a44442412898808a24810119108221144888888249248224924491c4d6a4444444424914844444410459044441011894824121111114d9288884892241111212282444444922449922449922449924892448aa424892492244992a4929292244992248992925222492a92a412952292445295222249442289249144442441441241442292041111492222492209224992a494282211092222914824a24810258a28828828a2221291202222222249922449444404102322082288081111441244101122220820828884888800222222412409229208222292201211912422912492a0889452a2448c8844922422914822914492449224912412914824492449241249944822499224499224491211492249244924494644244992244a8a00922449229a9292940411894422114592249144124924c98808221249249144124924499244924824128944440411914824a251a22451828888888888282222492491441249322282888844a2a249448288248924499224494492002212413492049000929492482a25294924a244444404912429259188888888888888208a0411118920a2202222220248228924920092449244474444444444444444444422228824454444444424220a222222241211a420882241449288202251241a9104111111119124499224898800222288240124a92412111111111144912022221144144444082144124924912492248e88888888888888201244229148443492a4244992445210111105111111114544082122494844144144232988482412898888882022224444880812912022222248222222028811110449101122228824488248442408208224124244124022128948101111114112111111408c8820488288101141244112448488080288208984101149008988484482888888888888281224498a22828828a222120922222222228a044992a28820228aa88884124a28a184124a40444444449120222249a250918292504209252202882808110c2585124a289124129188882011941a888888883422922449840a44248968249224112a9ad054a815aa5045041111111141244922808888202222222222894444444444049124492222914824224208111185888888a8a0824a14a1240aa12482888888481a1191249222944444440144444144449488085250d24489448924124444444410892291242222222222824812111111891042222242444405a11211114492244912111111128988882054222280888288908848444414404414444484121141149124499224495292244905418286523449924a140912144ad12449522a25499224499224499024250920294892128408869268442452494992244992244992244952494992244992244992202212250920294822491022184aa21111911aa9481091482449499224111189244892209224099a24012495929482286a22499255962422228a8888444424822449424553822449924444444902480a8a26054992042182a1241a1111919244a24892924810119148242222824492200248924824228244444444144484440449142298a45049944882485224888824491211442249442222220842424222414444244992241111014444104902482a02482222222212412929490949929090101191089208424444920092482249922491241d4d6a24492289442222414a1011412492a44482888808229148444404894422918808214444844444449024253522412449924892241111014444902480482a2211452291042549494444224814448410420049249124499248928e88888844222211248944a2888888224124128944140922511411441415458288888888281224298a08228a8a91964c9ad488a048450a124492001240925291244992a424a59254924a494a5224490001245544a2481449aa8a92244991009252a5242529092049aa489224495224495225a9aa52922449918822129124494924454aa24a9128499292242912519224492595244952490100"
        },
        "methodIdentifiers": {
          "autoListMinted(address,uint256)": "7d808e68",
          "buy(uint256)": "d96a094a",
          "feeBps()": "24a9d853",
          "feeRecipient()": "46904840",
          "listings(uint256)": "de74e57b",
          "nft()": "47ccca02",
          "owner()": "8da5cb5b",
          "renounceOwnership()": "715018a6",
          "setFee(address,uint96)": "0948de59",
          "transferOwnership(address)": "f2fde38b"
        }
      },
      "hash": "8f4857155fd516382ea3dfa05069bd216a796e1bf9974c08f70b978d01ba63e0",
      "factoryDependencies": {}
    }
  }
}